{
  "contractName": "Debuggable",
  "abi": [
    {
      "anonymous": false,
      "inputs": [
        {
          "indexed": false,
          "name": "message",
          "type": "string"
        }
      ],
      "name": "DebugEvent",
      "type": "event"
    },
    {
      "constant": false,
      "inputs": [
        {
          "name": "message",
          "type": "string"
        }
      ],
      "name": "debug",
      "outputs": [],
      "payable": false,
      "stateMutability": "nonpayable",
      "type": "function"
    }
  ],
  "bytecode": "0x6060604052341561000f57600080fd5b61016e8061001e6000396000f300606060405260043610610041576000357c0100000000000000000000000000000000000000000000000000000000900463ffffffff1680632f50fbfa14610046575b600080fd5b341561005157600080fd5b6100a1600480803590602001908201803590602001908080601f016020809104026020016040519081016040528093929190818152602001838380828437820191505050505050919050506100a3565b005b7f56f074d292557f2e3c567d982816e0fb5b72100ff196892f8fbd23b8a9073679816040518080602001828103825283818151815260200191508051906020019080838360005b838110156101055780820151818401526020810190506100ea565b50505050905090810190601f1680156101325780820380516001836020036101000a031916815260200191505b509250505060405180910390a1505600a165627a7a723058205a706345d9de690c7d90fb34ce310b0eb04a27a43cde5658d06c71b711a2a5d40029",
  "source": "pragma solidity ^0.4.18;\n\n/**\n@title Debuggable\n@dev Contract that's meant to be extended in other contracts to give them\na debug event to test the code with. Just import, \"SampleContract is Debuggable\"\nand then in the SampleContract, writing debug(\"event\") will write an event in the blockchain.\n\n@author Convoluted Labs\n*/\ncontract Debuggable {\n\n  /**\n  @dev The triggerable debug event\n  @param message string that's written in the blockchain\n  */\n  event DebugEvent(string message);\n\n  /**\n  @dev Debug function that gets injected to extending contracts\n  @param message the message that we want to log/debug\n  */\n  function debug(string message) public {\n    DebugEvent(message);\n  }\n\n}\n",
  "sourcePath": "/home/jani/dev/blockchain/vanilla-platform/contracts/Debuggable.sol",
  "compiler": {
    "name": "solc",
    "version": "0.4.19+commit.c4cbbb05.Emscripten.clang"
  },
  "schemaVersion": "1.0.1",
  "updatedAt": "2018-02-23T09:05:43.076Z"
}