{
  "contractName": "Debuggable",
  "abi": [
    {
      "constant": true,
      "inputs": [],
      "name": "owner",
      "outputs": [
        {
          "name": "",
          "type": "address"
        }
      ],
      "payable": false,
      "stateMutability": "view",
      "type": "function"
    },
    {
      "constant": false,
      "inputs": [
        {
          "name": "newOwner",
          "type": "address"
        }
      ],
      "name": "transferOwnership",
      "outputs": [],
      "payable": false,
      "stateMutability": "nonpayable",
      "type": "function"
    },
    {
      "anonymous": false,
      "inputs": [
        {
          "indexed": false,
          "name": "message",
          "type": "string"
        }
      ],
      "name": "DebugString",
      "type": "event"
    },
    {
      "anonymous": false,
      "inputs": [
        {
          "indexed": false,
          "name": "message",
          "type": "string"
        },
        {
          "indexed": false,
          "name": "value",
          "type": "uint256"
        }
      ],
      "name": "DebugWithValue",
      "type": "event"
    },
    {
      "anonymous": false,
      "inputs": [
        {
          "indexed": true,
          "name": "previousOwner",
          "type": "address"
        },
        {
          "indexed": true,
          "name": "newOwner",
          "type": "address"
        }
      ],
      "name": "OwnershipTransferred",
      "type": "event"
    },
    {
      "constant": false,
      "inputs": [
        {
          "name": "message",
          "type": "string"
        }
      ],
      "name": "debugString",
      "outputs": [],
      "payable": false,
      "stateMutability": "nonpayable",
      "type": "function"
    },
    {
      "constant": false,
      "inputs": [
        {
          "name": "message",
          "type": "string"
        },
        {
          "name": "value",
          "type": "uint256"
        }
      ],
      "name": "debugWithValue",
      "outputs": [],
      "payable": false,
      "stateMutability": "nonpayable",
      "type": "function"
    },
    {
      "constant": false,
      "inputs": [],
      "name": "toggleDebug",
      "outputs": [],
      "payable": false,
      "stateMutability": "nonpayable",
      "type": "function"
    }
  ],
  "bytecode": "0x606060405260008060146101000a81548160ff021916908315150217905550336000806101000a81548173ffffffffffffffffffffffffffffffffffffffff021916908373ffffffffffffffffffffffffffffffffffffffff1602179055506105788061006d6000396000f30060606040526004361061006d576000357c0100000000000000000000000000000000000000000000000000000000900463ffffffff1680635a47e57c146100725780638da5cb5b146100d8578063b6d929cf1461012d578063ed9980651461018a578063f2fde38b1461019f575b600080fd5b341561007d57600080fd5b6100d6600480803590602001908201803590602001908080601f016020809104026020016040519081016040528093929190818152602001838380828437820191505050505050919080359060200190919050506101d8565b005b34156100e357600080fd5b6100eb610296565b604051808273ffffffffffffffffffffffffffffffffffffffff1673ffffffffffffffffffffffffffffffffffffffff16815260200191505060405180910390f35b341561013857600080fd5b610188600480803590602001908201803590602001908080601f016020809104026020016040519081016040528093929190818152602001838380828437820191505050505050919050506102bb565b005b341561019557600080fd5b61019d610370565b005b34156101aa57600080fd5b6101d6600480803573ffffffffffffffffffffffffffffffffffffffff169060200190919050506103f7565b005b600060149054906101000a900460ff1615610292577f6e90aba1107b4a018103de2d422091e629a4fb4c015a3cb8ea2e777757f3636582826040518080602001838152602001828103825284818151815260200191508051906020019080838360005b8381101561025657808201518184015260208101905061023b565b50505050905090810190601f1680156102835780820380516001836020036101000a031916815260200191505b50935050505060405180910390a15b5050565b6000809054906101000a900473ffffffffffffffffffffffffffffffffffffffff1681565b600060149054906101000a900460ff161561036d577f20670ef4ff6910e98e7c43650896cc0feeab168b4ca974d0748d31c42706a1e9816040518080602001828103825283818151815260200191508051906020019080838360005b83811015610332578082015181840152602081019050610317565b50505050905090810190601f16801561035f5780820380516001836020036101000a031916815260200191505b509250505060405180910390a15b50565b6000809054906101000a900473ffffffffffffffffffffffffffffffffffffffff1673ffffffffffffffffffffffffffffffffffffffff163373ffffffffffffffffffffffffffffffffffffffff161415156103cb57600080fd5b600060149054906101000a900460ff1615600060146101000a81548160ff021916908315150217905550565b6000809054906101000a900473ffffffffffffffffffffffffffffffffffffffff1673ffffffffffffffffffffffffffffffffffffffff163373ffffffffffffffffffffffffffffffffffffffff1614151561045257600080fd5b600073ffffffffffffffffffffffffffffffffffffffff168173ffffffffffffffffffffffffffffffffffffffff161415151561048e57600080fd5b8073ffffffffffffffffffffffffffffffffffffffff166000809054906101000a900473ffffffffffffffffffffffffffffffffffffffff1673ffffffffffffffffffffffffffffffffffffffff167f8be0079c531659141344cd1fd0a4f28419497f9722a3daafe3b4186f6b6457e060405160405180910390a3806000806101000a81548173ffffffffffffffffffffffffffffffffffffffff021916908373ffffffffffffffffffffffffffffffffffffffff160217905550505600a165627a7a7230582069270b4f104230331b4fc9362e0c1c8f7b05cc53208abf9cf2c5f5698f3020920029",
  "source": "pragma solidity ^0.4.26;\nimport \"./Ownable.sol\";\n\n/**\n@title Debuggable\n@dev Contract that's meant to be extended in other contracts to give them\na debug event to test the code with. Just import, \"SampleContract is Debuggable\"\nand then in the SampleContract, writing debug(\"event\") will write an event in the blockchain.\n\n@author Convoluted Labs\n*/\ncontract Debuggable is Ownable {\n\n  bool enabled = false;\n\n  /**\n  @dev String debugger\n  */\n  event DebugString(string message);\n\n  /**\n  @dev String with value debugger\n  */\n  event DebugWithValue(string message, uint value);\n\n  /**\n  @dev Debug a string\n  */\n  function debugString(string message) public {\n    if (enabled) {\n      DebugString(message);\n    }\n  }\n\n  /**\n  @dev Debug a string with a value\n  */\n  function debugWithValue(string message, uint value) public {\n    if (enabled) {\n      DebugWithValue(message, value);\n    }\n  }\n\n  /**\n  @dev activates or deactivates the debug functionality.\n  */\n  function toggleDebug() public onlyOwner {\n    enabled = !enabled;\n  }\n\n}\n",
  "sourcePath": "/home/node/app/contracts/Debuggable.sol",
  "compiler": {
    "name": "solc",
    "version": "0.4.19+commit.c4cbbb05.Emscripten.clang"
  },
  "schemaVersion": "1.0.1",
  "updatedAt": "2018-02-26T10:15:50.550Z"
}