{
  "contractName": "LongShortController",
  "abi": [
    {
      "constant": true,
      "inputs": [
        {
          "name": "isLongs",
          "type": "bool[]"
        },
        {
          "name": "balances",
          "type": "uint256[]"
        }
      ],
      "name": "requireZeroSum",
      "outputs": [],
      "payable": false,
      "stateMutability": "pure",
      "type": "function"
    },
    {
      "constant": true,
      "inputs": [
        {
          "name": "",
          "type": "uint256"
        }
      ],
      "name": "activeClosingDates",
      "outputs": [
        {
          "name": "",
          "type": "uint256"
        }
      ],
      "payable": false,
      "stateMutability": "view",
      "type": "function"
    },
    {
      "constant": false,
      "inputs": [
        {
          "name": "message",
          "type": "string"
        },
        {
          "name": "value",
          "type": "uint256"
        }
      ],
      "name": "debugWithValue",
      "outputs": [],
      "payable": false,
      "stateMutability": "nonpayable",
      "type": "function"
    },
    {
      "constant": true,
      "inputs": [],
      "name": "oracle",
      "outputs": [
        {
          "name": "",
          "type": "address"
        }
      ],
      "payable": false,
      "stateMutability": "view",
      "type": "function"
    },
    {
      "constant": true,
      "inputs": [],
      "name": "owner",
      "outputs": [
        {
          "name": "",
          "type": "address"
        }
      ],
      "payable": false,
      "stateMutability": "view",
      "type": "function"
    },
    {
      "constant": true,
      "inputs": [],
      "name": "oracleAddress",
      "outputs": [
        {
          "name": "",
          "type": "address"
        }
      ],
      "payable": false,
      "stateMutability": "view",
      "type": "function"
    },
    {
      "constant": false,
      "inputs": [
        {
          "name": "message",
          "type": "string"
        }
      ],
      "name": "debugString",
      "outputs": [],
      "payable": false,
      "stateMutability": "nonpayable",
      "type": "function"
    },
    {
      "constant": true,
      "inputs": [
        {
          "name": "",
          "type": "uint256"
        }
      ],
      "name": "LEVERAGES",
      "outputs": [
        {
          "name": "",
          "type": "uint8"
        }
      ],
      "payable": false,
      "stateMutability": "view",
      "type": "function"
    },
    {
      "constant": true,
      "inputs": [
        {
          "name": "leverage",
          "type": "uint8"
        }
      ],
      "name": "validateLeverage",
      "outputs": [],
      "payable": false,
      "stateMutability": "view",
      "type": "function"
    },
    {
      "constant": false,
      "inputs": [],
      "name": "toggleDebug",
      "outputs": [],
      "payable": false,
      "stateMutability": "nonpayable",
      "type": "function"
    },
    {
      "constant": false,
      "inputs": [
        {
          "name": "newOwner",
          "type": "address"
        }
      ],
      "name": "transferOwnership",
      "outputs": [],
      "payable": false,
      "stateMutability": "nonpayable",
      "type": "function"
    },
    {
      "anonymous": false,
      "inputs": [
        {
          "indexed": false,
          "name": "message",
          "type": "string"
        }
      ],
      "name": "DebugString",
      "type": "event"
    },
    {
      "anonymous": false,
      "inputs": [
        {
          "indexed": false,
          "name": "message",
          "type": "string"
        },
        {
          "indexed": false,
          "name": "value",
          "type": "uint256"
        }
      ],
      "name": "DebugWithValue",
      "type": "event"
    },
    {
      "anonymous": false,
      "inputs": [
        {
          "indexed": true,
          "name": "previousOwner",
          "type": "address"
        },
        {
          "indexed": true,
          "name": "newOwner",
          "type": "address"
        }
      ],
      "name": "OwnershipTransferred",
      "type": "event"
    },
    {
      "constant": false,
      "inputs": [
        {
          "name": "_oracleAddress",
          "type": "address"
        }
      ],
      "name": "linkOracle",
      "outputs": [],
      "payable": false,
      "stateMutability": "nonpayable",
      "type": "function"
    },
    {
      "constant": false,
      "inputs": [
        {
          "name": "parameterHash",
          "type": "bytes32"
        },
        {
          "name": "currencyPair",
          "type": "bytes32"
        },
        {
          "name": "duration",
          "type": "uint256"
        },
        {
          "name": "leverage",
          "type": "uint8"
        },
        {
          "name": "ownerSignatures",
          "type": "bytes32[]"
        },
        {
          "name": "paymentAddresses",
          "type": "address[]"
        },
        {
          "name": "balances",
          "type": "uint256[]"
        },
        {
          "name": "isLongs",
          "type": "bool[]"
        }
      ],
      "name": "openLongShort",
      "outputs": [],
      "payable": true,
      "stateMutability": "payable",
      "type": "function"
    },
    {
      "constant": true,
      "inputs": [],
      "name": "getActiveClosingDates",
      "outputs": [
        {
          "name": "closingDates",
          "type": "uint256[]"
        }
      ],
      "payable": false,
      "stateMutability": "view",
      "type": "function"
    },
    {
      "constant": true,
      "inputs": [
        {
          "name": "closingDate",
          "type": "uint256"
        }
      ],
      "name": "getLongShortHashes",
      "outputs": [
        {
          "name": "hashes",
          "type": "bytes32[]"
        }
      ],
      "payable": false,
      "stateMutability": "view",
      "type": "function"
    },
    {
      "constant": true,
      "inputs": [
        {
          "name": "longShortHash",
          "type": "bytes32"
        }
      ],
      "name": "getLongShort",
      "outputs": [
        {
          "name": "currencyPair",
          "type": "bytes32"
        },
        {
          "name": "startingPrice",
          "type": "uint256"
        },
        {
          "name": "leverage",
          "type": "uint8"
        }
      ],
      "payable": false,
      "stateMutability": "view",
      "type": "function"
    },
    {
      "constant": true,
      "inputs": [
        {
          "name": "isLong",
          "type": "bool"
        },
        {
          "name": "balance",
          "type": "uint256"
        },
        {
          "name": "leverage",
          "type": "uint8"
        },
        {
          "name": "startingPrice",
          "type": "uint256"
        },
        {
          "name": "closingPrice",
          "type": "uint256"
        }
      ],
      "name": "calculateReward",
      "outputs": [
        {
          "name": "reward",
          "type": "uint256"
        }
      ],
      "payable": false,
      "stateMutability": "pure",
      "type": "function"
    },
    {
      "constant": true,
      "inputs": [],
      "name": "getRewardsLength",
      "outputs": [
        {
          "name": "rewardsLength",
          "type": "uint256"
        }
      ],
      "payable": false,
      "stateMutability": "view",
      "type": "function"
    },
    {
      "constant": false,
      "inputs": [
        {
          "name": "longShortHash",
          "type": "bytes32"
        }
      ],
      "name": "exercise",
      "outputs": [],
      "payable": false,
      "stateMutability": "nonpayable",
      "type": "function"
    },
    {
      "constant": false,
      "inputs": [],
      "name": "payRewards",
      "outputs": [],
      "payable": false,
      "stateMutability": "nonpayable",
      "type": "function"
    }
  ],
  "bytecode": "0x606060405260008060146101000a81548160ff0219169083151502179055506040805190810160405280600260ff168152602001600560ff1681525060019060026200004d92919062000094565b50336000806101000a81548173ffffffffffffffffffffffffffffffffffffffff021916908373ffffffffffffffffffffffffffffffffffffffff16021790555062000175565b82805482825590600052602060002090601f016020900481019282156200012f5791602002820160005b83821115620000fe57835183826101000a81548160ff021916908360ff1602179055509260200192600101602081600001049283019260010302620000be565b80156200012d5782816101000a81549060ff0219169055600101602081600001049283019260010302620000fe565b505b5090506200013e919062000142565b5090565b6200017291905b808211156200016e57600081816101000a81549060ff02191690555060010162000149565b5090565b90565b61220080620001856000396000f300606060405260043610610112576000357c0100000000000000000000000000000000000000000000000000000000900463ffffffff16806309d2ee7b1461011757806318ee0aa3146101b15780631c6d1138146101e85780635a47e57c146102525780636b7ef2ee146102b85780637288e961146102f1578063750614c7146103065780637dc0d1d0146104445780638da5cb5b14610499578063a3cfb754146104ee578063a89ae4ba1461054e578063b6d929cf146105a3578063c6daf4eb14610600578063c83e2d4d14610627578063cdc06c911461069f578063cf90f950146106f6578063d7da1dee14610733578063d806476d1461075c578063ed99806514610782578063f2fde38b14610797575b600080fd5b341561012257600080fd5b6101af600480803590602001908201803590602001908080602002602001604051908101604052809392919081815260200183836020028082843782019150505050505091908035906020019082018035906020019080806020026020016040519081016040528093929190818152602001838360200280828437820191505050505050919050506107d0565b005b34156101bc57600080fd5b6101d2600480803590602001909190505061088b565b6040518082815260200191505060405180910390f35b34156101f357600080fd5b6101fb6108af565b6040518080602001828103825283818151815260200191508051906020019060200280838360005b8381101561023e578082015181840152602081019050610223565b505050509050019250505060405180910390f35b341561025d57600080fd5b6102b6600480803590602001908201803590602001908080601f0160208091040260200160405190810160405280939291908181526020018383808284378201915050505050509190803590602001909190505061090d565b005b34156102c357600080fd5b6102ef600480803573ffffffffffffffffffffffffffffffffffffffff169060200190919050506109cb565b005b34156102fc57600080fd5b610304610b0b565b005b6104426004808035600019169060200190919080356000191690602001909190803590602001909190803560ff1690602001909190803590602001908201803590602001908080602002602001604051908101604052809392919081815260200183836020028082843782019150505050505091908035906020019082018035906020019080806020026020016040519081016040528093929190818152602001838360200280828437820191505050505050919080359060200190820180359060200190808060200260200160405190810160405280939291908181526020018383602002808284378201915050505050509190803590602001908201803590602001908080602002602001604051908101604052809392919081815260200183836020028082843782019150505050505091905050610c77565b005b341561044f57600080fd5b61045761106b565b604051808273ffffffffffffffffffffffffffffffffffffffff1673ffffffffffffffffffffffffffffffffffffffff16815260200191505060405180910390f35b34156104a457600080fd5b6104ac611091565b604051808273ffffffffffffffffffffffffffffffffffffffff1673ffffffffffffffffffffffffffffffffffffffff16815260200191505060405180910390f35b34156104f957600080fd5b6105386004808035151590602001909190803590602001909190803560ff169060200190919080359060200190919080359060200190919050506110b6565b6040518082815260200191505060405180910390f35b341561055957600080fd5b610561611251565b604051808273ffffffffffffffffffffffffffffffffffffffff1673ffffffffffffffffffffffffffffffffffffffff16815260200191505060405180910390f35b34156105ae57600080fd5b6105fe600480803590602001908201803590602001908080601f01602080910402602001604051908101604052809392919081815260200183838082843782019150505050505091905050611277565b005b341561060b57600080fd5b61062560048080356000191690602001909190505061132c565b005b341561063257600080fd5b610648600480803590602001909190505061184a565b6040518080602001828103825283818151815260200191508051906020019060200280838360005b8381101561068b578082015181840152602081019050610670565b505050509050019250505060405180910390f35b34156106aa57600080fd5b6106c460048080356000191690602001909190505061191a565b6040518084600019166000191681526020018381526020018260ff1660ff168152602001935050505060405180910390f35b341561070157600080fd5b61071760048080359060200190919050506119f1565b604051808260ff1660ff16815260200191505060405180910390f35b341561073e57600080fd5b610746611a24565b6040518082815260200191505060405180910390f35b341561076757600080fd5b610780600480803560ff16906020019091905050611a8c565b005b341561078d57600080fd5b610795611b0e565b005b34156107a257600080fd5b6107ce600480803573ffffffffffffffffffffffffffffffffffffffff16906020019091905050611b95565b005b60008060008090505b84518160ff16101561087657848160ff168151811015156107f657fe5b906020019060200201511561083957610832848260ff1681518110151561081957fe5b9060200190602002015183611cea90919063ffffffff16565b9150610869565b610866848260ff1681518110151561084d57fe5b9060200190602002015184611cea90919063ffffffff16565b92505b80806001019150506107d9565b818314151561088457600080fd5b5050505050565b60028181548110151561089a57fe5b90600052602060002090016000915090505481565b6108b7611ed7565b600280548060200260200160405190810160405280929190818152602001828054801561090357602002820191906000526020600020905b8154815260200190600101908083116108ef575b5050505050905090565b600060149054906101000a900460ff16156109c7577f6e90aba1107b4a018103de2d422091e629a4fb4c015a3cb8ea2e777757f3636582826040518080602001838152602001828103825284818151815260200191508051906020019080838360005b8381101561098b578082015181840152602081019050610970565b50505050905090810190601f1680156109b85780820380516001836020036101000a031916815260200191505b50935050505060405180910390a15b5050565b6000809054906101000a900473ffffffffffffffffffffffffffffffffffffffff1673ffffffffffffffffffffffffffffffffffffffff163373ffffffffffffffffffffffffffffffffffffffff16141515610a2657600080fd5b80600860006101000a81548173ffffffffffffffffffffffffffffffffffffffff021916908373ffffffffffffffffffffffffffffffffffffffff160217905550600860009054906101000a900473ffffffffffffffffffffffffffffffffffffffff16600760006101000a81548173ffffffffffffffffffffffffffffffffffffffff021916908373ffffffffffffffffffffffffffffffffffffffff160217905550610b086040805190810160405280600d81526020017f4f7261636c65206c696e6b656400000000000000000000000000000000000000815250611277565b50565b60008090505b6006805490508160ff161015610c645760068160ff16815481101515610b3357fe5b906000526020600020906002020160000160009054906101000a900473ffffffffffffffffffffffffffffffffffffffff1673ffffffffffffffffffffffffffffffffffffffff166108fc60068360ff16815481101515610b9057fe5b9060005260206000209060020201600101549081150290604051600060405180830381858888f193505050501515610bc757600080fd5b60068160ff16815481101515610bd957fe5b9060005260206000209060020201600080820160006101000a81549073ffffffffffffffffffffffffffffffffffffffff021916905560018201600090555050610c576040805190810160405280600c81526020017f5265776172642070616964210000000000000000000000000000000000000000815250611277565b8080600101915050610b11565b6000600681610c739190611eeb565b5050565b6000806000806000809054906101000a900473ffffffffffffffffffffffffffffffffffffffff1673ffffffffffffffffffffffffffffffffffffffff163373ffffffffffffffffffffffffffffffffffffffff16141515610cd857600080fd5b86518851141515610ce857600080fd5b85518751141515610cf857600080fd5b84518651141515610d0857600080fd5b610d1285876107d0565b610d1b89611a8c565b6103849350308c42604051808473ffffffffffffffffffffffffffffffffffffffff1673ffffffffffffffffffffffffffffffffffffffff166c010000000000000000000000000281526014018360001916600019168152602001828152602001935050505060405180910390209250610d9e8a42611cea90919063ffffffff16565b9150600090505b84518160ff161015610f2a576005600084600019166000191681526020019081526020016000208054806001018281610dde9190611f1d565b91600052602060002090600402016000608060405190810160405280898660ff16815181101515610e0b57fe5b90602001906020020151151581526020018c8660ff16815181101515610e2d57fe5b906020019060200201516000191681526020018b8660ff16815181101515610e5157fe5b9060200190602002015173ffffffffffffffffffffffffffffffffffffffff1681526020018a8660ff16815181101515610e8757fe5b90602001906020020151815250909190915060008201518160000160006101000a81548160ff0219169083151502179055506020820151816001019060001916905560408201518160020160006101000a81548173ffffffffffffffffffffffffffffffffffffffff021916908373ffffffffffffffffffffffffffffffffffffffff160217905550606082015181600301555050508080600101915050610da5565b60028054806001018281610f3e9190611f4f565b916000526020600020900160008490919091505550600360008381526020019081526020016000208054806001018281610f789190611f7b565b9160005260206000209001600085909190915090600019169055506080604051908101604052808c6000191681526020018581526020018381526020018a60ff1681525060046000856000191660001916815260200190815260200160002060008201518160000190600019169055602082015181600101556040820151816002015560608201518160030160006101000a81548160ff021916908360ff16021790555090505061105d6040805190810160405280601881526020017f4e6577204c6f6e6753686f7274206163746976617465642e0000000000000000815250611277565b505050505050505050505050565b600760009054906101000a900473ffffffffffffffffffffffffffffffffffffffff1681565b6000809054906101000a900473ffffffffffffffffffffffffffffffffffffffff1681565b60008060008084861115611185576110d78587611d0890919063ffffffff16565b9250611114866111068960ff166110f8606488611d2190919063ffffffff16565b611d2190919063ffffffff16565b611d5c90919063ffffffff16565b905061113c606461112e838b611d2190919063ffffffff16565b611d5c90919063ffffffff16565b91508782111561114a578791505b881561116a576111638289611d0890919063ffffffff16565b9350611180565b61117d8289611cea90919063ffffffff16565b93505b611242565b6111988686611d0890919063ffffffff16565b92506111d5866111c78960ff166111b9606488611d2190919063ffffffff16565b611d2190919063ffffffff16565b611d5c90919063ffffffff16565b90506111fd60646111ef838b611d2190919063ffffffff16565b611d5c90919063ffffffff16565b91508782111561120b578791505b881561122b576112248289611cea90919063ffffffff16565b9350611241565b61123e8289611d0890919063ffffffff16565b93505b5b83935050505095945050505050565b600860009054906101000a900473ffffffffffffffffffffffffffffffffffffffff1681565b600060149054906101000a900460ff1615611329577f20670ef4ff6910e98e7c43650896cc0feeab168b4ca974d0748d31c42706a1e9816040518080602001828103825283818151815260200191508051906020019080838360005b838110156112ee5780820151818401526020810190506112d3565b50505050905090810190601f16801561131b5780820380516001836020036101000a031916815260200191505b509250505060405180910390a15b50565b611334611fa7565b600061133e611fd6565b60006004600086600019166000191681526020019081526020016000206080604051908101604052908160008201546000191660001916815260200160018201548152602001600282015481526020016003820160009054906101000a900460ff1660ff1660ff16815250509350428460400151111515156113bf57600080fd5b611424606060405190810160405280602681526020017f476976656e20636c6f73696e6744617465206973206f7665722069742773206581526020017f78706972792e0000000000000000000000000000000000000000000000000000815250611277565b6005600086600019166000191681526020019081526020016000208054905092506114836040805190810160405280601681526020017f43616c63756c6174696e6720726577617264732e2e2e00000000000000000000815250611277565b600560008660001916600019168152602001908152602001600020805480602002602001604051908101604052809291908181526020016000905b8282101561157e5783829060005260206000209060040201608060405190810160405290816000820160009054906101000a900460ff161515151581526020016001820154600019166000191681526020016002820160009054906101000a900473ffffffffffffffffffffffffffffffffffffffff1673ffffffffffffffffffffffffffffffffffffffff1673ffffffffffffffffffffffffffffffffffffffff168152602001600382015481525050815260200190600101906114be565b505050509150600090505b828160ff1610156117eb57600680548060010182816115a89190611fea565b916000526020600020906002020160006040805190810160405280868660ff168151811015156115d457fe5b906020019060200201516040015173ffffffffffffffffffffffffffffffffffffffff1681526020016116f6878760ff1681518110151561161157fe5b9060200190602002015160000151888860ff1681518110151561163057fe5b90602001906020020151606001518b606001518c60200151600760009054906101000a900473ffffffffffffffffffffffffffffffffffffffff1673ffffffffffffffffffffffffffffffffffffffff1663a3e6ba946000604051602001526040518163ffffffff167c0100000000000000000000000000000000000000000000000000000000028152600401602060405180830381600087803b15156116d657600080fd5b6102c65a03f115156116e757600080fd5b505050604051805190506110b6565b815250909190915060008201518160000160006101000a81548173ffffffffffffffffffffffffffffffffffffffff021916908373ffffffffffffffffffffffffffffffffffffffff160217905550602082015181600101555050506005600086600019166000191681526020019081526020016000206000611779919061201c565b6117de606060405190810160405280602581526020017f4e6577207265776172642063616c63756c617465642c20706f736974696f6e2081526020017f656e646564000000000000000000000000000000000000000000000000000000815250611277565b8080600101915050611589565b600460008660001916600019168152602001908152602001600020600080820160009055600182016000905560028201600090556003820160006101000a81549060ff02191690555050611843858560400151611d77565b5050505050565b611852612040565b6000809054906101000a900473ffffffffffffffffffffffffffffffffffffffff1673ffffffffffffffffffffffffffffffffffffffff163373ffffffffffffffffffffffffffffffffffffffff161415156118ad57600080fd5b6003600083815260200190815260200160002080548060200260200160405190810160405280929190818152602001828054801561190e57602002820191906000526020600020905b815460001916815260200190600101908083116118f6575b50505050509050919050565b60008060008060009054906101000a900473ffffffffffffffffffffffffffffffffffffffff1673ffffffffffffffffffffffffffffffffffffffff163373ffffffffffffffffffffffffffffffffffffffff1614151561197a57600080fd5b600460008560001916600019168152602001908152602001600020600001546004600086600019166000191681526020019081526020016000206001015460046000876000191660001916815260200190815260200160002060030160009054906101000a900460ff169250925092509193909250565b600181815481101515611a0057fe5b9060005260206000209060209182820401919006915054906101000a900460ff1681565b60008060009054906101000a900473ffffffffffffffffffffffffffffffffffffffff1673ffffffffffffffffffffffffffffffffffffffff163373ffffffffffffffffffffffffffffffffffffffff16141515611a8157600080fd5b600680549050905090565b60008060009150600090505b6001805490508160ff161015611afd5760018160ff16815481101515611aba57fe5b90600052602060002090602091828204019190069054906101000a900460ff1660ff168360ff161415611af05760019150611afd565b8080600101915050611a98565b811515611b0957600080fd5b505050565b6000809054906101000a900473ffffffffffffffffffffffffffffffffffffffff1673ffffffffffffffffffffffffffffffffffffffff163373ffffffffffffffffffffffffffffffffffffffff16141515611b6957600080fd5b600060149054906101000a900460ff1615600060146101000a81548160ff021916908315150217905550565b6000809054906101000a900473ffffffffffffffffffffffffffffffffffffffff1673ffffffffffffffffffffffffffffffffffffffff163373ffffffffffffffffffffffffffffffffffffffff16141515611bf057600080fd5b600073ffffffffffffffffffffffffffffffffffffffff168173ffffffffffffffffffffffffffffffffffffffff1614151515611c2c57600080fd5b8073ffffffffffffffffffffffffffffffffffffffff166000809054906101000a900473ffffffffffffffffffffffffffffffffffffffff1673ffffffffffffffffffffffffffffffffffffffff167f8be0079c531659141344cd1fd0a4f28419497f9722a3daafe3b4186f6b6457e060405160405180910390a3806000806101000a81548173ffffffffffffffffffffffffffffffffffffffff021916908373ffffffffffffffffffffffffffffffffffffffff16021790555050565b6000808284019050838110151515611cfe57fe5b8091505092915050565b6000828211151515611d1657fe5b818303905092915050565b6000806000841415611d365760009150611d55565b8284029050828482811515611d4757fe5b04141515611d5157fe5b8091505b5092915050565b6000808284811515611d6a57fe5b0490508091505092915050565b60008060008092505b6002805490508360ff161015611ed0578360028460ff16815481101515611da357fe5b9060005260206000209001541415611ec357600360008581526020019081526020016000209150600090505b81805490508160ff161015611ebe578460001916828260ff16815481101515611df457fe5b906000526020600020900154600019161415611eb157818160ff16815481101515611e1b57fe5b90600052602060002090016000905581805480919060019003611e3e9190611f7b565b50600082805490501415611e885760028360ff16815481101515611e5e57fe5b9060005260206000209001600090556002805480919060019003611e829190612054565b50611eac565b8160036000868152602001908152602001600020908054611eaa929190612080565b505b611ebe565b8080600101915050611dcf565b611ed0565b8280600101935050611d80565b5050505050565b602060405190810160405280600081525090565b815481835581811511611f1857600202816002028360005260206000209182019101611f1791906120d2565b5b505050565b815481835581811511611f4a57600402816004028360005260206000209182019101611f499190612120565b5b505050565b815481835581811511611f7657818360005260206000209182019101611f75919061218a565b5b505050565b815481835581811511611fa257818360005260206000209182019101611fa191906121af565b5b505050565b608060405190810160405280600080191681526020016000815260200160008152602001600060ff1681525090565b602060405190810160405280600081525090565b8154818355818115116120175760020281600202836000526020600020918201910161201691906120d2565b5b505050565b508054600082556004029060005260206000209081019061203d9190612120565b50565b602060405190810160405280600081525090565b81548183558181151161207b5781836000526020600020918201910161207a919061218a565b5b505050565b8280548282559060005260206000209081019282156120c15760005260206000209182015b828111156120c05782548255916001019190600101906120a5565b5b5090506120ce91906121af565b5090565b61211d91905b8082111561211957600080820160006101000a81549073ffffffffffffffffffffffffffffffffffffffff02191690556001820160009055506002016120d8565b5090565b90565b61218791905b8082111561218357600080820160006101000a81549060ff021916905560018201600090556002820160006101000a81549073ffffffffffffffffffffffffffffffffffffffff0219169055600382016000905550600401612126565b5090565b90565b6121ac91905b808211156121a8576000816000905550600101612190565b5090565b90565b6121d191905b808211156121cd5760008160009055506001016121b5565b5090565b905600a165627a7a72305820e1bc2de9edda5f70562a77e27c57b16ef42150275f37d6328822c73673d879fa0029",
  "source": "pragma solidity ^0.4.18;\nimport \"./Ownable.sol\";\nimport \"./Debuggable.sol\";\nimport \"./Validatable.sol\";\nimport \"./SafeMath.sol\";\nimport \"./Oracle.sol\";\n\n/**\n@dev Controller for Long/Short options\non the Ethereum blockchain.\n\n@author Convoluted Labs\n*/\ncontract LongShortController is Ownable, Debuggable, Validatable {\n\n    // Use Zeppelin's SafeMath library for calculations\n    using SafeMath for uint256;\n\n    /**\n    @dev Position struct\n    */\n    struct Position {\n        bool isLong;\n        bytes32 ownerSignature;\n        address paymentAddress;\n        uint256 balance;\n    }\n\n    /**\n    @dev Activated LongShort struct\n    */\n    struct LongShort {\n        bytes32 currencyPair;\n        uint256 startingPrice;\n        uint closingDate;\n        uint8 leverage;\n    }\n\n    /**\n    @dev Reward struct for calculated rewards\n    */\n    struct Reward {\n        address paymentAddress;\n        uint256 balance;\n    }\n\n    /// List of active closing dates\n    uint[] public activeClosingDates;\n    mapping(uint => bytes32[]) private longShortHashes;\n    mapping(bytes32 => LongShort) private longShorts;\n    mapping(bytes32 => Position[]) private positions;\n\n    // Queued rewards\n    Reward[] private rewards;\n\n    // Price oracle contract and address\n    Oracle public oracle;\n    address public oracleAddress;\n\n    /**\n    @dev Links Vanilla's oracle to the contract\n    */\n    function linkOracle(address _oracleAddress) public onlyOwner {\n        oracleAddress = _oracleAddress;\n        oracle = Oracle(oracleAddress);\n        debugString(\"Oracle linked\");\n    }\n\n    /**\n    @dev LongShort opener function. Can only be called by the owner.\n    */\n    function openLongShort(bytes32 parameterHash, bytes32 currencyPair, uint duration, uint8 leverage, bytes32[] ownerSignatures, address[] paymentAddresses, uint256[] balances, bool[] isLongs) public payable onlyOwner {\n        /// Input validation\n        require(ownerSignatures.length == paymentAddresses.length);\n        require(paymentAddresses.length == balances.length);\n        require(balances.length == isLongs.length);\n        requireZeroSum(isLongs, balances);\n        validateLeverage(leverage);\n\n        uint256 startingPrice = 900; // CHange this to an oracle-fetched price\n        bytes32 longShortHash = keccak256(this, parameterHash, block.timestamp);\n        uint closingDate = block.timestamp.add(duration);\n\n        for (uint8 i = 0; i < isLongs.length; i++) {\n            positions[longShortHash].push(Position(isLongs[i], ownerSignatures[i], paymentAddresses[i], balances[i]));\n        }\n\n        activeClosingDates.push(closingDate);\n        longShortHashes[closingDate].push(longShortHash);\n        longShorts[longShortHash] = LongShort(currencyPair, startingPrice, closingDate, leverage);\n\n        debugString(\"New LongShort activated.\");\n    }\n\n    /**\n    @dev Gets all active closing dates from the contract\n\n    @return {\n        \"closingDates\": \"uint[]\"\n    }\n    */\n    function getActiveClosingDates() public view returns (uint[] closingDates) {\n        return activeClosingDates;\n    }\n\n    /**\n    @dev Get LongShort identifiers/hashes by closing date.\n    Only callable by the owner.\n\n    @param closingDate (uint)\n    @return {\n        \"hashes\": \"bytes32[]\"\n    }\n    */\n    function getLongShortHashes(uint closingDate) public view onlyOwner returns (bytes32[] hashes) {\n        return longShortHashes[closingDate];\n    }\n\n    /**\n    @dev Get a single LongShort with its identifier\n    Only callable by the owner.\n\n    @param longShortHash (bytes32)\n    @return {\n        \"currencyPair\": \"bytes32[]\",\n        \"startingPrice\": \"uint256\",\n        \"leverage\": \"uint8\"\n    }\n    */\n    function getLongShort(bytes32 longShortHash) public view onlyOwner returns (bytes32 currencyPair, uint256 startingPrice, uint8 leverage) {\n        return (longShorts[longShortHash].currencyPair, longShorts[longShortHash].startingPrice, longShorts[longShortHash].leverage);\n    }\n\n    /**\n    @dev Calculates reward for a single position with given parameters\n\n    @param isLong boolean { true: \"LONG\", false: \"SHORT\" }\n    @param balance the original stake of the user (uint256)\n    @param leverage the leverage of the LongShort (uint8)\n    @param startingPrice (uint256)\n    @param closingPrice (uint256)\n    @return {\n        \"reward\": \"uint256\"\n    }\n    */\n    function calculateReward(bool isLong, uint256 balance, uint8 leverage, uint256 startingPrice, uint256 closingPrice) public pure returns (uint256 reward) {\n        uint256 priceDiff;\n        uint256 balanceDiff;\n        uint256 diffPercentage;\n\n        if (startingPrice > closingPrice) {\n\n            priceDiff = startingPrice.sub(closingPrice);\n            diffPercentage = priceDiff.mul(100).mul(leverage).div(startingPrice);\n            balanceDiff = balance.mul(diffPercentage).div(100);\n\n            if (balanceDiff > balance) {\n                balanceDiff = balance;\n            }\n\n            if (isLong) {\n                reward = balance.sub(balanceDiff);\n            } else {\n                reward = balance.add(balanceDiff);\n            }\n\n        } else {\n\n            priceDiff = closingPrice.sub(startingPrice);\n            diffPercentage = priceDiff.mul(100).mul(leverage).div(startingPrice);\n            balanceDiff = balance.mul(diffPercentage).div(100);\n\n            if (balanceDiff > balance) {\n                balanceDiff = balance;\n            }\n\n            if (isLong) {\n                reward = balance.add(balanceDiff);\n            } else {\n                reward = balance.sub(balanceDiff);\n            }\n\n        }\n\n        return reward;\n    }\n\n    /**\n    @dev Get the length of all queued rewards\n    @return {\n        \"rewardsLength\": \"uint\"\n    }\n    */\n    function getRewardsLength() public view onlyOwner returns (uint rewardsLength) {\n        return rewards.length;\n    }\n\n    /**\n    @dev Removes longshorts from storage\n    */\n    function unlinkLongShortFromClosingDate(bytes32 longShortHash, uint closingDate) internal {\n        for (uint8 i = 0; i < activeClosingDates.length; i++) {\n            if (activeClosingDates[i] == closingDate) {\n                bytes32[] storage hashes = longShortHashes[closingDate];\n                for (uint8 j = 0; j < hashes.length; j++) {\n                    if (hashes[j] == longShortHash) {\n                        delete hashes[j];\n                        hashes.length--;\n                        if (hashes.length == 0) {\n                            delete activeClosingDates[i];\n                            activeClosingDates.length--;\n                        } else {\n                            longShortHashes[closingDate] = hashes;\n                        }\n                        break;\n                    }\n                }\n                break;\n            }\n        }\n    }\n\n\n    /**\n    @dev A function that exercises an option on it's expiry,\n    effectively calculating rewards and closing positions\n\n    @param longShortHash the unique ID for a single LongShort\n    */\n    function exercise(bytes32 longShortHash) public {\n        LongShort memory longShort = longShorts[longShortHash];\n\n        require(longShort.closingDate <= block.timestamp);\n        debugString(\"Given closingDate is over it's expiry.\");\n\n        uint positionsLength = positions[longShortHash].length;\n\n        debugString(\"Calculating rewards...\");\n\n        Position[] memory positionsForHash = positions[longShortHash];\n\n        for (uint8 j = 0; j < positionsLength; j++) {\n            rewards.push(\n                Reward(\n                    positionsForHash[j].paymentAddress,\n                    calculateReward(\n                        positionsForHash[j].isLong,\n                        positionsForHash[j].balance,\n                        longShort.leverage,\n                        longShort.startingPrice,\n                        oracle.latestPrice()\n                    )\n                )\n            );\n            delete positions[longShortHash];\n            debugString(\"New reward calculated, position ended\");\n        }\n\n        delete longShorts[longShortHash];\n        unlinkLongShortFromClosingDate(longShortHash, longShort.closingDate);\n    }\n\n    /**\n    @dev Pays all queued rewards to their corresponding addresses\n    */\n    function payRewards() public {\n        for (uint8 paymentNum = 0; paymentNum < rewards.length; paymentNum++) {\n            rewards[paymentNum].paymentAddress.transfer(rewards[paymentNum].balance);\n            delete rewards[paymentNum];\n            debugString(\"Reward paid!\");\n        }\n        rewards.length = 0;\n    }\n}\n",
  "sourcePath": "/home/node/app/contracts/LongShortController.sol",
  "compiler": {
    "name": "solc",
    "version": "0.4.19+commit.c4cbbb05.Emscripten.clang"
  },
  "schemaVersion": "1.0.1",
  "updatedAt": "2018-02-26T10:15:50.993Z"
}