{
  "contractName": "LongShortController",
  "abi": [
    {
      "constant": true,
      "inputs": [
        {
          "name": "isLongs",
          "type": "bool[]"
        },
        {
          "name": "balances",
          "type": "uint256[]"
        }
      ],
      "name": "requireZeroSum",
      "outputs": [],
      "payable": false,
      "stateMutability": "pure",
      "type": "function"
    },
    {
      "constant": true,
      "inputs": [
        {
          "name": "",
          "type": "uint256"
        }
      ],
      "name": "activeClosingDates",
      "outputs": [
        {
          "name": "",
          "type": "uint256"
        }
      ],
      "payable": false,
      "stateMutability": "view",
      "type": "function"
    },
    {
      "constant": false,
      "inputs": [
        {
          "name": "message",
          "type": "string"
        }
      ],
      "name": "debug",
      "outputs": [],
      "payable": false,
      "stateMutability": "nonpayable",
      "type": "function"
    },
    {
      "constant": true,
      "inputs": [
        {
          "name": "",
          "type": "uint256"
        }
      ],
      "name": "CURRENCY_PAIRS",
      "outputs": [
        {
          "name": "",
          "type": "string"
        }
      ],
      "payable": false,
      "stateMutability": "view",
      "type": "function"
    },
    {
      "constant": true,
      "inputs": [],
      "name": "oracle",
      "outputs": [
        {
          "name": "",
          "type": "address"
        }
      ],
      "payable": false,
      "stateMutability": "view",
      "type": "function"
    },
    {
      "constant": true,
      "inputs": [],
      "name": "owner",
      "outputs": [
        {
          "name": "",
          "type": "address"
        }
      ],
      "payable": false,
      "stateMutability": "view",
      "type": "function"
    },
    {
      "constant": true,
      "inputs": [
        {
          "name": "currencyPair",
          "type": "string"
        },
        {
          "name": "positionType",
          "type": "string"
        },
        {
          "name": "leverage",
          "type": "uint8"
        }
      ],
      "name": "validateAllParameters",
      "outputs": [],
      "payable": false,
      "stateMutability": "view",
      "type": "function"
    },
    {
      "constant": true,
      "inputs": [],
      "name": "oracleAddress",
      "outputs": [
        {
          "name": "",
          "type": "address"
        }
      ],
      "payable": false,
      "stateMutability": "view",
      "type": "function"
    },
    {
      "constant": true,
      "inputs": [
        {
          "name": "",
          "type": "uint256"
        }
      ],
      "name": "POSITION_TYPES",
      "outputs": [
        {
          "name": "",
          "type": "string"
        }
      ],
      "payable": false,
      "stateMutability": "view",
      "type": "function"
    },
    {
      "constant": true,
      "inputs": [
        {
          "name": "",
          "type": "uint256"
        }
      ],
      "name": "LEVERAGES",
      "outputs": [
        {
          "name": "",
          "type": "uint8"
        }
      ],
      "payable": false,
      "stateMutability": "view",
      "type": "function"
    },
    {
      "constant": true,
      "inputs": [
        {
          "name": "leverage",
          "type": "uint8"
        }
      ],
      "name": "validateLeverage",
      "outputs": [],
      "payable": false,
      "stateMutability": "view",
      "type": "function"
    },
    {
      "constant": true,
      "inputs": [
        {
          "name": "positionType",
          "type": "string"
        }
      ],
      "name": "validatePositionType",
      "outputs": [],
      "payable": false,
      "stateMutability": "view",
      "type": "function"
    },
    {
      "constant": false,
      "inputs": [
        {
          "name": "newOwner",
          "type": "address"
        }
      ],
      "name": "transferOwnership",
      "outputs": [],
      "payable": false,
      "stateMutability": "nonpayable",
      "type": "function"
    },
    {
      "constant": true,
      "inputs": [
        {
          "name": "currencyPair",
          "type": "string"
        }
      ],
      "name": "validateCurrencyPair",
      "outputs": [],
      "payable": false,
      "stateMutability": "view",
      "type": "function"
    },
    {
      "anonymous": false,
      "inputs": [
        {
          "indexed": false,
          "name": "message",
          "type": "string"
        }
      ],
      "name": "DebugEvent",
      "type": "event"
    },
    {
      "anonymous": false,
      "inputs": [
        {
          "indexed": true,
          "name": "previousOwner",
          "type": "address"
        },
        {
          "indexed": true,
          "name": "newOwner",
          "type": "address"
        }
      ],
      "name": "OwnershipTransferred",
      "type": "event"
    },
    {
      "constant": false,
      "inputs": [
        {
          "name": "_oracleAddress",
          "type": "address"
        }
      ],
      "name": "linkOracle",
      "outputs": [],
      "payable": false,
      "stateMutability": "nonpayable",
      "type": "function"
    },
    {
      "constant": false,
      "inputs": [
        {
          "name": "parameterHash",
          "type": "bytes32"
        },
        {
          "name": "currencyPair",
          "type": "string"
        },
        {
          "name": "duration",
          "type": "uint256"
        },
        {
          "name": "leverage",
          "type": "uint8"
        },
        {
          "name": "ownerSignatures",
          "type": "bytes32[]"
        },
        {
          "name": "paymentAddresses",
          "type": "address[]"
        },
        {
          "name": "balances",
          "type": "uint256[]"
        },
        {
          "name": "isLongs",
          "type": "bool[]"
        }
      ],
      "name": "openLongShort",
      "outputs": [],
      "payable": true,
      "stateMutability": "payable",
      "type": "function"
    },
    {
      "constant": true,
      "inputs": [],
      "name": "getActiveClosingDates",
      "outputs": [
        {
          "name": "",
          "type": "uint256[]"
        }
      ],
      "payable": false,
      "stateMutability": "view",
      "type": "function"
    },
    {
      "constant": true,
      "inputs": [
        {
          "name": "closingDate",
          "type": "uint256"
        }
      ],
      "name": "getLongShortHashes",
      "outputs": [
        {
          "name": "",
          "type": "bytes32[]"
        }
      ],
      "payable": false,
      "stateMutability": "view",
      "type": "function"
    },
    {
      "constant": true,
      "inputs": [
        {
          "name": "longShortHash",
          "type": "bytes32"
        }
      ],
      "name": "getLongShort",
      "outputs": [
        {
          "name": "",
          "type": "string"
        },
        {
          "name": "",
          "type": "uint256"
        },
        {
          "name": "",
          "type": "uint8"
        }
      ],
      "payable": false,
      "stateMutability": "view",
      "type": "function"
    },
    {
      "constant": true,
      "inputs": [
        {
          "name": "isLong",
          "type": "bool"
        },
        {
          "name": "balance",
          "type": "uint256"
        },
        {
          "name": "leverage",
          "type": "uint8"
        },
        {
          "name": "startingPrice",
          "type": "uint256"
        },
        {
          "name": "closingPrice",
          "type": "uint256"
        }
      ],
      "name": "calculateReward",
      "outputs": [
        {
          "name": "",
          "type": "uint256"
        }
      ],
      "payable": false,
      "stateMutability": "pure",
      "type": "function"
    },
    {
      "constant": true,
      "inputs": [],
      "name": "getRewardsLength",
      "outputs": [
        {
          "name": "",
          "type": "uint256"
        }
      ],
      "payable": false,
      "stateMutability": "view",
      "type": "function"
    },
    {
      "constant": false,
      "inputs": [
        {
          "name": "longShortHash",
          "type": "bytes32"
        }
      ],
      "name": "exercise",
      "outputs": [],
      "payable": false,
      "stateMutability": "nonpayable",
      "type": "function"
    },
    {
      "constant": false,
      "inputs": [],
      "name": "payRewards",
      "outputs": [],
      "payable": false,
      "stateMutability": "nonpayable",
      "type": "function"
    }
  ],
  "bytecode": "0x606060405260408051908101604052806040805190810160405280600481526020017f4c4f4e470000000000000000000000000000000000000000000000000000000081525081526020016040805190810160405280600581526020017f53484f52540000000000000000000000000000000000000000000000000000008152508152506001906002620000959291906200019e565b5060408051908101604052806040805190810160405280600781526020017f4554482d5553440000000000000000000000000000000000000000000000000081525081526020016040805190810160405280600781526020017f4254432d555344000000000000000000000000000000000000000000000000008152508152506002906002620001279291906200019e565b506040805190810160405280600260ff168152602001600560ff1681525060039060026200015792919062000205565b50336000806101000a81548173ffffffffffffffffffffffffffffffffffffffff021916908373ffffffffffffffffffffffffffffffffffffffff16021790555062000412565b828054828255906000526020600020908101928215620001f2579160200282015b82811115620001f1578251829080519060200190620001e0929190620002b3565b5091602001919060010190620001bf565b5b5090506200020191906200033a565b5090565b82805482825590600052602060002090601f01602090048101928215620002a05791602002820160005b838211156200026f57835183826101000a81548160ff021916908360ff16021790555092602001926001016020816000010492830192600103026200022f565b80156200029e5782816101000a81549060ff02191690556001016020816000010492830192600103026200026f565b505b509050620002af91906200036b565b5090565b828054600181600116156101000203166002900490600052602060002090601f016020900481019282601f10620002f657805160ff191683800117855562000327565b8280016001018555821562000327579182015b828111156200032657825182559160200191906001019062000309565b5b5090506200033691906200039e565b5090565b6200036891905b808211156200036457600081816200035a9190620003c6565b5060010162000341565b5090565b90565b6200039b91905b808211156200039757600081816101000a81549060ff02191690555060010162000372565b5090565b90565b620003c391905b80821115620003bf576000816000905550600101620003a5565b5090565b90565b50805460018160011615610100020316600290046000825580601f10620003ee57506200040f565b601f0160209004906000526020600020908101906200040e91906200039e565b5b50565b61280480620004226000396000f300606060405260043610610133576000357c0100000000000000000000000000000000000000000000000000000000900463ffffffff16806309d2ee7b146101385780630ff7d25c146101d257806318ee0aa3146103465780631c6d11381461037d5780632f50fbfa146103e75780636b7ef2ee146104445780637288e9611461047d5780637a03aa3f146104925780637dc0d1d01461052e5780638da5cb5b14610583578063a22d3dd2146105d8578063a3cfb75414610684578063a89ae4ba146106e4578063ae2ed20f14610739578063c6daf4eb146107d5578063c83e2d4d146107fc578063cdc06c9114610874578063cf90f95014610928578063d7da1dee14610965578063d806476d1461098e578063e7a026f1146109b4578063f2fde38b14610a11578063fa748eac14610a4a575b600080fd5b341561014357600080fd5b6101d060048080359060200190820180359060200190808060200260200160405190810160405280939291908181526020018383602002808284378201915050505050509190803590602001908201803590602001908080602002602001604051908101604052809392919081815260200183836020028082843782019150505050505091905050610aa7565b005b61034460048080356000191690602001909190803590602001908201803590602001908080601f0160208091040260200160405190810160405280939291908181526020018383808284378201915050505050509190803590602001909190803560ff1690602001909190803590602001908201803590602001908080602002602001604051908101604052809392919081815260200183836020028082843782019150505050505091908035906020019082018035906020019080806020026020016040519081016040528093929190818152602001838360200280828437820191505050505050919080359060200190820180359060200190808060200260200160405190810160405280939291908181526020018383602002808284378201915050505050509190803590602001908201803590602001908080602002602001604051908101604052809392919081815260200183836020028082843782019150505050505091905050610b62565b005b341561035157600080fd5b6103676004808035906020019091905050610f68565b6040518082815260200191505060405180910390f35b341561038857600080fd5b610390610f8c565b6040518080602001828103825283818151815260200191508051906020019060200280838360005b838110156103d35780820151818401526020810190506103b8565b505050509050019250505060405180910390f35b34156103f257600080fd5b610442600480803590602001908201803590602001908080601f01602080910402602001604051908101604052809392919081815260200183838082843782019150505050505091905050610fea565b005b341561044f57600080fd5b61047b600480803573ffffffffffffffffffffffffffffffffffffffff16906020019091905050611089565b005b341561048857600080fd5b6104906111c9565b005b341561049d57600080fd5b6104b36004808035906020019091905050611335565b6040518080602001828103825283818151815260200191508051906020019080838360005b838110156104f35780820151818401526020810190506104d8565b50505050905090810190601f1680156105205780820380516001836020036101000a031916815260200191505b509250505060405180910390f35b341561053957600080fd5b6105416113f1565b604051808273ffffffffffffffffffffffffffffffffffffffff1673ffffffffffffffffffffffffffffffffffffffff16815260200191505060405180910390f35b341561058e57600080fd5b610596611417565b604051808273ffffffffffffffffffffffffffffffffffffffff1673ffffffffffffffffffffffffffffffffffffffff16815260200191505060405180910390f35b34156105e357600080fd5b610682600480803590602001908201803590602001908080601f0160208091040260200160405190810160405280939291908181526020018383808284378201915050505050509190803590602001908201803590602001908080601f0160208091040260200160405190810160405280939291908181526020018383808284378201915050505050509190803560ff1690602001909190505061143c565b005b341561068f57600080fd5b6106ce6004808035151590602001909190803590602001909190803560ff1690602001909190803590602001909190803590602001909190505061145c565b6040518082815260200191505060405180910390f35b34156106ef57600080fd5b6106f76115ae565b604051808273ffffffffffffffffffffffffffffffffffffffff1673ffffffffffffffffffffffffffffffffffffffff16815260200191505060405180910390f35b341561074457600080fd5b61075a60048080359060200190919050506115d4565b6040518080602001828103825283818151815260200191508051906020019080838360005b8381101561079a57808201518184015260208101905061077f565b50505050905090810190601f1680156107c75780820380516001836020036101000a031916815260200191505b509250505060405180910390f35b34156107e057600080fd5b6107fa600480803560001916906020019091905050611690565b005b341561080757600080fd5b61081d6004808035906020019091905050611c38565b6040518080602001828103825283818151815260200191508051906020019060200280838360005b83811015610860578082015181840152602081019050610845565b505050509050019250505060405180910390f35b341561087f57600080fd5b610899600480803560001916906020019091905050611d08565b60405180806020018481526020018360ff1660ff168152602001828103825285818151815260200191508051906020019080838360005b838110156108eb5780820151818401526020810190506108d0565b50505050905090810190601f1680156109185780820380516001836020036101000a031916815260200191505b5094505050505060405180910390f35b341561093357600080fd5b6109496004808035906020019091905050611e80565b604051808260ff1660ff16815260200191505060405180910390f35b341561097057600080fd5b610978611eb3565b6040518082815260200191505060405180910390f35b341561099957600080fd5b6109b2600480803560ff16906020019091905050611f1b565b005b34156109bf57600080fd5b610a0f600480803590602001908201803590602001908080601f01602080910402602001604051908101604052809392919081815260200183838082843782019150505050505091905050611f9d565b005b3415610a1c57600080fd5b610a48600480803573ffffffffffffffffffffffffffffffffffffffff169060200190919050506120a4565b005b3415610a5557600080fd5b610aa5600480803590602001908201803590602001908080601f016020809104026020016040519081016040528093929190818152602001838380828437820191505050505050919050506121f9565b005b60008060008090505b84518160ff161015610b4d57848160ff16815181101515610acd57fe5b9060200190602002015115610b1057610b09848260ff16815181101515610af057fe5b906020019060200201518361230090919063ffffffff16565b9150610b40565b610b3d848260ff16815181101515610b2457fe5b906020019060200201518461230090919063ffffffff16565b92505b8080600101915050610ab0565b8183141515610b5b57600080fd5b5050505050565b6000806000806000809054906101000a900473ffffffffffffffffffffffffffffffffffffffff1673ffffffffffffffffffffffffffffffffffffffff163373ffffffffffffffffffffffffffffffffffffffff16141515610bc357600080fd5b86518851141515610bd357600080fd5b85518751141515610be357600080fd5b84518651141515610bf357600080fd5b610bfd8587610aa7565b610c068b6121f9565b610c0f89611f1b565b6103849350308c42604051808473ffffffffffffffffffffffffffffffffffffffff1673ffffffffffffffffffffffffffffffffffffffff166c010000000000000000000000000281526014018360001916600019168152602001828152602001935050505060405180910390209250610c928a4261230090919063ffffffff16565b9150600090505b84518160ff161015610e1e576007600084600019166000191681526020019081526020016000208054806001018281610cd29190612466565b91600052602060002090600402016000608060405190810160405280898660ff16815181101515610cff57fe5b90602001906020020151151581526020018c8660ff16815181101515610d2157fe5b906020019060200201516000191681526020018b8660ff16815181101515610d4557fe5b9060200190602002015173ffffffffffffffffffffffffffffffffffffffff1681526020018a8660ff16815181101515610d7b57fe5b90602001906020020151815250909190915060008201518160000160006101000a81548160ff0219169083151502179055506020820151816001019060001916905560408201518160020160006101000a81548173ffffffffffffffffffffffffffffffffffffffff021916908373ffffffffffffffffffffffffffffffffffffffff160217905550606082015181600301555050508080600101915050610c99565b60048054806001018281610e329190612498565b916000526020600020900160008490919091505550600560008381526020019081526020016000208054806001018281610e6c91906124c4565b9160005260206000209001600085909190915090600019169055506080604051908101604052808c81526020018581526020018381526020018a60ff168152506006600085600019166000191681526020019081526020016000206000820151816000019080519060200190610ee39291906124f0565b50602082015181600101556040820151816002015560608201518160030160006101000a81548160ff021916908360ff160217905550905050610f5a6040805190810160405280601881526020017f4e6577204c6f6e6753686f7274206163746976617465642e0000000000000000815250610fea565b505050505050505050505050565b600481815481101515610f7757fe5b90600052602060002090016000915090505481565b610f94612570565b6004805480602002602001604051908101604052809291908181526020018280548015610fe057602002820191906000526020600020905b815481526020019060010190808311610fcc575b5050505050905090565b7f56f074d292557f2e3c567d982816e0fb5b72100ff196892f8fbd23b8a9073679816040518080602001828103825283818151815260200191508051906020019080838360005b8381101561104c578082015181840152602081019050611031565b50505050905090810190601f1680156110795780820380516001836020036101000a031916815260200191505b509250505060405180910390a150565b6000809054906101000a900473ffffffffffffffffffffffffffffffffffffffff1673ffffffffffffffffffffffffffffffffffffffff163373ffffffffffffffffffffffffffffffffffffffff161415156110e457600080fd5b80600a60006101000a81548173ffffffffffffffffffffffffffffffffffffffff021916908373ffffffffffffffffffffffffffffffffffffffff160217905550600a60009054906101000a900473ffffffffffffffffffffffffffffffffffffffff16600960006101000a81548173ffffffffffffffffffffffffffffffffffffffff021916908373ffffffffffffffffffffffffffffffffffffffff1602179055506111c66040805190810160405280600d81526020017f4f7261636c65206c696e6b656400000000000000000000000000000000000000815250610fea565b50565b60008090505b6008805490508160ff1610156113225760088160ff168154811015156111f157fe5b906000526020600020906002020160000160009054906101000a900473ffffffffffffffffffffffffffffffffffffffff1673ffffffffffffffffffffffffffffffffffffffff166108fc60088360ff1681548110151561124e57fe5b9060005260206000209060020201600101549081150290604051600060405180830381858888f19350505050151561128557600080fd5b60088160ff1681548110151561129757fe5b9060005260206000209060020201600080820160006101000a81549073ffffffffffffffffffffffffffffffffffffffff0219169055600182016000905550506113156040805190810160405280600c81526020017f5265776172642070616964210000000000000000000000000000000000000000815250610fea565b80806001019150506111cf565b60006008816113319190612584565b5050565b60028181548110151561134457fe5b90600052602060002090016000915090508054600181600116156101000203166002900480601f0160208091040260200160405190810160405280929190818152602001828054600181600116156101000203166002900480156113e95780601f106113be576101008083540402835291602001916113e9565b820191906000526020600020905b8154815290600101906020018083116113cc57829003601f168201915b505050505081565b600960009054906101000a900473ffffffffffffffffffffffffffffffffffffffff1681565b6000809054906101000a900473ffffffffffffffffffffffffffffffffffffffff1681565b611445836121f9565b61144e82611f9d565b61145781611f1b565b505050565b6000806000806000858711156115075761147f868861231e90919063ffffffff16565b92506114a98860ff1661149b898661233790919063ffffffff16565b61235290919063ffffffff16565b90506114be818a61235290919063ffffffff16565b9150888211156114cc578891505b89156114ec576114e5828a61231e90919063ffffffff16565b9350611502565b6114ff828a61230090919063ffffffff16565b93505b61159e565b61151a878761231e90919063ffffffff16565b92506115448860ff16611536898661233790919063ffffffff16565b61235290919063ffffffff16565b9050611559818a61235290919063ffffffff16565b915088821115611567578891505b891561158757611580828a61230090919063ffffffff16565b935061159d565b61159a828a61231e90919063ffffffff16565b93505b5b8394505050505095945050505050565b600a60009054906101000a900473ffffffffffffffffffffffffffffffffffffffff1681565b6001818154811015156115e357fe5b90600052602060002090016000915090508054600181600116156101000203166002900480601f0160208091040260200160405190810160405280929190818152602001828054600181600116156101000203166002900480156116885780601f1061165d57610100808354040283529160200191611688565b820191906000526020600020905b81548152906001019060200180831161166b57829003601f168201915b505050505081565b6116986125b6565b60006116a26125e8565b600060066000866000191660001916815260200190815260200160002060806040519081016040529081600082018054600181600116156101000203166002900480601f0160208091040260200160405190810160405280929190818152602001828054600181600116156101000203166002900480156117645780601f1061173957610100808354040283529160200191611764565b820191906000526020600020905b81548152906001019060200180831161174757829003601f168201915b5050505050815260200160018201548152602001600282015481526020016003820160009054906101000a900460ff1660ff1660ff16815250509350428460400151111515156117b357600080fd5b611818606060405190810160405280602681526020017f476976656e20636c6f73696e6744617465206973206f7665722069742773206581526020017f78706972792e0000000000000000000000000000000000000000000000000000815250610fea565b6007600086600019166000191681526020019081526020016000208054905092506118776040805190810160405280601681526020017f43616c63756c6174696e6720726577617264732e2e2e00000000000000000000815250610fea565b600760008660001916600019168152602001908152602001600020805480602002602001604051908101604052809291908181526020016000905b828210156119725783829060005260206000209060040201608060405190810160405290816000820160009054906101000a900460ff161515151581526020016001820154600019166000191681526020016002820160009054906101000a900473ffffffffffffffffffffffffffffffffffffffff1673ffffffffffffffffffffffffffffffffffffffff1673ffffffffffffffffffffffffffffffffffffffff168152602001600382015481525050815260200190600101906118b2565b505050509150600090505b828160ff161015611bdf576008805480600101828161199c91906125fc565b916000526020600020906002020160006040805190810160405280868660ff168151811015156119c857fe5b906020019060200201516040015173ffffffffffffffffffffffffffffffffffffffff168152602001611aea878760ff16815181101515611a0557fe5b9060200190602002015160000151888860ff16815181101515611a2457fe5b90602001906020020151606001518b606001518c60200151600960009054906101000a900473ffffffffffffffffffffffffffffffffffffffff1673ffffffffffffffffffffffffffffffffffffffff1663a3e6ba946000604051602001526040518163ffffffff167c0100000000000000000000000000000000000000000000000000000000028152600401602060405180830381600087803b1515611aca57600080fd5b6102c65a03f11515611adb57600080fd5b5050506040518051905061145c565b815250909190915060008201518160000160006101000a81548173ffffffffffffffffffffffffffffffffffffffff021916908373ffffffffffffffffffffffffffffffffffffffff160217905550602082015181600101555050506007600086600019166000191681526020019081526020016000206000611b6d919061262e565b611bd2606060405190810160405280602581526020017f4e6577207265776172642063616c63756c617465642c20706f736974696f6e2081526020017f656e646564000000000000000000000000000000000000000000000000000000815250610fea565b808060010191505061197d565b60066000866000191660001916815260200190815260200160002060008082016000611c0b9190612652565b600182016000905560028201600090556003820160006101000a81549060ff021916905550505050505050565b611c4061269a565b6000809054906101000a900473ffffffffffffffffffffffffffffffffffffffff1673ffffffffffffffffffffffffffffffffffffffff163373ffffffffffffffffffffffffffffffffffffffff16141515611c9b57600080fd5b60056000838152602001908152602001600020805480602002602001604051908101604052809291908181526020018280548015611cfc57602002820191906000526020600020905b81546000191681526020019060010190808311611ce4575b50505050509050919050565b611d106126ae565b6000806000809054906101000a900473ffffffffffffffffffffffffffffffffffffffff1673ffffffffffffffffffffffffffffffffffffffff163373ffffffffffffffffffffffffffffffffffffffff16141515611d6e57600080fd5b6006600085600019166000191681526020019081526020016000206000016006600086600019166000191681526020019081526020016000206001015460066000876000191660001916815260200190815260200160002060030160009054906101000a900460ff16828054600181600116156101000203166002900480601f016020809104026020016040519081016040528092919081815260200182805460018160011615610100020316600290048015611e6c5780601f10611e4157610100808354040283529160200191611e6c565b820191906000526020600020905b815481529060010190602001808311611e4f57829003601f168201915b505050505092509250925092509193909250565b600381815481101515611e8f57fe5b9060005260206000209060209182820401919006915054906101000a900460ff1681565b60008060009054906101000a900473ffffffffffffffffffffffffffffffffffffffff1673ffffffffffffffffffffffffffffffffffffffff163373ffffffffffffffffffffffffffffffffffffffff16141515611f1057600080fd5b600880549050905090565b60008060009150600090505b6003805490508160ff161015611f8c5760038160ff16815481101515611f4957fe5b90600052602060002090602091828204019190069054906101000a900460ff1660ff168360ff161415611f7f5760019150611f8c565b8080600101915050611f27565b811515611f9857600080fd5b505050565b60008060009150600090505b6001805490508160ff161015612093576120788360018360ff16815481101515611fcf57fe5b90600052602060002090018054600181600116156101000203166002900480601f01602080910402602001604051908101604052809291908181526020018280546001816001161561010002031660029004801561206e5780601f106120435761010080835404028352916020019161206e565b820191906000526020600020905b81548152906001019060200180831161205157829003601f168201915b505050505061238d565b156120865760019150612093565b8080600101915050611fa9565b81151561209f57600080fd5b505050565b6000809054906101000a900473ffffffffffffffffffffffffffffffffffffffff1673ffffffffffffffffffffffffffffffffffffffff163373ffffffffffffffffffffffffffffffffffffffff161415156120ff57600080fd5b600073ffffffffffffffffffffffffffffffffffffffff168173ffffffffffffffffffffffffffffffffffffffff161415151561213b57600080fd5b8073ffffffffffffffffffffffffffffffffffffffff166000809054906101000a900473ffffffffffffffffffffffffffffffffffffffff1673ffffffffffffffffffffffffffffffffffffffff167f8be0079c531659141344cd1fd0a4f28419497f9722a3daafe3b4186f6b6457e060405160405180910390a3806000806101000a81548173ffffffffffffffffffffffffffffffffffffffff021916908373ffffffffffffffffffffffffffffffffffffffff16021790555050565b60008060009150600090505b6002805490508160ff1610156122ef576122d48360028360ff1681548110151561222b57fe5b90600052602060002090018054600181600116156101000203166002900480601f0160208091040260200160405190810160405280929190818152602001828054600181600116156101000203166002900480156122ca5780601f1061229f576101008083540402835291602001916122ca565b820191906000526020600020905b8154815290600101906020018083116122ad57829003601f168201915b505050505061238d565b156122e257600191506122ef565b8080600101915050612205565b8115156122fb57600080fd5b505050565b600080828401905083811015151561231457fe5b8091505092915050565b600082821115151561232c57fe5b818303905092915050565b600080828481151561234557fe5b0490508091505092915050565b60008060008414156123675760009150612386565b828402905082848281151561237857fe5b0414151561238257fe5b8091505b5092915050565b6000816040518082805190602001908083835b6020831015156123c557805182526020820191506020810190506020830392506123a0565b6001836020036101000a038019825116818451168082178552505050505050905001915050604051809103902060001916836040518082805190602001908083835b60208310151561242c5780518252602082019150602081019050602083039250612407565b6001836020036101000a03801982511681845116808217855250505050505090500191505060405180910390206000191614905092915050565b8154818355818115116124935760040281600402836000526020600020918201910161249291906126c2565b5b505050565b8154818355818115116124bf578183600052602060002091820191016124be919061272c565b5b505050565b8154818355818115116124eb578183600052602060002091820191016124ea9190612751565b5b505050565b828054600181600116156101000203166002900490600052602060002090601f016020900481019282601f1061253157805160ff191683800117855561255f565b8280016001018555821561255f579182015b8281111561255e578251825591602001919060010190612543565b5b50905061256c919061272c565b5090565b602060405190810160405280600081525090565b8154818355818115116125b1576002028160020283600052602060002091820191016125b09190612776565b5b505050565b6080604051908101604052806125ca6127c4565b81526020016000815260200160008152602001600060ff1681525090565b602060405190810160405280600081525090565b815481835581811511612629576002028160020283600052602060002091820191016126289190612776565b5b505050565b508054600082556004029060005260206000209081019061264f91906126c2565b50565b50805460018160011615610100020316600290046000825580601f106126785750612697565b601f016020900490600052602060002090810190612696919061272c565b5b50565b602060405190810160405280600081525090565b602060405190810160405280600081525090565b61272991905b8082111561272557600080820160006101000a81549060ff021916905560018201600090556002820160006101000a81549073ffffffffffffffffffffffffffffffffffffffff02191690556003820160009055506004016126c8565b5090565b90565b61274e91905b8082111561274a576000816000905550600101612732565b5090565b90565b61277391905b8082111561276f576000816000905550600101612757565b5090565b90565b6127c191905b808211156127bd57600080820160006101000a81549073ffffffffffffffffffffffffffffffffffffffff021916905560018201600090555060020161277c565b5090565b90565b6020604051908101604052806000815250905600a165627a7a723058208d089bf44c9454b3afb8400bf9b426e0bcaa91134296cd6b5fd156ea28d16ba80029",
  "source": "pragma solidity ^0.4.18;\nimport \"./Ownable.sol\";\nimport \"./Debuggable.sol\";\nimport \"./Validatable.sol\";\nimport \"./SafeMath.sol\";\nimport \"./Oracle.sol\";\n\n/**\n@dev Controller for Long/Short options\non the Ethereum blockchain.\n\n@author Convoluted Labs\n*/\ncontract LongShortController is Ownable, Debuggable, Validatable {\n\n    // Use Zeppelin's SafeMath library for calculations\n    using SafeMath for uint256;\n\n    /**\n    @dev Position struct\n    */\n    struct Position {\n        bool isLong;\n        bytes32 ownerSignature;\n        address paymentAddress;\n        uint256 balance;\n    }\n\n    /**\n    @dev Activated LongShort struct\n    */\n    struct LongShort {\n        string currencyPair;\n        uint256 startingPrice;\n        uint closingDate;\n        uint8 leverage;\n    }\n\n    /**\n    @dev Reward struct for calculated rewards\n    */\n    struct Reward {\n        address paymentAddress;\n        uint256 balance;\n    }\n\n    /// List of active closing dates\n    uint[] public activeClosingDates;\n    mapping(uint => bytes32[]) private longShortHashes;\n    mapping(bytes32 => LongShort) private longShorts;\n    mapping(bytes32 => Position[]) private positions;\n\n    // Queued rewards\n    Reward[] private rewards;\n\n    Oracle public oracle;\n    address public oracleAddress;\n\n    /**\n    @dev Links Vanilla's oracle to the contract\n    */\n    function linkOracle(address _oracleAddress) public onlyOwner {\n        oracleAddress = _oracleAddress;\n        oracle = Oracle(oracleAddress);\n        debug(\"Oracle linked\");\n    }\n\n    /**\n    @dev LongShort activator function. Called by OrdersManager.\n    */\n    function openLongShort(bytes32 parameterHash, string currencyPair, uint duration, uint8 leverage, bytes32[] ownerSignatures, address[] paymentAddresses, uint256[] balances, bool[] isLongs) public payable onlyOwner {\n        /// Input validation\n        require(ownerSignatures.length == paymentAddresses.length);\n        require(paymentAddresses.length == balances.length);\n        require(balances.length == isLongs.length);\n        requireZeroSum(isLongs, balances);\n        validateCurrencyPair(currencyPair);\n        validateLeverage(leverage);\n\n        uint256 startingPrice = 900; // CHange this to an oracle-fetched price\n        bytes32 longShortHash = keccak256(this, parameterHash, block.timestamp);\n        uint closingDate = block.timestamp.add(duration);\n\n        for (uint8 i = 0; i < isLongs.length; i++) {\n            positions[longShortHash].push(Position(isLongs[i], ownerSignatures[i], paymentAddresses[i], balances[i]));\n        }\n\n        activeClosingDates.push(closingDate);\n        longShortHashes[closingDate].push(longShortHash);\n        longShorts[longShortHash] = LongShort(currencyPair, startingPrice, closingDate, leverage);\n\n        debug(\"New LongShort activated.\");\n    }\n\n    function getActiveClosingDates() public view returns (uint[]) {\n        return activeClosingDates;\n    }\n\n    function getLongShortHashes(uint closingDate) public view onlyOwner returns (bytes32[]) {\n        return longShortHashes[closingDate];\n    }\n\n    function getLongShort(bytes32 longShortHash) public view onlyOwner returns (string, uint256, uint8) {\n        return (longShorts[longShortHash].currencyPair, longShorts[longShortHash].startingPrice, longShorts[longShortHash].leverage);\n    }\n\n    function calculateReward(bool isLong, uint256 balance, uint8 leverage, uint256 startingPrice, uint256 closingPrice) public pure returns (uint256) {\n        uint256 reward;\n        uint256 priceDiff;\n        uint256 balanceDiff;\n        uint256 diffPercentage;\n\n        if (startingPrice > closingPrice) {\n\n            priceDiff = startingPrice.sub(closingPrice);\n            diffPercentage = priceDiff.div(startingPrice).mul(leverage);\n            balanceDiff = balance.mul(diffPercentage);\n            \n            if (balanceDiff > balance) {\n                balanceDiff = balance;\n            }\n\n            if (isLong) {\n                reward = balance.sub(balanceDiff);\n            } else {\n                reward = balance.add(balanceDiff);\n            }\n\n        } else {\n\n            priceDiff = closingPrice.sub(startingPrice);\n            diffPercentage = priceDiff.div(startingPrice).mul(leverage);\n            balanceDiff = balance.mul(diffPercentage);\n            \n            if (balanceDiff > balance) {\n                balanceDiff = balance;\n            }\n\n            if (isLong) {\n                reward = balance.add(balanceDiff);\n            } else {\n                reward = balance.sub(balanceDiff);\n            }\n\n        }\n\n        return reward;\n    }\n\n    function getRewardsLength() public view onlyOwner returns (uint) {\n        return rewards.length;\n    }\n\n    function exercise(bytes32 longShortHash) public {\n        LongShort memory longShort = longShorts[longShortHash];\n\n        require(longShort.closingDate <= block.timestamp);\n        debug(\"Given closingDate is over it's expiry.\");\n\n        uint positionsLength = positions[longShortHash].length;\n\n        debug(\"Calculating rewards...\");\n\n        Position[] memory positionsForHash = positions[longShortHash];\n\n        for (uint8 j = 0; j < positionsLength; j++) {\n            rewards.push(\n                Reward(\n                    positionsForHash[j].paymentAddress,\n                    calculateReward(\n                        positionsForHash[j].isLong,\n                        positionsForHash[j].balance,\n                        longShort.leverage,\n                        longShort.startingPrice,\n                        oracle.latestPrice()\n                    )\n                )\n            );\n            delete positions[longShortHash];\n            debug(\"New reward calculated, position ended\");\n        }\n\n        delete longShorts[longShortHash];\n    }\n\n    function payRewards() public {\n        for (uint8 paymentNum = 0; paymentNum < rewards.length; paymentNum++) {\n            rewards[paymentNum].paymentAddress.transfer(rewards[paymentNum].balance);\n            delete rewards[paymentNum];\n            debug(\"Reward paid!\");\n        }\n        rewards.length = 0;\n    }\n}\n",
  "sourcePath": "/home/jani/dev/blockchain/vanilla-platform/contracts/LongShortController.sol",
  "compiler": {
    "name": "solc",
    "version": "0.4.19+commit.c4cbbb05.Emscripten.clang"
  },
  "schemaVersion": "1.0.1",
  "updatedAt": "2018-02-23T09:05:43.075Z"
}