{
  "contractName": "LongShortController",
  "abi": [
    {
      "constant": false,
      "inputs": [
        {
          "name": "message",
          "type": "string"
        }
      ],
      "name": "debug",
      "outputs": [],
      "payable": false,
      "stateMutability": "nonpayable",
      "type": "function"
    },
    {
      "constant": true,
      "inputs": [],
      "name": "owner",
      "outputs": [
        {
          "name": "",
          "type": "address"
        }
      ],
      "payable": false,
      "stateMutability": "view",
      "type": "function"
    },
    {
      "constant": false,
      "inputs": [
        {
          "name": "newOwner",
          "type": "address"
        }
      ],
      "name": "transferOwnership",
      "outputs": [],
      "payable": false,
      "stateMutability": "nonpayable",
      "type": "function"
    },
    {
      "anonymous": false,
      "inputs": [
        {
          "indexed": false,
          "name": "message",
          "type": "string"
        }
      ],
      "name": "DebugEvent",
      "type": "event"
    },
    {
      "anonymous": false,
      "inputs": [
        {
          "indexed": true,
          "name": "previousOwner",
          "type": "address"
        },
        {
          "indexed": true,
          "name": "newOwner",
          "type": "address"
        }
      ],
      "name": "OwnershipTransferred",
      "type": "event"
    },
    {
      "constant": false,
      "inputs": [
        {
          "name": "parameterHash",
          "type": "bytes32"
        },
        {
          "name": "duration",
          "type": "uint256"
        },
        {
          "name": "leverage",
          "type": "uint256"
        },
        {
          "name": "ownerSignatures",
          "type": "bytes32[]"
        },
        {
          "name": "paymentAddresses",
          "type": "address[]"
        },
        {
          "name": "balances",
          "type": "uint256[]"
        },
        {
          "name": "isLongs",
          "type": "bool[]"
        }
      ],
      "name": "openLongShort",
      "outputs": [],
      "payable": true,
      "stateMutability": "payable",
      "type": "function"
    },
    {
      "constant": true,
      "inputs": [],
      "name": "getActiveClosingDates",
      "outputs": [
        {
          "name": "",
          "type": "uint256[]"
        }
      ],
      "payable": false,
      "stateMutability": "view",
      "type": "function"
    }
  ],
  "bytecode": "0x6060604052336000806101000a81548173ffffffffffffffffffffffffffffffffffffffff021916908373ffffffffffffffffffffffffffffffffffffffff160217905550610b6a806100536000396000f30060606040526004361061006d576000357c0100000000000000000000000000000000000000000000000000000000900463ffffffff1680631c6d1138146100725780632f50fbfa146100dc5780638da5cb5b14610139578063dc7a11081461018e578063f2fde38b146102bc575b600080fd5b341561007d57600080fd5b6100856102f5565b6040518080602001828103825283818151815260200191508051906020019060200280838360005b838110156100c85780820151818401526020810190506100ad565b505050509050019250505060405180910390f35b34156100e757600080fd5b610137600480803590602001908201803590602001908080601f01602080910402602001604051908101604052809392919081815260200183838082843782019150505050505091905050610353565b005b341561014457600080fd5b61014c6103f2565b604051808273ffffffffffffffffffffffffffffffffffffffff1673ffffffffffffffffffffffffffffffffffffffff16815260200191505060405180910390f35b6102ba60048080356000191690602001909190803590602001909190803590602001909190803590602001908201803590602001908080602002602001604051908101604052809392919081815260200183836020028082843782019150505050505091908035906020019082018035906020019080806020026020016040519081016040528093929190818152602001838360200280828437820191505050505050919080359060200190820180359060200190808060200260200160405190810160405280939291908181526020018383602002808284378201915050505050509190803590602001908201803590602001908080602002602001604051908101604052809392919081815260200183836020028082843782019150505050505091905050610417565b005b34156102c757600080fd5b6102f3600480803573ffffffffffffffffffffffffffffffffffffffff169060200190919050506107a6565b005b6102fd6109d4565b600180548060200260200160405190810160405280929190818152602001828054801561034957602002820191906000526020600020905b815481526020019060010190808311610335575b5050505050905090565b7f56f074d292557f2e3c567d982816e0fb5b72100ff196892f8fbd23b8a9073679816040518080602001828103825283818151815260200191508051906020019080838360005b838110156103b557808201518184015260208101905061039a565b50505050905090810190601f1680156103e25780820380516001836020036101000a031916815260200191505b509250505060405180910390a150565b6000809054906101000a900473ffffffffffffffffffffffffffffffffffffffff1681565b6000806000806000809054906101000a900473ffffffffffffffffffffffffffffffffffffffff1673ffffffffffffffffffffffffffffffffffffffff163373ffffffffffffffffffffffffffffffffffffffff1614151561047857600080fd5b8651885114151561048857600080fd5b8551875114151561049857600080fd5b845186511415156104a857600080fd5b6104b285876108fb565b6103849350308b42604051808473ffffffffffffffffffffffffffffffffffffffff1673ffffffffffffffffffffffffffffffffffffffff166c0100000000000000000000000002815260140183600019166000191681526020018281526020019350505050604051809103902092508942019150600090505b84518160ff1610156106b157600360008460001916600019168152602001908152602001600020805480600101828161056591906109e8565b91600052602060002090600402016000608060405190810160405280898660ff1681518110151561059257fe5b90602001906020020151151581526020018c8660ff168151811015156105b457fe5b906020019060200201516000191681526020018b8660ff168151811015156105d857fe5b9060200190602002015173ffffffffffffffffffffffffffffffffffffffff1681526020018a8660ff1681518110151561060e57fe5b90602001906020020151815250909190915060008201518160000160006101000a81548160ff0219169083151502179055506020820151816001019060001916905560408201518160020160006101000a81548173ffffffffffffffffffffffffffffffffffffffff021916908373ffffffffffffffffffffffffffffffffffffffff16021790555060608201518160030155505050808060010191505061052c565b600180548060010182816106c59190610a1a565b9160005260206000209001600084909190915055506002600083815260200190815260200160002080548060010182816106ff9190610a46565b916000526020600020906003020160006060604051908101604052808f6000191681526020018881526020018d81525090919091506000820151816000019060001916905560208201518160010155604082015181600201555050506107996040805190810160405280601881526020017f4e6577204c6f6e6753686f7274206163746976617465642e0000000000000000815250610353565b5050505050505050505050565b6000809054906101000a900473ffffffffffffffffffffffffffffffffffffffff1673ffffffffffffffffffffffffffffffffffffffff163373ffffffffffffffffffffffffffffffffffffffff1614151561080157600080fd5b600073ffffffffffffffffffffffffffffffffffffffff168173ffffffffffffffffffffffffffffffffffffffff161415151561083d57600080fd5b8073ffffffffffffffffffffffffffffffffffffffff166000809054906101000a900473ffffffffffffffffffffffffffffffffffffffff1673ffffffffffffffffffffffffffffffffffffffff167f8be0079c531659141344cd1fd0a4f28419497f9722a3daafe3b4186f6b6457e060405160405180910390a3806000806101000a81548173ffffffffffffffffffffffffffffffffffffffff021916908373ffffffffffffffffffffffffffffffffffffffff16021790555050565b60008060008090505b84518160ff1610156109a157848160ff1681518110151561092157fe5b90602001906020020151156109645761095d848260ff1681518110151561094457fe5b90602001906020020151836109b690919063ffffffff16565b9150610994565b610991848260ff1681518110151561097857fe5b90602001906020020151846109b690919063ffffffff16565b92505b8080600101915050610904565b81831415156109af57600080fd5b5050505050565b60008082840190508381101515156109ca57fe5b8091505092915050565b602060405190810160405280600081525090565b815481835581811511610a1557600402816004028360005260206000209182019101610a149190610a78565b5b505050565b815481835581811511610a4157818360005260206000209182019101610a409190610ae2565b5b505050565b815481835581811511610a7357600302816003028360005260206000209182019101610a729190610b07565b5b505050565b610adf91905b80821115610adb57600080820160006101000a81549060ff021916905560018201600090556002820160006101000a81549073ffffffffffffffffffffffffffffffffffffffff0219169055600382016000905550600401610a7e565b5090565b90565b610b0491905b80821115610b00576000816000905550600101610ae8565b5090565b90565b610b3b91905b80821115610b37576000808201600090556001820160009055600282016000905550600301610b0d565b5090565b905600a165627a7a723058207e6a14417a8a77cfdbfbab3ea67b795d5582c3151a2bb8d3ae7003cdc03029fc0029",
  "source": "pragma solidity ^0.4.18;\nimport \"./Ownable.sol\";\nimport \"./Debuggable.sol\";\nimport \"./SafeMath.sol\";\n\n/**\n@dev Controller for Long/Short options\non the Ethereum blockchain.\n\n@author Convoluted Labs\n*/\ncontract LongShortController is Ownable, Debuggable {\n    \n    // Use Zeppelin's SafeMath library for calculations\n    using SafeMath for uint256;\n\n    uint[] private activeClosingDates;\n    mapping(uint => LongShort[]) private longShorts;\n    mapping(bytes32 => Position[]) private positions;\n\n    /**\n    @dev Position struct\n    */\n    struct Position {\n        bool isLong;\n        bytes32 ownerSignature;\n        address paymentAddress;\n        uint256 balance;\n    }\n\n    /**\n    @dev Activated LongShort struct\n    */\n    struct LongShort {\n        bytes32 parameterHash;\n        uint256 startingPrice;\n        uint leverage;\n    }\n\n    /**\n    @dev Helper function to check if both sides of the bet have same balance\n    \n    @param isLongs - list of position types {long: true, short: false}\n    @param balances - list of position amounts in wei\n    */\n    function requireNullSum(bool[] isLongs, uint256[] balances) internal pure {\n        uint256 shortBalance;\n        uint256 longBalance;\n        for (uint8 i = 0; i < isLongs.length; i++) {\n            if (isLongs[i]) {\n                longBalance = longBalance.add(balances[i]);\n            } else {\n                shortBalance = shortBalance.add(balances[i]);\n            }\n        }\n        require(shortBalance==longBalance);\n    }\n\n    /**\n    @dev LongShort activator function. Called by OrdersManager.\n    */\n    function openLongShort(bytes32 parameterHash, uint duration, uint leverage, bytes32[] ownerSignatures, address[] paymentAddresses, uint256[] balances, bool[] isLongs) public payable onlyOwner {\n\n        // Require all input arrays to be the same length\n        // The backend must make sure that the indices point to the same original order\n        require(ownerSignatures.length == paymentAddresses.length);\n        require(paymentAddresses.length == balances.length);\n        require(balances.length == isLongs.length);\n\n        // Require both sides of the LongShort to have same total balance\n        requireNullSum(isLongs, balances);\n\n        uint256 startingPrice = 900; // CHange this to an oracle-fetched price\n        bytes32 longShortHash = keccak256(this, parameterHash, block.timestamp);\n        uint closingDate = block.timestamp + duration;\n\n        for (uint8 i = 0; i < isLongs.length; i++) {\n            positions[longShortHash].push(Position(isLongs[i], ownerSignatures[i], paymentAddresses[i], balances[i]));\n        }\n\n        activeClosingDates.push(closingDate);\n        longShorts[closingDate].push(LongShort(parameterHash, startingPrice, leverage));\n\n        debug(\"New LongShort activated.\");\n\n    }\n\n    function getActiveClosingDates() public view returns (uint[]) {\n        return activeClosingDates;\n    }\n}\n",
  "sourcePath": "/home/jani/dev/blockchain/vanilla-platform/contracts/LongShortController.sol",
  "compiler": {
    "name": "solc",
    "version": "0.4.19+commit.c4cbbb05.Emscripten.clang"
  },
  "schemaVersion": "1.0.1",
  "updatedAt": "2018-02-19T13:27:30.445Z"
}