{
  "contractName": "LongShortController",
  "abi": [
    {
      "constant": true,
      "inputs": [],
      "name": "ebin",
      "outputs": [
        {
          "name": "",
          "type": "string"
        }
      ],
      "payable": false,
      "stateMutability": "view",
      "type": "function"
    },
    {
      "inputs": [],
      "payable": false,
      "stateMutability": "nonpayable",
      "type": "constructor"
    }
  ],
  "bytecode": "0x6060604052341561000f57600080fd5b6040805190810160405280600481526020017f6562696e000000000000000000000000000000000000000000000000000000008152506000908051906020019061005a929190610060565b50610105565b828054600181600116156101000203166002900490600052602060002090601f016020900481019282601f106100a157805160ff19168380011785556100cf565b828001600101855582156100cf579182015b828111156100ce5782518255916020019190600101906100b3565b5b5090506100dc91906100e0565b5090565b61010291905b808211156100fe5760008160009055506001016100e6565b5090565b90565b61019e806101146000396000f300606060405260043610610041576000357c0100000000000000000000000000000000000000000000000000000000900463ffffffff1680638b2f3fc514610046575b600080fd5b341561005157600080fd5b6100596100d4565b6040518080602001828103825283818151815260200191508051906020019080838360005b8381101561009957808201518184015260208101905061007e565b50505050905090810190601f1680156100c65780820380516001836020036101000a031916815260200191505b509250505060405180910390f35b60008054600181600116156101000203166002900480601f01602080910402602001604051908101604052809291908181526020018280546001816001161561010002031660029004801561016a5780601f1061013f5761010080835404028352916020019161016a565b820191906000526020600020905b81548152906001019060200180831161014d57829003601f168201915b5050505050815600a165627a7a72305820e54743063f911307fe635b498d322a94735700a44e33c0fb29e6757c365343230029",
  "source": "pragma solidity ^0.4.18;\n\n/**\n * Controller for a single Long/Short option\n * on the Ethereum blockchain. Spawned by\n * OrdersManager.\n */\ncontract LongShortController {\n    string public ebin;\n    function LongShortController() public {\n        ebin = \"ebin\";\n    }\n    /* uint public parameterSignature;\n    uint private startingDate;\n    uint private expirationDate;\n    uint private startingPrice;\n    uint private leverage;\n\n    struct Order {\n        uint parameterSignature;\n        uint expirationDate;\n        uint leverage;\n        uint closingSignature;\n        address originAddress;\n        address paymentAddress;\n        uint balance;\n    }\n\n    Order[] private shortOrders;\n    Order[] private longOrders;\n\n    function LongShortController(uint paramSig, uint expDate, uint lvrg, Order[] l, Order[] s) public {\n        startingDate = block.timestamp;\n        parameterSignature = paramSig;\n        expirationDate = expDate;\n        leverage = lvrg;\n        longOrders = l;\n        shortOrders = s;\n    } */\n}\n",
  "sourcePath": "/home/jani/dev/blockchain/vanilla-platform/contracts/LongShortController.sol",
  "compiler": {
    "name": "solc",
    "version": "0.4.18+commit.9cf6e910.Emscripten.clang"
  },
  "schemaVersion": "1.0.1",
  "updatedAt": "2018-02-07T14:31:50.629Z"
}