{
  "contractName": "Oracle",
  "abi": [
    {
      "constant": false,
      "inputs": [
        {
          "name": "message",
          "type": "string"
        }
      ],
      "name": "debug",
      "outputs": [],
      "payable": false,
      "stateMutability": "nonpayable",
      "type": "function"
    },
    {
      "constant": true,
      "inputs": [],
      "name": "owner",
      "outputs": [
        {
          "name": "",
          "type": "address"
        }
      ],
      "payable": false,
      "stateMutability": "view",
      "type": "function"
    },
    {
      "constant": true,
      "inputs": [],
      "name": "latestPrice",
      "outputs": [
        {
          "name": "",
          "type": "uint256"
        }
      ],
      "payable": false,
      "stateMutability": "view",
      "type": "function"
    },
    {
      "constant": true,
      "inputs": [
        {
          "name": "",
          "type": "uint256"
        }
      ],
      "name": "timesUpdated",
      "outputs": [
        {
          "name": "",
          "type": "uint256"
        }
      ],
      "payable": false,
      "stateMutability": "view",
      "type": "function"
    },
    {
      "constant": false,
      "inputs": [
        {
          "name": "newOwner",
          "type": "address"
        }
      ],
      "name": "transferOwnership",
      "outputs": [],
      "payable": false,
      "stateMutability": "nonpayable",
      "type": "function"
    },
    {
      "constant": true,
      "inputs": [
        {
          "name": "",
          "type": "uint256"
        }
      ],
      "name": "priceByTime",
      "outputs": [
        {
          "name": "",
          "type": "uint256"
        }
      ],
      "payable": false,
      "stateMutability": "view",
      "type": "function"
    },
    {
      "inputs": [
        {
          "name": "_startingPrice",
          "type": "uint256"
        }
      ],
      "payable": false,
      "stateMutability": "nonpayable",
      "type": "constructor"
    },
    {
      "anonymous": false,
      "inputs": [
        {
          "indexed": false,
          "name": "message",
          "type": "string"
        }
      ],
      "name": "DebugEvent",
      "type": "event"
    },
    {
      "anonymous": false,
      "inputs": [
        {
          "indexed": true,
          "name": "previousOwner",
          "type": "address"
        },
        {
          "indexed": true,
          "name": "newOwner",
          "type": "address"
        }
      ],
      "name": "OwnershipTransferred",
      "type": "event"
    },
    {
      "constant": false,
      "inputs": [
        {
          "name": "_latestPrice",
          "type": "uint256"
        }
      ],
      "name": "setLatestPrice",
      "outputs": [],
      "payable": false,
      "stateMutability": "nonpayable",
      "type": "function"
    }
  ],
  "bytecode": "0x6060604052341561000f57600080fd5b60405160208061070283398101604052808051906020019091905050336000806101000a81548173ffffffffffffffffffffffffffffffffffffffff021916908373ffffffffffffffffffffffffffffffffffffffff1602179055506001805480600101828161007f91906100b9565b916000526020600020900160004290919091505550806002600042815260200190815260200160002081905550806003819055505061010a565b8154818355818115116100e0578183600052602060002091820191016100df91906100e5565b5b505050565b61010791905b808211156101035760008160009055506001016100eb565b5090565b90565b6105e9806101196000396000f300606060405260043610610083576000357c0100000000000000000000000000000000000000000000000000000000900463ffffffff1680632f50fbfa146100885780638da5cb5b146100e5578063a3e6ba941461013a578063dd0f8d2d14610163578063f2fde38b1461019a578063f3b4c89a146101d3578063fc9bb7fe1461020a575b600080fd5b341561009357600080fd5b6100e3600480803590602001908201803590602001908080601f0160208091040260200160405190810160405280939291908181526020018383808284378201915050505050509190505061022d565b005b34156100f057600080fd5b6100f86102cc565b604051808273ffffffffffffffffffffffffffffffffffffffff1673ffffffffffffffffffffffffffffffffffffffff16815260200191505060405180910390f35b341561014557600080fd5b61014d6102f1565b6040518082815260200191505060405180910390f35b341561016e57600080fd5b61018460048080359060200190919050506102f7565b6040518082815260200191505060405180910390f35b34156101a557600080fd5b6101d1600480803573ffffffffffffffffffffffffffffffffffffffff1690602001909190505061031b565b005b34156101de57600080fd5b6101f46004808035906020019091905050610470565b6040518082815260200191505060405180910390f35b341561021557600080fd5b61022b6004808035906020019091905050610488565b005b7f56f074d292557f2e3c567d982816e0fb5b72100ff196892f8fbd23b8a9073679816040518080602001828103825283818151815260200191508051906020019080838360005b8381101561028f578082015181840152602081019050610274565b50505050905090810190601f1680156102bc5780820380516001836020036101000a031916815260200191505b509250505060405180910390a150565b6000809054906101000a900473ffffffffffffffffffffffffffffffffffffffff1681565b60035481565b60018181548110151561030657fe5b90600052602060002090016000915090505481565b6000809054906101000a900473ffffffffffffffffffffffffffffffffffffffff1673ffffffffffffffffffffffffffffffffffffffff163373ffffffffffffffffffffffffffffffffffffffff1614151561037657600080fd5b600073ffffffffffffffffffffffffffffffffffffffff168173ffffffffffffffffffffffffffffffffffffffff16141515156103b257600080fd5b8073ffffffffffffffffffffffffffffffffffffffff166000809054906101000a900473ffffffffffffffffffffffffffffffffffffffff1673ffffffffffffffffffffffffffffffffffffffff167f8be0079c531659141344cd1fd0a4f28419497f9722a3daafe3b4186f6b6457e060405160405180910390a3806000806101000a81548173ffffffffffffffffffffffffffffffffffffffff021916908373ffffffffffffffffffffffffffffffffffffffff16021790555050565b60026020528060005260406000206000915090505481565b6000809054906101000a900473ffffffffffffffffffffffffffffffffffffffff1673ffffffffffffffffffffffffffffffffffffffff163373ffffffffffffffffffffffffffffffffffffffff161415156104e357600080fd5b600180548060010182816104f7919061056c565b916000526020600020900160004290919091505550806002600042815260200190815260200160002081905550806003819055506105696040805190810160405280601581526020017f4f7261636c65207072696365207570646174656421000000000000000000000081525061022d565b50565b815481835581811511610593578183600052602060002091820191016105929190610598565b5b505050565b6105ba91905b808211156105b657600081600090555060010161059e565b5090565b905600a165627a7a723058200d973133874a7f248f40bb0a73016020e50f6e705fb861ffbcd4618fc1402a000029",
  "source": "pragma solidity ^0.4.18;\nimport \"./Ownable.sol\";\nimport \"./Debuggable.sol\";\n\n/**\n@title Oracle\n@dev A contract which saves price history to the Ethereum blockchain.\n\n@author Convoluted Labs\n*/\ncontract Oracle is Ownable, Debuggable {\n\n  /// Array that contains the timestamps that the prices were updated\n  uint[] public timesUpdated;\n\n  /// Mapping that maps timestamps to a price\n  mapping(uint => uint) public priceByTime;\n\n  /// Single value, the latest price\n  uint public latestPrice;\n\n  /**\n  @dev Oracle constructor.\n  @param _startingPrice The genesis price for the instrument\n  */\n  function Oracle(uint _startingPrice) public {\n    timesUpdated.push(block.timestamp);\n    priceByTime[block.timestamp] = _startingPrice;\n    latestPrice = _startingPrice;\n  }\n  \n  /**\n  @dev Endpoint for the Oracle owner to update prices\n  @param _latestPrice The latest price from Vanilla API\n  */\n  function setLatestPrice(uint _latestPrice) public onlyOwner {\n    timesUpdated.push(block.timestamp);\n    priceByTime[block.timestamp] = _latestPrice;\n    latestPrice = _latestPrice;\n    debug(\"Oracle price updated!\");\n  }\n}\n",
  "sourcePath": "/home/jani/dev/blockchain/vanilla-platform/contracts/Oracle.sol",
  "compiler": {
    "name": "solc",
    "version": "0.4.19+commit.c4cbbb05.Emscripten.clang"
  },
  "schemaVersion": "1.0.1",
  "updatedAt": "2018-02-23T09:05:43.072Z"
}