{
  "contractName": "OrdersManager",
  "abi": [
    {
      "constant": true,
      "inputs": [
        {
          "name": "orderID",
          "type": "uint256"
        }
      ],
      "name": "getOrderStatus",
      "outputs": [
        {
          "name": "",
          "type": "uint256"
        }
      ],
      "payable": false,
      "stateMutability": "view",
      "type": "function"
    },
    {
      "constant": true,
      "inputs": [],
      "name": "owner",
      "outputs": [
        {
          "name": "",
          "type": "address"
        }
      ],
      "payable": false,
      "stateMutability": "view",
      "type": "function"
    },
    {
      "constant": false,
      "inputs": [
        {
          "name": "feeWalletAddress",
          "type": "address"
        }
      ],
      "name": "setFeeWallet",
      "outputs": [],
      "payable": false,
      "stateMutability": "nonpayable",
      "type": "function"
    },
    {
      "constant": false,
      "inputs": [
        {
          "name": "closingDate",
          "type": "uint256"
        },
        {
          "name": "leverage",
          "type": "uint256"
        },
        {
          "name": "longPosition",
          "type": "bool"
        },
        {
          "name": "paymentAddress",
          "type": "address"
        }
      ],
      "name": "createOrder",
      "outputs": [
        {
          "name": "",
          "type": "uint256"
        }
      ],
      "payable": true,
      "stateMutability": "payable",
      "type": "function"
    },
    {
      "constant": false,
      "inputs": [
        {
          "name": "newOwner",
          "type": "address"
        }
      ],
      "name": "transferOwnership",
      "outputs": [],
      "payable": false,
      "stateMutability": "nonpayable",
      "type": "function"
    },
    {
      "constant": false,
      "inputs": [],
      "name": "matchMaker",
      "outputs": [],
      "payable": false,
      "stateMutability": "nonpayable",
      "type": "function"
    },
    {
      "inputs": [
        {
          "name": "signingSecret",
          "type": "string"
        }
      ],
      "payable": false,
      "stateMutability": "nonpayable",
      "type": "constructor"
    },
    {
      "anonymous": false,
      "inputs": [
        {
          "indexed": true,
          "name": "previousOwner",
          "type": "address"
        },
        {
          "indexed": true,
          "name": "newOwner",
          "type": "address"
        }
      ],
      "name": "OwnershipTransferred",
      "type": "event"
    }
  ],
  "bytecode": "0x60606040526040805190810160405280600e81526020017f6d7973616c7469737368697474790000000000000000000000000000000000008152506001908051906020019061004f9291906100d4565b50341561005b57600080fd5b604051610c8b380380610c8b83398101604052808051820191905050336000806101000a81548173ffffffffffffffffffffffffffffffffffffffff021916908373ffffffffffffffffffffffffffffffffffffffff16021790555080600190805190602001906100cd9291906100d4565b5050610179565b828054600181600116156101000203166002900490600052602060002090601f016020900481019282601f1061011557805160ff1916838001178555610143565b82800160010185558215610143579182015b82811115610142578251825591602001919060010190610127565b5b5090506101509190610154565b5090565b61017691905b8082111561017257600081600090555060010161015a565b5090565b90565b610b03806101886000396000f300606060405260043610610078576000357c0100000000000000000000000000000000000000000000000000000000900463ffffffff16806345fa8aae1461007d5780638da5cb5b146100b457806390d49b9d146101095780639a81a16214610142578063f2fde38b146101a1578063f984a6fe146101da575b600080fd5b341561008857600080fd5b61009e60048080359060200190919050506101ef565b6040518082815260200191505060405180910390f35b34156100bf57600080fd5b6100c761033d565b604051808273ffffffffffffffffffffffffffffffffffffffff1673ffffffffffffffffffffffffffffffffffffffff16815260200191505060405180910390f35b341561011457600080fd5b610140600480803573ffffffffffffffffffffffffffffffffffffffff16906020019091905050610362565b005b61018b6004808035906020019091908035906020019091908035151590602001909190803573ffffffffffffffffffffffffffffffffffffffff16906020019091905050610401565b6040518082815260200191505060405180910390f35b34156101ac57600080fd5b6101d8600480803573ffffffffffffffffffffffffffffffffffffffff1690602001909190505061073e565b005b34156101e557600080fd5b6101ed610893565b005b6000803373ffffffffffffffffffffffffffffffffffffffff1660038481548110151561021857fe5b906000526020600020906006020160030160009054906101000a900473ffffffffffffffffffffffffffffffffffffffff1673ffffffffffffffffffffffffffffffffffffffff1614905080806102da57503373ffffffffffffffffffffffffffffffffffffffff1660048481548110151561029057fe5b906000526020600020906006020160030160009054906101000a900473ffffffffffffffffffffffffffffffffffffffff1673ffffffffffffffffffffffffffffffffffffffff16145b15156102e557600080fd5b8015610313576003838154811015156102fa57fe5b9060005260206000209060060201600001549150610337565b60048381548110151561032257fe5b90600052602060002090600602016000015491505b50919050565b6000809054906101000a900473ffffffffffffffffffffffffffffffffffffffff1681565b6000809054906101000a900473ffffffffffffffffffffffffffffffffffffffff1673ffffffffffffffffffffffffffffffffffffffff163373ffffffffffffffffffffffffffffffffffffffff161415156103bd57600080fd5b80600760006101000a81548173ffffffffffffffffffffffffffffffffffffffff021916908373ffffffffffffffffffffffffffffffffffffffff16021790555050565b600080681b1ae4d6e2ef5000003410151561041b57600080fd5b8585600160405180848152602001838152602001828054600181600116156101000203166002900480156104865780601f10610464576101008083540402835291820191610486565b820191906000526020600020905b815481529060010190602001808311610472575b50509350505050604051809103902060019004905083156105ed57600380548060010182816104b59190610a18565b9160005260206000209060060201600060c0604051908101604052808581526020018a81526020018981526020013373ffffffffffffffffffffffffffffffffffffffff1681526020018773ffffffffffffffffffffffffffffffffffffffff16815260200134815250909190915060008201518160000155602082015181600101556040820151816002015560608201518160030160006101000a81548173ffffffffffffffffffffffffffffffffffffffff021916908373ffffffffffffffffffffffffffffffffffffffff16021790555060808201518160040160006101000a81548173ffffffffffffffffffffffffffffffffffffffff021916908373ffffffffffffffffffffffffffffffffffffffff16021790555060a082015181600501555050506001600380549050039150610735565b600480548060010182816106019190610a18565b9160005260206000209060060201600060c0604051908101604052808581526020018a81526020018981526020013373ffffffffffffffffffffffffffffffffffffffff1681526020018773ffffffffffffffffffffffffffffffffffffffff16815260200134815250909190915060008201518160000155602082015181600101556040820151816002015560608201518160030160006101000a81548173ffffffffffffffffffffffffffffffffffffffff021916908373ffffffffffffffffffffffffffffffffffffffff16021790555060808201518160040160006101000a81548173ffffffffffffffffffffffffffffffffffffffff021916908373ffffffffffffffffffffffffffffffffffffffff16021790555060a0820151816005015550505060016004805490500391505b50949350505050565b6000809054906101000a900473ffffffffffffffffffffffffffffffffffffffff1673ffffffffffffffffffffffffffffffffffffffff163373ffffffffffffffffffffffffffffffffffffffff1614151561079957600080fd5b600073ffffffffffffffffffffffffffffffffffffffff168173ffffffffffffffffffffffffffffffffffffffff16141515156107d557600080fd5b8073ffffffffffffffffffffffffffffffffffffffff166000809054906101000a900473ffffffffffffffffffffffffffffffffffffffff1673ffffffffffffffffffffffffffffffffffffffff167f8be0079c531659141344cd1fd0a4f28419497f9722a3daafe3b4186f6b6457e060405160405180910390a3806000806101000a81548173ffffffffffffffffffffffffffffffffffffffff021916908373ffffffffffffffffffffffffffffffffffffffff16021790555050565b600080600091505b600380549050821015610916576003828154811015156108b757fe5b906000526020600020906006020160050154600560006003858154811015156108dc57fe5b906000526020600020906006020160000154815260200190815260200160002060008282540192505081905550818060010192505061089b565b6706f05b59d3b200006005600060048481548110151561093257fe5b90600052602060002090600602016000015481526020019081526020016000205411151561095c57fe5b600090505b600480549050811015610a145760048181548110151561097d57fe5b906000526020600020906006020160050154600660006004848154811015156109a257fe5b9060005260206000209060060201600001548152602001908152602001600020600082825401925050819055506706f05b59d3b20000600660006004848154811015156109eb57fe5b906000526020600020906006020160000154815260200190815250508080600101915050610961565b5050565b815481835581811511610a4557600602816006028360005260206000209182019101610a449190610a4a565b5b505050565b610ad491905b80821115610ad057600080820160009055600182016000905560028201600090556003820160006101000a81549073ffffffffffffffffffffffffffffffffffffffff02191690556004820160006101000a81549073ffffffffffffffffffffffffffffffffffffffff0219169055600582016000905550600601610a50565b5090565b905600a165627a7a7230582004d6bc52ef1fb9219fad6c8fb47157ad096b934673b40b9914f27a16374716c00029",
  "source": "pragma solidity ^0.4.18;\nimport \"zeppelin-solidity/contracts/ownership/Ownable.sol\";\nimport \"./LongShortController.sol\";\nimport \"./Verify.sol\";\n\n/**\n * Manages all open option contracts,\n * and matches users and their funds to them.\n */\ncontract OrdersManager is Ownable {\n    \n    // Secret for parameter matching\n    string private signature = \"mysaltisshitty\";\n    \n    // List of all the controller contracts we have spawned\n    address[] private controllers;\n    \n    // List of all open orders\n    Order[] private openLongOrders;\n    Order[] private openShortOrders;\n    mapping(uint => uint) private longAmountForParameters;\n    mapping(uint => uint) private shortAmountForParameters;\n    \n    // Address of the fee wallet\n    address private feeWallet;\n    \n    // Constructor, defining the fee wallet address and the signature\n    function OrdersManager(string signingSecret) public {\n        signature = signingSecret;\n    }\n\n    // Message, which is sent from the proxy contracts or straight from the user\n    struct OrderParameters {\n        uint closingDate;\n        //bytes32 closingSignature;\n        uint8 leverage;\n        bool longPosition;\n        address paymentAddress;\n    }\n    \n    // Matchable order, which gets stored in openOrders\n    struct Order {\n        uint parameterHash;\n        uint closingDate;\n        uint leverage;\n        //bytes32 closingSignature;\n        address originAddress;\n        address paymentAddress;\n        uint balance;\n    }\n    \n    // Create an open order to wait for matching\n    function createOrder(uint closingDate, uint leverage, bool longPosition, address paymentAddress) public payable returns (uint) {\n        //require(msg.value > 0.1 ether);\n        require(msg.value < 500 ether);\n        uint parameterHash = uint(keccak256(closingDate, leverage, signature));\n        if (longPosition) {\n            openLongOrders.push(Order(parameterHash, closingDate, leverage, msg.sender, paymentAddress, msg.value));\n            return openLongOrders.length - 1;\n        } else {\n            openShortOrders.push(Order(parameterHash, closingDate, leverage, msg.sender, paymentAddress, msg.value));\n            return openShortOrders.length - 1;\n        }\n        return 0;\n    }\n\n    \n    // Just for testing this without any events\n    function getOrderStatus(uint orderID) public view returns (uint) {\n        bool userIsLong = openLongOrders[orderID].originAddress == msg.sender;\n        require(userIsLong || openShortOrders[orderID].originAddress == msg.sender);\n        if (userIsLong) {\n            return openLongOrders[orderID].parameterHash;\n        } else {\n            return openShortOrders[orderID].parameterHash;\n        }\n    }\n    \n    // Setter for our fee wallet address\n    function setFeeWallet(address feeWalletAddress) public onlyOwner {\n        feeWallet = feeWalletAddress;\n    }\n    \n    // Spawns a new option contract\n    /* function createController(Order[] longOrders, Order[] shortOrders) public {\n        var initialOrder = longOrders[0];\n        address newController = new LongShortController(initialOrder.parameterHash, initialOrder.closingDate, initialOrder.leverage, longOrders, shortOrders);\n        controllers.push(newController);\n    } */\n    \n    function matchMaker() public {\n        for (uint longOrderIndex = 0; longOrderIndex < openLongOrders.length; longOrderIndex++) {\n            longAmountForParameters[openLongOrders[longOrderIndex].parameterHash] += openLongOrders[longOrderIndex].balance;\n        }\n        assert(longAmountForParameters[openShortOrders[shortOrderIndex].parameterHash] > 0.5 ether);\n        for (uint shortOrderIndex = 0; shortOrderIndex < openShortOrders.length; shortOrderIndex++) {\n            shortAmountForParameters[openShortOrders[shortOrderIndex].parameterHash] += openShortOrders[shortOrderIndex].balance;\n            if (shortAmountForParameters[openShortOrders[shortOrderIndex].parameterHash] > 0.5 ether) {\n                \n            }\n        }\n    }\n\n}\n",
  "sourcePath": "/home/jani/dev/blockchain/vanilla-platform/contracts/OrdersManager.sol",
  "compiler": {
    "name": "solc",
    "version": "0.4.18+commit.9cf6e910.Emscripten.clang"
  },
  "schemaVersion": "1.0.1",
  "updatedAt": "2018-02-12T10:18:28.804Z"
}