{
  "contractName": "OrdersManager",
  "abi": [
    {
      "constant": true,
      "inputs": [],
      "name": "MINIMUM_POSITION",
      "outputs": [
        {
          "name": "",
          "type": "uint256"
        }
      ],
      "payable": false,
      "stateMutability": "view",
      "type": "function"
    },
    {
      "constant": true,
      "inputs": [],
      "name": "owner",
      "outputs": [
        {
          "name": "",
          "type": "address"
        }
      ],
      "payable": false,
      "stateMutability": "view",
      "type": "function"
    },
    {
      "constant": true,
      "inputs": [],
      "name": "MAXIMUM_POSITION",
      "outputs": [
        {
          "name": "",
          "type": "uint256"
        }
      ],
      "payable": false,
      "stateMutability": "view",
      "type": "function"
    },
    {
      "constant": false,
      "inputs": [
        {
          "name": "newOwner",
          "type": "address"
        }
      ],
      "name": "transferOwnership",
      "outputs": [],
      "payable": false,
      "stateMutability": "nonpayable",
      "type": "function"
    },
    {
      "anonymous": false,
      "inputs": [
        {
          "indexed": true,
          "name": "previousOwner",
          "type": "address"
        },
        {
          "indexed": true,
          "name": "newOwner",
          "type": "address"
        }
      ],
      "name": "OwnershipTransferred",
      "type": "event"
    },
    {
      "constant": false,
      "inputs": [
        {
          "name": "feeWalletAddress",
          "type": "address"
        }
      ],
      "name": "setFeeWallet",
      "outputs": [],
      "payable": false,
      "stateMutability": "nonpayable",
      "type": "function"
    },
    {
      "constant": false,
      "inputs": [
        {
          "name": "signingSecret",
          "type": "string"
        }
      ],
      "name": "setSignature",
      "outputs": [],
      "payable": false,
      "stateMutability": "nonpayable",
      "type": "function"
    },
    {
      "constant": false,
      "inputs": [
        {
          "name": "closingDate",
          "type": "uint256"
        },
        {
          "name": "leverage",
          "type": "uint256"
        },
        {
          "name": "longPosition",
          "type": "bool"
        },
        {
          "name": "paymentAddress",
          "type": "address"
        }
      ],
      "name": "createOrder",
      "outputs": [],
      "payable": true,
      "stateMutability": "payable",
      "type": "function"
    },
    {
      "constant": false,
      "inputs": [],
      "name": "matchMaker",
      "outputs": [],
      "payable": false,
      "stateMutability": "nonpayable",
      "type": "function"
    }
  ],
  "bytecode": "0x60606040526040805190810160405280600e81526020017f6d7973616c746973736869747479000000000000000000000000000000000000815250600190805190602001906200005192919062000098565b50336000806101000a81548173ffffffffffffffffffffffffffffffffffffffff021916908373ffffffffffffffffffffffffffffffffffffffff16021790555062000147565b828054600181600116156101000203166002900490600052602060002090601f016020900481019282601f10620000db57805160ff19168380011785556200010c565b828001600101855582156200010c579182015b828111156200010b578251825591602001919060010190620000ee565b5b5090506200011b91906200011f565b5090565b6200014491905b808211156200014057600081600090555060010162000126565b5090565b90565b61230d80620001576000396000f30060606040526004361061008e576000357c0100000000000000000000000000000000000000000000000000000000900463ffffffff1680632782fb22146100935780637a0b89d3146100f05780638da5cb5b1461011957806390d49b9d1461016e5780639a81a162146101a7578063e9593ef4146101f2578063f2fde38b1461021b578063f984a6fe14610254575b600080fd5b341561009e57600080fd5b6100ee600480803590602001908201803590602001908080601f01602080910402602001604051908101604052809392919081815260200183838082843782019150505050505091905050610269565b005b34156100fb57600080fd5b6101036102de565b6040518082815260200191505060405180910390f35b341561012457600080fd5b61012c6102e9565b604051808273ffffffffffffffffffffffffffffffffffffffff1673ffffffffffffffffffffffffffffffffffffffff16815260200191505060405180910390f35b341561017957600080fd5b6101a5600480803573ffffffffffffffffffffffffffffffffffffffff1690602001909190505061030e565b005b6101f06004808035906020019091908035906020019091908035151590602001909190803573ffffffffffffffffffffffffffffffffffffffff1690602001909190505061040b565b005b34156101fd57600080fd5b610205610864565b6040518082815260200191505060405180910390f35b341561022657600080fd5b610252600480803573ffffffffffffffffffffffffffffffffffffffff16906020019091905050610871565b005b341561025f57600080fd5b6102676109c6565b005b6000809054906101000a900473ffffffffffffffffffffffffffffffffffffffff1673ffffffffffffffffffffffffffffffffffffffff163373ffffffffffffffffffffffffffffffffffffffff161415156102c457600080fd5b80600190805190602001906102da929190611d8a565b5050565b662386f26fc1000081565b6000809054906101000a900473ffffffffffffffffffffffffffffffffffffffff1681565b6000809054906101000a900473ffffffffffffffffffffffffffffffffffffffff1673ffffffffffffffffffffffffffffffffffffffff163373ffffffffffffffffffffffffffffffffffffffff1614151561036957600080fd5b80600260006101000a81548173ffffffffffffffffffffffffffffffffffffffff021916908373ffffffffffffffffffffffffffffffffffffffff1602179055506103b2611e0a565b604051809103906000f08015156103c857600080fd5b600360006101000a81548173ffffffffffffffffffffffffffffffffffffffff021916908373ffffffffffffffffffffffffffffffffffffffff16021790555050565b6000662386f26fc10000341015151561042357600080fd5b681b1ae4d6e2ef500000341115151561043b57600080fd5b8484600160405180848152602001838152602001828054600181600116156101000203166002900480156104a65780601f106104845761010080835404028352918201916104a6565b820191906000526020600020905b815481529060010190602001808311610492575b5050935050505060405180910390209050821561068f576104c681611c33565b15156104fc57600480548060010182816104e09190611e1a565b9160005260206000209001600083909190915090600019169055505b61052a3460076000846000191660001916815260200190815260200160002054611c9190919063ffffffff16565b5060056000826000191660001916815260200190815260200160002080548060010182816105589190611e46565b9160005260206000209060060201600060c060405190810160405280856000191681526020018981526020018881526020013373ffffffffffffffffffffffffffffffffffffffff1681526020018673ffffffffffffffffffffffffffffffffffffffff16815260200134815250909190915060008201518160000190600019169055602082015181600101556040820151816002015560608201518160030160006101000a81548173ffffffffffffffffffffffffffffffffffffffff021916908373ffffffffffffffffffffffffffffffffffffffff16021790555060808201518160040160006101000a81548173ffffffffffffffffffffffffffffffffffffffff021916908373ffffffffffffffffffffffffffffffffffffffff16021790555060a0820151816005015550505061085d565b61069881611c33565b15156106ce57600480548060010182816106b29190611e1a565b9160005260206000209001600083909190915090600019169055505b6106fc3460086000846000191660001916815260200190815260200160002054611c9190919063ffffffff16565b50600660008260001916600019168152602001908152602001600020805480600101828161072a9190611e46565b9160005260206000209060060201600060c060405190810160405280856000191681526020018981526020018881526020013373ffffffffffffffffffffffffffffffffffffffff1681526020018673ffffffffffffffffffffffffffffffffffffffff16815260200134815250909190915060008201518160000190600019169055602082015181600101556040820151816002015560608201518160030160006101000a81548173ffffffffffffffffffffffffffffffffffffffff021916908373ffffffffffffffffffffffffffffffffffffffff16021790555060808201518160040160006101000a81548173ffffffffffffffffffffffffffffffffffffffff021916908373ffffffffffffffffffffffffffffffffffffffff16021790555060a082015181600501555050505b5050505050565b681b1ae4d6e2ef50000081565b6000809054906101000a900473ffffffffffffffffffffffffffffffffffffffff1673ffffffffffffffffffffffffffffffffffffffff163373ffffffffffffffffffffffffffffffffffffffff161415156108cc57600080fd5b600073ffffffffffffffffffffffffffffffffffffffff168173ffffffffffffffffffffffffffffffffffffffff161415151561090857600080fd5b8073ffffffffffffffffffffffffffffffffffffffff166000809054906101000a900473ffffffffffffffffffffffffffffffffffffffff1673ffffffffffffffffffffffffffffffffffffffff167f8be0079c531659141344cd1fd0a4f28419497f9722a3daafe3b4186f6b6457e060405160405180910390a3806000806101000a81548173ffffffffffffffffffffffffffffffffffffffff021916908373ffffffffffffffffffffffffffffffffffffffff16021790555050565b6000806109d1611e78565b6109d9611e78565b60008060008060006109e9611e8c565b6000806001600480549050111515610a0057600080fd5b60009b505b6004805490508c1015611c255760048c815481101515610a2157fe5b9060005260206000209001549a50600560008c6000191660001916815260200190815260200160002080549050604051805910610a5b5750595b908082528060200260200182016040528015610a9157816020015b610a7e611ef2565b815260200190600190039081610a765790505b509950600660008c6000191660001916815260200190815260200160002080549050604051805910610ac05750595b908082528060200260200182016040528015610af657816020015b610ae3611ef2565b815260200190600190039081610adb5790505b509850610b028b611caf565b15611c1857600760008c6000191660001916815260200190815260200160002054600860008d600019166000191681526020019081526020016000205410156113135760009750600860008c60001916600019168152602001908152602001600020549650610b9587600760008e6000191660001916815260200190815260200160002054611d1b90919063ffffffff16565b9550600094505b600660008c6000191660001916815260200190815260200160002080549050851015610e1757600660008c6000191660001916815260200190815260200160002085815481101515610bea57fe5b906000526020600020906006020160c0604051908101604052908160008201546000191660001916815260200160018201548152602001600282015481526020016003820160009054906101000a900473ffffffffffffffffffffffffffffffffffffffff1673ffffffffffffffffffffffffffffffffffffffff1673ffffffffffffffffffffffffffffffffffffffff1681526020016004820160009054906101000a900473ffffffffffffffffffffffffffffffffffffffff1673ffffffffffffffffffffffffffffffffffffffff1673ffffffffffffffffffffffffffffffffffffffff1681526020016005820154815250508986815181101515610cee57fe5b90602001906020020181905250610d62600660008d6000191660001916815260200190815260200160002086815481101515610d2657fe5b906000526020600020906006020160050154600860008e6000191660001916815260200190815260200160002054611d1b90919063ffffffff16565b50600660008c6000191660001916815260200190815260200160002085815481101515610d8b57fe5b9060005260206000209060060201600080820160009055600182016000905560028201600090556003820160006101000a81549073ffffffffffffffffffffffffffffffffffffffff02191690556004820160006101000a81549073ffffffffffffffffffffffffffffffffffffffff0219169055600582016000905550508480600101955050610b9c565b600094505b600560008c600019166000191681526020019081526020016000208054905085101561130e57868810156113015785600560008d6000191660001916815260200190815260200160002086815481101515610e7357fe5b906000526020600020906006020160050154101561112557610ed7600560008d6000191660001916815260200190815260200160002086815481101515610eb657fe5b90600052602060002090600602016005015489611c9190919063ffffffff16565b50600560008c6000191660001916815260200190815260200160002085815481101515610f0057fe5b906000526020600020906006020160c0604051908101604052908160008201546000191660001916815260200160018201548152602001600282015481526020016003820160009054906101000a900473ffffffffffffffffffffffffffffffffffffffff1673ffffffffffffffffffffffffffffffffffffffff1673ffffffffffffffffffffffffffffffffffffffff1681526020016004820160009054906101000a900473ffffffffffffffffffffffffffffffffffffffff1673ffffffffffffffffffffffffffffffffffffffff1673ffffffffffffffffffffffffffffffffffffffff1681526020016005820154815250508a8681518110151561100457fe5b90602001906020020181905250611078600560008d600019166000191681526020019081526020016000208681548110151561103c57fe5b906000526020600020906006020160050154600760008e6000191660001916815260200190815260200160002054611d1b90919063ffffffff16565b50600560008c60001916600019168152602001908152602001600020858154811015156110a157fe5b9060005260206000209060060201600080820160009055600182016000905560028201600090556003820160006101000a81549073ffffffffffffffffffffffffffffffffffffffff02191690556004820160006101000a81549073ffffffffffffffffffffffffffffffffffffffff021916905560058201600090555050611300565b6111388888611d1b90919063ffffffff16565b9350600560008c600019166000191681526020019081526020016000208581548110151561116257fe5b906000526020600020906006020160c0604051908101604052908160008201546000191660001916815260200160018201548152602001600282015481526020016003820160009054906101000a900473ffffffffffffffffffffffffffffffffffffffff1673ffffffffffffffffffffffffffffffffffffffff1673ffffffffffffffffffffffffffffffffffffffff1681526020016004820160009054906101000a900473ffffffffffffffffffffffffffffffffffffffff1673ffffffffffffffffffffffffffffffffffffffff1673ffffffffffffffffffffffffffffffffffffffff1681526020016005820154815250509250838360a00181815250506112b084600560008e600019166000191681526020019081526020016000208781548110151561129057fe5b906000526020600020906006020160050154611d1b90919063ffffffff16565b50828a868151811015156112c057fe5b906020019060200201819052506112fb84600760008e6000191660001916815260200190815260200160002054611d1b90919063ffffffff16565b508697505b5b8480600101955050610e1c565b611add565b600760008c600019166000191681526020019081526020016000205497506000965061136388600860008e6000191660001916815260200190815260200160002054611d1b90919063ffffffff16565b9150600094505b600560008c60001916600019168152602001908152602001600020805490508510156115e557600560008c60001916600019168152602001908152602001600020858154811015156113b857fe5b906000526020600020906006020160c0604051908101604052908160008201546000191660001916815260200160018201548152602001600282015481526020016003820160009054906101000a900473ffffffffffffffffffffffffffffffffffffffff1673ffffffffffffffffffffffffffffffffffffffff1673ffffffffffffffffffffffffffffffffffffffff1681526020016004820160009054906101000a900473ffffffffffffffffffffffffffffffffffffffff1673ffffffffffffffffffffffffffffffffffffffff1673ffffffffffffffffffffffffffffffffffffffff1681526020016005820154815250508a868151811015156114bc57fe5b90602001906020020181905250611530600560008d60001916600019168152602001908152602001600020868154811015156114f457fe5b906000526020600020906006020160050154600760008e6000191660001916815260200190815260200160002054611d1b90919063ffffffff16565b50600560008c600019166000191681526020019081526020016000208581548110151561155957fe5b9060005260206000209060060201600080820160009055600182016000905560028201600090556003820160006101000a81549073ffffffffffffffffffffffffffffffffffffffff02191690556004820160006101000a81549073ffffffffffffffffffffffffffffffffffffffff021916905560058201600090555050848060010195505061136a565b600094505b600660008c6000191660001916815260200190815260200160002080549050851015611adc5787871015611acf5781600660008d600019166000191681526020019081526020016000208681548110151561164157fe5b90600052602060002090600602016005015410156118f3576116a5600660008d600019166000191681526020019081526020016000208681548110151561168457fe5b90600052602060002090600602016005015488611c9190919063ffffffff16565b50600660008c60001916600019168152602001908152602001600020858154811015156116ce57fe5b906000526020600020906006020160c0604051908101604052908160008201546000191660001916815260200160018201548152602001600282015481526020016003820160009054906101000a900473ffffffffffffffffffffffffffffffffffffffff1673ffffffffffffffffffffffffffffffffffffffff1673ffffffffffffffffffffffffffffffffffffffff1681526020016004820160009054906101000a900473ffffffffffffffffffffffffffffffffffffffff1673ffffffffffffffffffffffffffffffffffffffff1673ffffffffffffffffffffffffffffffffffffffff16815260200160058201548152505089868151811015156117d257fe5b90602001906020020181905250611846600660008d600019166000191681526020019081526020016000208681548110151561180a57fe5b906000526020600020906006020160050154600860008e6000191660001916815260200190815260200160002054611d1b90919063ffffffff16565b50600660008c600019166000191681526020019081526020016000208581548110151561186f57fe5b9060005260206000209060060201600080820160009055600182016000905560028201600090556003820160006101000a81549073ffffffffffffffffffffffffffffffffffffffff02191690556004820160006101000a81549073ffffffffffffffffffffffffffffffffffffffff021916905560058201600090555050611ace565b6119068789611d1b90919063ffffffff16565b9350600660008c600019166000191681526020019081526020016000208581548110151561193057fe5b906000526020600020906006020160c0604051908101604052908160008201546000191660001916815260200160018201548152602001600282015481526020016003820160009054906101000a900473ffffffffffffffffffffffffffffffffffffffff1673ffffffffffffffffffffffffffffffffffffffff1673ffffffffffffffffffffffffffffffffffffffff1681526020016004820160009054906101000a900473ffffffffffffffffffffffffffffffffffffffff1673ffffffffffffffffffffffffffffffffffffffff1673ffffffffffffffffffffffffffffffffffffffff1681526020016005820154815250509250838360a0018181525050611a7e84600660008e6000191660001916815260200190815260200160002087815481101515611a5e57fe5b906000526020600020906006020160050154611d1b90919063ffffffff16565b50828986815181101515611a8e57fe5b90602001906020020181905250611ac984600860008e6000191660001916815260200190815260200160002054611d1b90919063ffffffff16565b508796505b5b84806001019550506115ea565b5b611af08789611c9190919063ffffffff16565b9050611b2b611b1c611b0d600a6003611d3490919063ffffffff16565b83611d4f90919063ffffffff16565b82611d1b90919063ffffffff16565b9050600260009054906101000a900473ffffffffffffffffffffffffffffffffffffffff1673ffffffffffffffffffffffffffffffffffffffff166108fc611b90611b81600a6003611d3490919063ffffffff16565b84611d4f90919063ffffffff16565b9081150290604051600060405180830381858888f193505050501515611bb557600080fd5b600360009054906101000a900473ffffffffffffffffffffffffffffffffffffffff1673ffffffffffffffffffffffffffffffffffffffff166108fc829081150290604051600060405180830381858888f193505050501515611c1757600080fd5b5b8b806001019c5050610a05565b505050505050505050505050565b600080600860008460001916600019168152602001908152602001600020541180611c795750600060076000846000191660001916815260200190815260200160002054115b15611c875760019050611c8c565b600090505b919050565b6000808284019050838110151515611ca557fe5b8091505092915050565b6000662386f26fc1000060086000846000191660001916815260200190815260200160002054118015611d035750662386f26fc1000060076000846000191660001916815260200190815260200160002054115b15611d115760019050611d16565b600090505b919050565b6000828211151515611d2957fe5b818303905092915050565b6000808284811515611d4257fe5b0490508091505092915050565b6000806000841415611d645760009150611d83565b8284029050828482811515611d7557fe5b04141515611d7f57fe5b8091505b5092915050565b828054600181600116156101000203166002900490600052602060002090601f016020900481019282601f10611dcb57805160ff1916838001178555611df9565b82800160010185558215611df9579182015b82811115611df8578251825591602001919060010190611ddd565b5b509050611e069190611f58565b5090565b6040516102b28061203083390190565b815481835581811511611e4157818360005260206000209182019101611e409190611f7d565b5b505050565b815481835581811511611e7357600602816006028360005260206000209182019101611e729190611fa2565b5b505050565b602060405190810160405280600081525090565b60c060405190810160405280600080191681526020016000815260200160008152602001600073ffffffffffffffffffffffffffffffffffffffff168152602001600073ffffffffffffffffffffffffffffffffffffffff168152602001600081525090565b60c060405190810160405280600080191681526020016000815260200160008152602001600073ffffffffffffffffffffffffffffffffffffffff168152602001600073ffffffffffffffffffffffffffffffffffffffff168152602001600081525090565b611f7a91905b80821115611f76576000816000905550600101611f5e565b5090565b90565b611f9f91905b80821115611f9b576000816000905550600101611f83565b5090565b90565b61202c91905b8082111561202857600080820160009055600182016000905560028201600090556003820160006101000a81549073ffffffffffffffffffffffffffffffffffffffff02191690556004820160006101000a81549073ffffffffffffffffffffffffffffffffffffffff0219169055600582016000905550600601611fa8565b5090565b9056006060604052341561000f57600080fd5b6040805190810160405280600481526020017f6562696e000000000000000000000000000000000000000000000000000000008152506000908051906020019061005a929190610060565b50610105565b828054600181600116156101000203166002900490600052602060002090601f016020900481019282601f106100a157805160ff19168380011785556100cf565b828001600101855582156100cf579182015b828111156100ce5782518255916020019190600101906100b3565b5b5090506100dc91906100e0565b5090565b61010291905b808211156100fe5760008160009055506001016100e6565b5090565b90565b61019e806101146000396000f300606060405260043610610041576000357c0100000000000000000000000000000000000000000000000000000000900463ffffffff1680638b2f3fc514610046575b600080fd5b341561005157600080fd5b6100596100d4565b6040518080602001828103825283818151815260200191508051906020019080838360005b8381101561009957808201518184015260208101905061007e565b50505050905090810190601f1680156100c65780820380516001836020036101000a031916815260200191505b509250505060405180910390f35b60008054600181600116156101000203166002900480601f01602080910402602001604051908101604052809291908181526020018280546001816001161561010002031660029004801561016a5780601f1061013f5761010080835404028352916020019161016a565b820191906000526020600020905b81548152906001019060200180831161014d57829003601f168201915b5050505050815600a165627a7a72305820f66048c5ef9bb6e1adf3f51281e09a989aebea7286e214a860ff2246a77b3f010029a165627a7a72305820bc540e07ec95453211638f53a89461bd5b98c661998bc09987ebdd15d3c4ce710029",
  "source": "pragma solidity ^0.4.18;\nimport \"zeppelin-solidity/contracts/ownership/Ownable.sol\";\nimport \"zeppelin-solidity/contracts/math/SafeMath.sol\";\nimport \"./LongShortController.sol\";\n//import \"./Verify.sol\";\n\n/**\n * Handles opening and bundling of orders into active LongShort contracts.\n * New orders' parameters are grouped by a hash of the parameters,\n * with which a matchMaker function bundles open orders and closes ones that have expired.\n *\n * @author Convoluted Labs\n */\ncontract OrdersManager is Ownable {\n    \n    // Use Zeppelin's SafeMath library for calculations\n    using SafeMath for uint256;\n\n    // Secret for parameter matching\n    string private signature = \"mysaltisshitty\";\n\n    // Address of the fee wallet\n    address private feeWallet;\n\n    // Address of the LongShortController\n    address private longShortControllerAddress;\n    \n    // List of all open orders\n    bytes32[] private openOrderHashes;\n    mapping(bytes32 => Order[]) private longs;\n    mapping(bytes32 => Order[]) private shorts;\n    mapping(bytes32 => uint256) private amountLongForHash;\n    mapping(bytes32 => uint256) private amountShortForHash;\n\n    // Minimum and maximum positions\n    uint256 public constant MINIMUM_POSITION = 0.01 ether;\n    uint256 public constant MAXIMUM_POSITION = 500 ether;\n    \n    /**\n     * Order struct\n     * Constructed in createOrder() with user parameters\n     */\n    struct Order {\n        bytes32 parameterHash;\n        uint closingDate;\n        uint leverage;\n        //bytes32 closingSignature;\n        address originAddress;\n        address paymentAddress;\n        uint256 balance;\n    }\n    \n    /**\n     * Setter for Vanilla's fee wallet address\n     * Only callable by the owner.\n     */\n    function setFeeWallet(address feeWalletAddress) public onlyOwner {\n        feeWallet = feeWalletAddress;\n        longShortControllerAddress = new LongShortController();\n    }\n\n    /**\n     * Setter for the contract signature\n     */\n    function setSignature(string signingSecret) public onlyOwner {\n        signature = signingSecret;\n    }\n\n    /**\n     * Function for checking if there are orders\n     * with the same parameters open already\n     */\n    function similarOrdersExist(bytes32 parameterHash) internal view returns (bool) {\n        if (amountShortForHash[parameterHash] > 0 || amountLongForHash[parameterHash] > 0) {\n            return true;\n        }\n        return false;\n    }\n\n    /**\n     * Function for checking if there are open orders\n     * on both sides with enough funds.\n     */\n    function matchesExist(bytes32 parameterHash) internal view returns (bool) {\n        if (amountShortForHash[parameterHash] > MINIMUM_POSITION && amountLongForHash[parameterHash] > MINIMUM_POSITION) {\n            return true;\n        }\n        return false;\n    }\n\n    /**\n     * Open order creation, the main endpoint for Vanilla platform.\n     *\n     * Mainly called by Vanilla's own backend, but open for\n     * everyone who knows how to use the smart contract on its own.\n     *\n     * Receives a singular payment with parameters to open an order with.\n     */\n    function createOrder(uint closingDate, uint leverage, bool longPosition, address paymentAddress) public payable {\n\n        // Check minimum and maximum bets\n        require(msg.value >= MINIMUM_POSITION);\n        require(msg.value <= MAXIMUM_POSITION);\n\n        // Calculate a hash of the parameters for matching\n        bytes32 parameterHash = keccak256(closingDate, leverage, signature);\n\n        /* SAVE ORDER */\n\n        // If the order is long\n        if (longPosition) {\n\n            // Save new parameter hash to list\n            if (!similarOrdersExist(parameterHash)) {\n                openOrderHashes.push(parameterHash);\n            }\n\n            // Add the sent amount to previous amount of longs with the same parameters\n            amountLongForHash[parameterHash].add(msg.value);\n\n            // Add the order to list of open long orders\n            longs[parameterHash].push(Order(parameterHash, closingDate, leverage, msg.sender, paymentAddress, msg.value));\n\n        // If the order is short\n        } else {\n\n            // Save new parameter hash to list\n            if (!similarOrdersExist(parameterHash)) {\n                openOrderHashes.push(parameterHash);\n            }\n\n            // Add the sent amount to previous amount of shorts with the same parameters\n            amountShortForHash[parameterHash].add(msg.value);\n\n            // Add the order to list of open short orders\n            shorts[parameterHash].push(Order(parameterHash, closingDate, leverage, msg.sender, paymentAddress, msg.value));\n\n        }\n\n    }\n\n    /**\n     * Public callable matchmaker function, which has the logic\n     * for creating new active LongShorts from open orders\n     * \n     * Accessible by everyone on the Ethereum blockchain, so that\n     * nobody's funds are freezed in any situation.\n     */\n    function matchMaker() public {\n\n        // Fail the call if there's no more than 1 open order\n        require(openOrderHashes.length > 1);\n\n        for (uint i = 0; i < openOrderHashes.length; i++) {\n\n            // Parameter hash of this iteration\n            var paramHash = openOrderHashes[i];\n\n            // Order arrays for these parameters\n            Order[] memory longsForHash = new Order[](longs[paramHash].length);\n            Order[] memory shortsForHash = new Order[](shorts[paramHash].length);\n\n            // Check that both sides have open orders with same parameters\n            if (matchesExist(paramHash)) {\n                if (amountShortForHash[paramHash] < amountLongForHash[paramHash]) {\n\n                    uint256 amountLong = 0;\n                    uint256 amountShort = amountShortForHash[paramHash];\n\n                    uint256 longShortDiff = amountLongForHash[paramHash].sub(amountShort);\n\n                    // For the smaller position, it's easy: just add the orders to the batch.\n                    for (uint j = 0; j < shorts[paramHash].length; j++) {\n                        shortsForHash[j] = shorts[paramHash][j];\n                        amountShortForHash[paramHash].sub(shorts[paramHash][j].balance);\n                        delete shorts[paramHash][j];\n                    }\n\n                    // For the larger position, let's calculate a little\n                    for (j = 0; j < longs[paramHash].length; j++) {\n                        if (amountLong < amountShort) {\n\n                            if (longs[paramHash][j].balance < longShortDiff) {\n\n                                amountLong.add(longs[paramHash][j].balance);\n                                longsForHash[j] = longs[paramHash][j];\n                                amountLongForHash[paramHash].sub(longs[paramHash][j].balance);\n                                delete longs[paramHash][j];\n\n                            } else {\n\n                                var remainingDiff = amountShort.sub(amountLong);\n\n                                Order memory partialOrder = longs[paramHash][j];\n                                partialOrder.balance = remainingDiff;\n\n                                longs[paramHash][j].balance.sub(remainingDiff);\n\n                                longsForHash[j] = partialOrder;\n                                amountLongForHash[paramHash].sub(remainingDiff);\n\n                                amountLong = amountShort;\n\n                            }\n\n                        }\n                    }\n\n                } else {\n\n                    amountLong = amountLongForHash[paramHash];\n                    amountShort = 0;\n\n                    var shortLongDiff = amountShortForHash[paramHash].sub(amountLong);\n\n                    // For the smaller position, it's easy: just add the orders to the batch.\n                    for (j = 0; j < longs[paramHash].length; j++) {\n                        longsForHash[j] = longs[paramHash][j];\n                        amountLongForHash[paramHash].sub(longs[paramHash][j].balance);\n                        delete longs[paramHash][j];\n                    }\n\n                    // For the larger position, let's calculate a little\n                    for (j = 0; j < shorts[paramHash].length; j++) {\n                        if (amountShort < amountLong) {\n\n                            if (shorts[paramHash][j].balance < shortLongDiff) {\n\n                                amountShort.add(shorts[paramHash][j].balance);\n                                shortsForHash[j] = shorts[paramHash][j];\n                                amountShortForHash[paramHash].sub(shorts[paramHash][j].balance);\n                                delete shorts[paramHash][j];\n\n                            } else {\n\n                                remainingDiff = amountLong.sub(amountShort);\n\n                                partialOrder = shorts[paramHash][j];\n                                partialOrder.balance = remainingDiff;\n\n                                shorts[paramHash][j].balance.sub(remainingDiff);\n\n                                shortsForHash[j] = partialOrder;\n                                amountShortForHash[paramHash].sub(remainingDiff);\n                                \n                                amountShort = amountLong;\n\n                            }\n\n                        }\n                    }\n\n                }\n                uint256 amountForHash = amountLong.add(amountShort);\n                amountForHash = amountForHash.sub(amountForHash.mul(uint256(3).div(uint256(10))));\n\n                feeWallet.transfer(amountForHash.mul(uint256(3).div(uint256(10))));\n                longShortControllerAddress.transfer(amountForHash);\n            }\n        }\n    }\n}\n",
  "sourcePath": "/home/jani/dev/blockchain/vanilla-platform/contracts/OrdersManager.sol",
  "compiler": {
    "name": "solc",
    "version": "0.4.19+commit.c4cbbb05.Emscripten.clang"
  },
  "schemaVersion": "1.0.1",
  "updatedAt": "2018-02-13T11:20:29.177Z"
}