{
  "contractName": "OrdersManager",
  "abi": [
    {
      "constant": false,
      "inputs": [
        {
          "name": "message",
          "type": "string"
        }
      ],
      "name": "debug",
      "outputs": [],
      "payable": false,
      "stateMutability": "nonpayable",
      "type": "function"
    },
    {
      "constant": true,
      "inputs": [],
      "name": "MINIMUM_POSITION",
      "outputs": [
        {
          "name": "",
          "type": "uint256"
        }
      ],
      "payable": false,
      "stateMutability": "view",
      "type": "function"
    },
    {
      "constant": true,
      "inputs": [],
      "name": "owner",
      "outputs": [
        {
          "name": "",
          "type": "address"
        }
      ],
      "payable": false,
      "stateMutability": "view",
      "type": "function"
    },
    {
      "constant": true,
      "inputs": [],
      "name": "MAXIMUM_POSITION",
      "outputs": [
        {
          "name": "",
          "type": "uint256"
        }
      ],
      "payable": false,
      "stateMutability": "view",
      "type": "function"
    },
    {
      "constant": false,
      "inputs": [
        {
          "name": "newOwner",
          "type": "address"
        }
      ],
      "name": "transferOwnership",
      "outputs": [],
      "payable": false,
      "stateMutability": "nonpayable",
      "type": "function"
    },
    {
      "anonymous": false,
      "inputs": [
        {
          "indexed": false,
          "name": "message",
          "type": "string"
        }
      ],
      "name": "DebugEvent",
      "type": "event"
    },
    {
      "anonymous": false,
      "inputs": [
        {
          "indexed": true,
          "name": "previousOwner",
          "type": "address"
        },
        {
          "indexed": true,
          "name": "newOwner",
          "type": "address"
        }
      ],
      "name": "OwnershipTransferred",
      "type": "event"
    },
    {
      "constant": false,
      "inputs": [
        {
          "name": "feeWalletAddress",
          "type": "address"
        }
      ],
      "name": "setFeeWallet",
      "outputs": [],
      "payable": false,
      "stateMutability": "nonpayable",
      "type": "function"
    },
    {
      "constant": false,
      "inputs": [
        {
          "name": "signingSecret",
          "type": "string"
        }
      ],
      "name": "setSignature",
      "outputs": [],
      "payable": false,
      "stateMutability": "nonpayable",
      "type": "function"
    },
    {
      "constant": false,
      "inputs": [],
      "name": "withdrawFee",
      "outputs": [],
      "payable": false,
      "stateMutability": "nonpayable",
      "type": "function"
    },
    {
      "constant": true,
      "inputs": [],
      "name": "getOpenParameterHashes",
      "outputs": [
        {
          "name": "",
          "type": "bytes32[]"
        }
      ],
      "payable": false,
      "stateMutability": "view",
      "type": "function"
    },
    {
      "constant": true,
      "inputs": [
        {
          "name": "paramHash",
          "type": "bytes32"
        }
      ],
      "name": "getOpenOrderIDs",
      "outputs": [
        {
          "name": "",
          "type": "bytes32[]"
        }
      ],
      "payable": false,
      "stateMutability": "view",
      "type": "function"
    },
    {
      "constant": true,
      "inputs": [
        {
          "name": "orderHash",
          "type": "bytes32"
        }
      ],
      "name": "getOrder",
      "outputs": [
        {
          "name": "",
          "type": "bool"
        },
        {
          "name": "",
          "type": "uint256"
        },
        {
          "name": "",
          "type": "uint256"
        },
        {
          "name": "",
          "type": "address"
        },
        {
          "name": "",
          "type": "uint256"
        }
      ],
      "payable": false,
      "stateMutability": "view",
      "type": "function"
    },
    {
      "constant": false,
      "inputs": [
        {
          "name": "orderID",
          "type": "string"
        },
        {
          "name": "isLong",
          "type": "bool"
        },
        {
          "name": "duration",
          "type": "uint256"
        },
        {
          "name": "leverage",
          "type": "uint256"
        },
        {
          "name": "paymentAddress",
          "type": "address"
        }
      ],
      "name": "createOrder",
      "outputs": [
        {
          "name": "",
          "type": "bytes32"
        }
      ],
      "payable": true,
      "stateMutability": "payable",
      "type": "function"
    },
    {
      "constant": false,
      "inputs": [
        {
          "name": "orderHash",
          "type": "bytes32"
        }
      ],
      "name": "deleteOrder",
      "outputs": [],
      "payable": false,
      "stateMutability": "nonpayable",
      "type": "function"
    },
    {
      "constant": false,
      "inputs": [
        {
          "name": "orderHash",
          "type": "bytes32"
        },
        {
          "name": "newBalance",
          "type": "uint256"
        }
      ],
      "name": "updateOrderBalance",
      "outputs": [],
      "payable": false,
      "stateMutability": "nonpayable",
      "type": "function"
    }
  ],
  "bytecode": "0x60606040526040805190810160405280600e81526020017f6d7973616c746973736869747479000000000000000000000000000000000000815250600190805190602001906200005192919062000098565b50336000806101000a81548173ffffffffffffffffffffffffffffffffffffffff021916908373ffffffffffffffffffffffffffffffffffffffff16021790555062000147565b828054600181600116156101000203166002900490600052602060002090601f016020900481019282601f10620000db57805160ff19168380011785556200010c565b828001600101855582156200010c579182015b828111156200010b578251825591602001919060010190620000ee565b5b5090506200011b91906200011f565b5090565b6200014491905b808211156200014057600081600090555060010162000126565b5090565b90565b61166780620001576000396000f3006060604052600436106100d0576000357c0100000000000000000000000000000000000000000000000000000000900463ffffffff1680630894da91146100d55780632782fb221461013f5780632f50fbfa1461019c578063538539c2146101f95780635778472a146102755780636eb2760c146102fc5780637a0b89d3146103a657806387a61cbd146103cf5780638da5cb5b146103f65780638fb082011461044b57806390d49b9d1461047b578063e941fa78146104b4578063e9593ef4146104c9578063f2fde38b146104f2575b600080fd5b34156100e057600080fd5b6100e861052b565b6040518080602001828103825283818151815260200191508051906020019060200280838360005b8381101561012b578082015181840152602081019050610110565b505050509050019250505060405180910390f35b341561014a57600080fd5b61019a600480803590602001908201803590602001908080601f016020809104026020016040519081016040528093929190818152602001838380828437820191505050505050919050506105e8565b005b34156101a757600080fd5b6101f7600480803590602001908201803590602001908080601f0160208091040260200160405190810160405280939291908181526020018383808284378201915050505050509190505061069b565b005b341561020457600080fd5b61021e60048080356000191690602001909190505061073a565b6040518080602001828103825283818151815260200191508051906020019060200280838360005b83811015610261578082015181840152602081019050610246565b505050509050019250505060405180910390f35b341561028057600080fd5b61029a600480803560001916906020019091905050610812565b60405180861515151581526020018581526020018481526020018373ffffffffffffffffffffffffffffffffffffffff1673ffffffffffffffffffffffffffffffffffffffff1681526020018281526020019550505050505060405180910390f35b610388600480803590602001908201803590602001908080601f01602080910402602001604051908101604052809392919081815260200183838082843782019150505050505091908035151590602001909190803590602001909190803590602001909190803573ffffffffffffffffffffffffffffffffffffffff16906020019091905050610919565b60405180826000191660001916815260200191505060405180910390f35b34156103b157600080fd5b6103b9610ced565b6040518082815260200191505060405180910390f35b34156103da57600080fd5b6103f4600480803560001916906020019091905050610cf8565b005b341561040157600080fd5b610409610dfc565b604051808273ffffffffffffffffffffffffffffffffffffffff1673ffffffffffffffffffffffffffffffffffffffff16815260200191505060405180910390f35b341561045657600080fd5b610479600480803560001916906020019091908035906020019091905050610e21565b005b341561048657600080fd5b6104b2600480803573ffffffffffffffffffffffffffffffffffffffff16906020019091905050611011565b005b34156104bf57600080fd5b6104c76110ee565b005b34156104d457600080fd5b6104dc611206565b6040518082815260200191505060405180910390f35b34156104fd57600080fd5b610529600480803573ffffffffffffffffffffffffffffffffffffffff16906020019091905050611213565b005b6105336114df565b6000809054906101000a900473ffffffffffffffffffffffffffffffffffffffff1673ffffffffffffffffffffffffffffffffffffffff163373ffffffffffffffffffffffffffffffffffffffff1614151561058e57600080fd5b60048054806020026020016040519081016040528092919081815260200182805480156105de57602002820191906000526020600020905b815460001916815260200190600101908083116105c6575b5050505050905090565b6000809054906101000a900473ffffffffffffffffffffffffffffffffffffffff1673ffffffffffffffffffffffffffffffffffffffff163373ffffffffffffffffffffffffffffffffffffffff1614151561064357600080fd5b80600190805190602001906106599291906114f3565b506106986040805190810160405280600e81526020017f5369676e6174757265207365742e00000000000000000000000000000000000081525061069b565b50565b7f56f074d292557f2e3c567d982816e0fb5b72100ff196892f8fbd23b8a9073679816040518080602001828103825283818151815260200191508051906020019080838360005b838110156106fd5780820151818401526020810190506106e2565b50505050905090810190601f16801561072a5780820380516001836020036101000a031916815260200191505b509250505060405180910390a150565b6107426114df565b6000809054906101000a900473ffffffffffffffffffffffffffffffffffffffff1673ffffffffffffffffffffffffffffffffffffffff163373ffffffffffffffffffffffffffffffffffffffff1614151561079d57600080fd5b60056000836000191660001916815260200190815260200160002080548060200260200160405190810160405280929190818152602001828054801561080657602002820191906000526020600020905b815460001916815260200190600101908083116107ee575b50505050509050919050565b6000806000806000610822611573565b60066000886000191660001916815260200190815260200160002060c060405190810160405290816000820160009054906101000a900460ff1615151515815260200160018201548152602001600282015481526020016003820160009054906101000a900473ffffffffffffffffffffffffffffffffffffffff1673ffffffffffffffffffffffffffffffffffffffff1673ffffffffffffffffffffffffffffffffffffffff168152602001600482015481526020016005820154600019166000191681525050905080600001518160200151826040015183606001518460800151955095509550955095505091939590929450565b6000806000806000896040518082805190602001908083835b6020831015156109575780518252602082019150602081019050602083039250610932565b6001836020036101000a03801982511681845116808217855250505050505090500191505060405180910390209350600060066000866000191660001916815260200190815260200160002060030160009054906101000a900473ffffffffffffffffffffffffffffffffffffffff1673ffffffffffffffffffffffffffffffffffffffff161415156109e957600080fd5b662386f26fc100003410158015610a095750681b1ae4d6e2ef5000003411155b1515610a1457600080fd5b878760016040518084815260200183815260200182805460018160011615610100020316600290048015610a7f5780601f10610a5d576101008083540402835291820191610a7f565b820191906000526020600020905b815481529060010190602001808311610a6b575b5050935050505060405180910390209250610a9983611368565b1515610acf5760048054806001018281610ab391906115c5565b9160005260206000209001600085909190915090600019169055505b610ad83461141f565b9150610aed823461145290919063ffffffff16565b9050610b048260035461146b90919063ffffffff16565b6003819055506005600084600019166000191681526020019081526020016000208054806001018281610b3791906115c5565b91600052602060002090016000869091909150906000191690555060c0604051908101604052808a151581526020018981526020018881526020018773ffffffffffffffffffffffffffffffffffffffff16815260200182815260200133604051808273ffffffffffffffffffffffffffffffffffffffff1673ffffffffffffffffffffffffffffffffffffffff166c0100000000000000000000000002815260140191505060405180910390206000191681525060066000866000191660001916815260200190815260200160002060008201518160000160006101000a81548160ff021916908315150217905550602082015181600101556040820151816002015560608201518160030160006101000a81548173ffffffffffffffffffffffffffffffffffffffff021916908373ffffffffffffffffffffffffffffffffffffffff1602179055506080820151816004015560a08201518160050190600019169055905050610cdd6040805190810160405280601d81526020017f4e6577206f7264657220726563656976656420616e642073617665642e00000081525061069b565b8394505050505095945050505050565b662386f26fc1000081565b6000809054906101000a900473ffffffffffffffffffffffffffffffffffffffff1673ffffffffffffffffffffffffffffffffffffffff163373ffffffffffffffffffffffffffffffffffffffff16141515610d5357600080fd5b600060066000836000191660001916815260200190815260200160002060040154141515610d8057600080fd5b600660008260001916600019168152602001908152602001600020600080820160006101000a81549060ff0219169055600182016000905560028201600090556003820160006101000a81549073ffffffffffffffffffffffffffffffffffffffff021916905560048201600090556005820160009055505050565b6000809054906101000a900473ffffffffffffffffffffffffffffffffffffffff1681565b610e29611573565b6000809054906101000a900473ffffffffffffffffffffffffffffffffffffffff1673ffffffffffffffffffffffffffffffffffffffff163373ffffffffffffffffffffffffffffffffffffffff16141515610e8457600080fd5b60066000846000191660001916815260200190815260200160002060c060405190810160405290816000820160009054906101000a900460ff1615151515815260200160018201548152602001600282015481526020016003820160009054906101000a900473ffffffffffffffffffffffffffffffffffffffff1673ffffffffffffffffffffffffffffffffffffffff1673ffffffffffffffffffffffffffffffffffffffff1681526020016004820154815260200160058201546000191660001916815250509050818160800181815250508060066000856000191660001916815260200190815260200160002060008201518160000160006101000a81548160ff021916908315150217905550602082015181600101556040820151816002015560608201518160030160006101000a81548173ffffffffffffffffffffffffffffffffffffffff021916908373ffffffffffffffffffffffffffffffffffffffff1602179055506080820151816004015560a08201518160050190600019169055905050505050565b6000809054906101000a900473ffffffffffffffffffffffffffffffffffffffff1673ffffffffffffffffffffffffffffffffffffffff163373ffffffffffffffffffffffffffffffffffffffff1614151561106c57600080fd5b80600260006101000a81548173ffffffffffffffffffffffffffffffffffffffff021916908373ffffffffffffffffffffffffffffffffffffffff1602179055506110eb6040805190810160405280600f81526020017f4665652077616c6c6574207365742e000000000000000000000000000000000081525061069b565b50565b6000809054906101000a900473ffffffffffffffffffffffffffffffffffffffff1673ffffffffffffffffffffffffffffffffffffffff163373ffffffffffffffffffffffffffffffffffffffff1614151561114957600080fd5b600060035411151561115a57600080fd5b600260009054906101000a900473ffffffffffffffffffffffffffffffffffffffff1673ffffffffffffffffffffffffffffffffffffffff166108fc6003549081150290604051600060405180830381858888f1935050505015156111be57600080fd5b60006003819055506112046040805190810160405280600f81526020017f466565732077697468647261776e2e000000000000000000000000000000000081525061069b565b565b681b1ae4d6e2ef50000081565b6000809054906101000a900473ffffffffffffffffffffffffffffffffffffffff1673ffffffffffffffffffffffffffffffffffffffff163373ffffffffffffffffffffffffffffffffffffffff1614151561126e57600080fd5b600073ffffffffffffffffffffffffffffffffffffffff168173ffffffffffffffffffffffffffffffffffffffff16141515156112aa57600080fd5b8073ffffffffffffffffffffffffffffffffffffffff166000809054906101000a900473ffffffffffffffffffffffffffffffffffffffff1673ffffffffffffffffffffffffffffffffffffffff167f8be0079c531659141344cd1fd0a4f28419497f9722a3daafe3b4186f6b6457e060405160405180910390a3806000806101000a81548173ffffffffffffffffffffffffffffffffffffffff021916908373ffffffffffffffffffffffffffffffffffffffff16021790555050565b6000806005600084600019166000191681526020019081526020016000208054905011156113d7576113ce6040805190810160405280601681526020017f506172616d657465722068617368206578697374732e0000000000000000000081525061069b565b6001905061141a565b6114156040805190810160405280601d81526020017f506172616d65746572206861736820646f65736e27742065786973742e00000081525061069b565b600090505b919050565b600061144b606461143d601e60ff168561148990919063ffffffff16565b6114c490919063ffffffff16565b9050919050565b600082821115151561146057fe5b818303905092915050565b600080828401905083811015151561147f57fe5b8091505092915050565b600080600084141561149e57600091506114bd565b82840290508284828115156114af57fe5b041415156114b957fe5b8091505b5092915050565b60008082848115156114d257fe5b0490508091505092915050565b602060405190810160405280600081525090565b828054600181600116156101000203166002900490600052602060002090601f016020900481019282601f1061153457805160ff1916838001178555611562565b82800160010185558215611562579182015b82811115611561578251825591602001919060010190611546565b5b50905061156f91906115f1565b5090565b60c0604051908101604052806000151581526020016000815260200160008152602001600073ffffffffffffffffffffffffffffffffffffffff16815260200160008152602001600080191681525090565b8154818355818115116115ec578183600052602060002091820191016115eb9190611616565b5b505050565b61161391905b8082111561160f5760008160009055506001016115f7565b5090565b90565b61163891905b8082111561163457600081600090555060010161161c565b5090565b905600a165627a7a7230582078eb4cd88363f0a210d7ca29b41c70975d3d9d7cef1897d3846e7de3cf868aa50029",
  "source": "pragma solidity ^0.4.18;\nimport \"./Ownable.sol\";\nimport \"./Debuggable.sol\";\nimport \"./SafeMath.sol\";\n//import \"./Verify.sol\";\n\n/**\n@dev Handles opening and bundling of orders into active LongShort contracts.\nNew orders' parameters are grouped by a hash of the parameters,\nwith which a matchMaker function bundles open orders and closes ones that have expired.\n\n@author Convoluted Labs\n*/\ncontract OrdersManager is Ownable, Debuggable {\n\n    // Use Zeppelin's SafeMath library for calculations\n    using SafeMath for uint256;\n\n    // Secret for parameter matching\n    string private signature = \"mysaltisshitty\";\n\n    // Address of the fee wallet\n    address private feeWallet;\n    uint256 private cumulatedFee;\n\n    // List of all open order types\n    bytes32[] private openParameterHashes;\n    // Order IDs mapped by parameter hash\n    mapping(bytes32 => bytes32[]) private orderIDs;\n    // Orders mapped by order ID\n    mapping(bytes32 => Order) private orders;\n\n    // Minimum and maximum positions\n    uint256 public constant MINIMUM_POSITION = 0.01 ether;\n    uint256 public constant MAXIMUM_POSITION = 500 ether;\n\n    // Fee percentage\n    uint8 private constant FEE_PERCENTAGE = 30;\n\n    /**\n    @dev Order struct\n    Constructed in createOrder() with user parameters\n    */\n    struct Order {\n        bool isLong;\n        uint duration;\n        uint leverage;\n        address paymentAddress;\n        uint256 balance;\n        bytes32 ownerSignature;\n    }\n\n    /**\n    @dev Setter for Vanilla's fee wallet address\n    Only callable by the owner.\n    \n    @param feeWalletAddress upcoming address that receives the fees\n    */\n    function setFeeWallet(address feeWalletAddress) public onlyOwner {\n        feeWallet = feeWalletAddress;\n        debug(\"Fee wallet set.\");\n    }\n\n    /**\n    @dev Setter for the contract signature\n    Only callable by the owner.\n    \n    @param signingSecret a salt used in parameter and order hashing\n    */\n    function setSignature(string signingSecret) public onlyOwner {\n        signature = signingSecret;\n        debug(\"Signature set.\");\n    }\n\n    /**\n    @dev Fee calculation function\n    \n    @param amount the total amount that the fee is calculated from\n    */\n    function calculateFee(uint256 amount) internal pure returns (uint256) {\n        return amount.mul(FEE_PERCENTAGE).div(100);\n    }\n\n    /**\n    @dev Pull payment function for sending\n    the accumulated fees to Vanilla's fee wallet.\n    Only callable by the owner.\n    */\n    function withdrawFee() public onlyOwner {\n        require(cumulatedFee > 0 wei);\n        feeWallet.transfer(cumulatedFee);\n        cumulatedFee = 0;\n        debug(\"Fees withdrawn.\");\n    }\n\n    /**\n    @dev Returns open parameter hashes.\n    Only callable by the owner.\n    \n    @return bytes32[] array of open order types\n    */\n    function getOpenParameterHashes() public view onlyOwner returns (bytes32[]) {\n        return openParameterHashes;\n    }\n\n    /**\n    @dev Returns open orders by hash\n    Only callable by the owner.\n\n    @param paramHash Hash of duration, leverage and signature.\n    @return bytes32[] array of open orderIDs\n    */\n    function getOpenOrderIDs(bytes32 paramHash) public view onlyOwner returns (bytes32[]) {\n        return orderIDs[paramHash];\n    }\n\n    /**\n    @dev Returns order by orderID.\n    Deconstructs the Order struct for returning. Leaves out the ownerSignature.\n     \n    @param orderHash An unique hash that maps to an order\n    @return {\n        \"isLong\": \"boolean, describing if the order is long or short\",\n        \"duration\": \"uint, duration of the order in seconds\",\n        \"leverage\": \"uint, leverage of the LongShort\",\n        \"paymentAddress\": \"address, to which the refunds and rewards are paid\",\n        \"balance\": \"uint256, balance of the order\"\n    }\n    */\n    function getOrder(bytes32 orderHash) public view returns (bool, uint, uint, address, uint256) {\n        Order memory order = orders[orderHash];\n        return (order.isLong, order.duration, order.leverage, order.paymentAddress, order.balance);\n    }\n\n    /**\n    @dev Function for checking if there are orders\n    with the same parameters open already\n    \n    @param parameterHash Hash of duration, leverage and signature.\n    @return bool\n    */\n    function parameterHashExists(bytes32 parameterHash) private returns (bool) {\n        if (orderIDs[parameterHash].length > 0) {\n            debug(\"Parameter hash exists.\");\n            return true;\n        }\n        debug(\"Parameter hash doesn't exist.\");\n        return false;\n    }\n\n    /**\n    @dev Open order creation, the main endpoint for Vanilla platform.\n    \n    Mainly called by Vanilla's own backend, but open for\n    everyone who knows how to use the smart contract on its own.\n    \n    Receives a singular payment with parameters to open an order with.\n    \n    @param orderID A unique ID to create the order with. Will be hashed.\n    @param isLong {long: true, short: false}\n    @param duration Duration of the LongShort in seconds. For example, 14 days = 1209600\n    @param leverage uint of the wanted leverage\n    @param paymentAddress address, to which the user wants the funds back whether he/she won or not\n    @return bytes32 order hash\n    */\n    function createOrder(string orderID, bool isLong, uint duration, uint leverage, address paymentAddress) public payable returns (bytes32) {\n        // Calculate a hash of the order to uniquely identify orders\n        bytes32 orderHash = keccak256(orderID);\n\n        // Require that there isn't an order with this ID yet\n        require(orders[orderHash].paymentAddress == 0);\n\n        // Check minimum and maximum bets\n        require(msg.value >= MINIMUM_POSITION && msg.value <= MAXIMUM_POSITION);\n\n        // Calculate a hash of the parameters for matching\n        bytes32 parameterHash = keccak256(duration, leverage, signature);\n\n        /* SAVE ORDER */\n\n        // Save new parameter hash to list\n        if (!parameterHashExists(parameterHash)) {\n            openParameterHashes.push(parameterHash);\n        }\n\n        uint256 fee = calculateFee(msg.value);\n        uint256 balance = msg.value.sub(fee);\n\n        cumulatedFee = cumulatedFee.add(fee);\n\n        // Map the orderHash to paramHash\n        orderIDs[parameterHash].push(orderHash);\n        // Map the order to the orderHash\n        orders[orderHash] = Order(isLong, duration, leverage, paymentAddress, balance, keccak256(msg.sender));\n\n        debug(\"New order received and saved.\");\n        return orderHash;\n    }\n\n    /**\n    @dev Deletes an order by hash,\n    effectively turning all its parameters to 0.\n    Used by the backend after an order has been fully matched.\n    Only callable by the owner.\n    \n    @param orderHash The unique hash of the deletable order.\n    */\n    function deleteOrder(bytes32 orderHash) public onlyOwner {\n        require(orders[orderHash].balance == 0);\n        delete orders[orderHash];\n    }\n\n    /**\n    @dev Updates an order's balance.\n    Used by the backend when an order was partially matched.\n    Only callable by the owner.\n    \n    @param orderHash The unique hash of the deletable order.\n    @param newBalance The new balance of an order.\n    */\n    function updateOrderBalance(bytes32 orderHash, uint256 newBalance) public onlyOwner {\n        Order memory modifiedOrder = orders[orderHash];\n        modifiedOrder.balance = newBalance;\n        orders[orderHash] = modifiedOrder;\n    }\n}\n",
  "sourcePath": "/home/jani/dev/blockchain/vanilla-platform/contracts/OrdersManager.sol",
  "compiler": {
    "name": "solc",
    "version": "0.4.19+commit.c4cbbb05.Emscripten.clang"
  },
  "schemaVersion": "1.0.1",
  "updatedAt": "2018-02-19T13:27:30.451Z"
}