{
  "contractName": "OrdersManager",
  "abi": [
    {
      "constant": false,
      "inputs": [
        {
          "name": "expirationDate",
          "type": "uint256"
        },
        {
          "name": "closingSignature",
          "type": "uint256"
        },
        {
          "name": "leverage",
          "type": "uint8"
        },
        {
          "name": "longPosition",
          "type": "bool"
        },
        {
          "name": "paymentAddress",
          "type": "address"
        }
      ],
      "name": "createOrder",
      "outputs": [
        {
          "name": "",
          "type": "uint256"
        }
      ],
      "payable": true,
      "stateMutability": "payable",
      "type": "function"
    },
    {
      "constant": true,
      "inputs": [
        {
          "name": "orderID",
          "type": "uint256"
        }
      ],
      "name": "getOrderStatus",
      "outputs": [
        {
          "name": "",
          "type": "uint256"
        }
      ],
      "payable": false,
      "stateMutability": "view",
      "type": "function"
    },
    {
      "constant": false,
      "inputs": [
        {
          "name": "feeWalletAddress",
          "type": "address"
        }
      ],
      "name": "setFeeWallet",
      "outputs": [],
      "payable": false,
      "stateMutability": "nonpayable",
      "type": "function"
    },
    {
      "constant": false,
      "inputs": [],
      "name": "matchMaker",
      "outputs": [],
      "payable": false,
      "stateMutability": "nonpayable",
      "type": "function"
    },
    {
      "inputs": [
        {
          "name": "signingSecret",
          "type": "string"
        }
      ],
      "payable": false,
      "stateMutability": "nonpayable",
      "type": "constructor"
    }
  ],
  "bytecode": "0x60606040526040805190810160405280600e81526020017f6d7973616c7469737368697474790000000000000000000000000000000000008152506000908051906020019061004f9291906100d5565b50341561005b57600080fd5b604051610ae8380380610ae88339810160405280805182019190505033600660006101000a81548173ffffffffffffffffffffffffffffffffffffffff021916908373ffffffffffffffffffffffffffffffffffffffff16021790555080600090805190602001906100ce9291906100d5565b505061017a565b828054600181600116156101000203166002900490600052602060002090601f016020900481019282601f1061011657805160ff1916838001178555610144565b82800160010185558215610144579182015b82811115610143578251825591602001919060010190610128565b5b5090506101519190610155565b5090565b61017791905b8082111561017357600081600090555060010161015b565b5090565b90565b61095f806101896000396000f300606060405260043610610062576000357c0100000000000000000000000000000000000000000000000000000000900463ffffffff168063303502a71461006757806345fa8aae146100d257806390d49b9d14610109578063f984a6fe14610142575b600080fd5b6100bc600480803590602001909190803590602001909190803560ff16906020019091908035151590602001909190803573ffffffffffffffffffffffffffffffffffffffff16906020019091905050610157565b6040518082815260200191505060405180910390f35b34156100dd57600080fd5b6100f360048080359060200190919050506104f9565b6040518082815260200191505060405180910390f35b341561011457600080fd5b610140600480803573ffffffffffffffffffffffffffffffffffffffff16906020019091905050610647565b005b341561014d57600080fd5b6101556106e7565b005b60008067016345785d8a00003411151561017057600080fd5b681b1ae4d6e2ef5000003410151561018757600080fd5b86856000604051808481526020018360ff1660ff167f01000000000000000000000000000000000000000000000000000000000000000281526001018280546001816001161561010002031660029004801561021a5780601f106101f857610100808354040283529182019161021a565b820191906000526020600020905b815481529060010190602001808311610206575b50509350505050604051809103902060019004905083156103945760028054806001018281610249919061086c565b9160005260206000209060070201600060e0604051908101604052808581526020018b81526020018960ff1681526020018a81526020013373ffffffffffffffffffffffffffffffffffffffff1681526020018773ffffffffffffffffffffffffffffffffffffffff1681526020013481525090919091506000820151816000015560208201518160010155604082015181600201556060820151816003015560808201518160040160006101000a81548173ffffffffffffffffffffffffffffffffffffffff021916908373ffffffffffffffffffffffffffffffffffffffff16021790555060a08201518160050160006101000a81548173ffffffffffffffffffffffffffffffffffffffff021916908373ffffffffffffffffffffffffffffffffffffffff16021790555060c0820151816006015550505060016002805490500391506104ef565b600380548060010182816103a8919061086c565b9160005260206000209060070201600060e0604051908101604052808581526020018b81526020018960ff1681526020018a81526020013373ffffffffffffffffffffffffffffffffffffffff1681526020018773ffffffffffffffffffffffffffffffffffffffff1681526020013481525090919091506000820151816000015560208201518160010155604082015181600201556060820151816003015560808201518160040160006101000a81548173ffffffffffffffffffffffffffffffffffffffff021916908373ffffffffffffffffffffffffffffffffffffffff16021790555060a08201518160050160006101000a81548173ffffffffffffffffffffffffffffffffffffffff021916908373ffffffffffffffffffffffffffffffffffffffff16021790555060c0820151816006015550505060016003805490500391505b5095945050505050565b6000803373ffffffffffffffffffffffffffffffffffffffff1660028481548110151561052257fe5b906000526020600020906007020160040160009054906101000a900473ffffffffffffffffffffffffffffffffffffffff1673ffffffffffffffffffffffffffffffffffffffff1614905080806105e457503373ffffffffffffffffffffffffffffffffffffffff1660038481548110151561059a57fe5b906000526020600020906007020160040160009054906101000a900473ffffffffffffffffffffffffffffffffffffffff1673ffffffffffffffffffffffffffffffffffffffff16145b15156105ef57600080fd5b801561061d5760028381548110151561060457fe5b9060005260206000209060070201600001549150610641565b60038381548110151561062c57fe5b90600052602060002090600702016000015491505b50919050565b600660009054906101000a900473ffffffffffffffffffffffffffffffffffffffff1673ffffffffffffffffffffffffffffffffffffffff163373ffffffffffffffffffffffffffffffffffffffff161415156106a357600080fd5b80600760006101000a81548173ffffffffffffffffffffffffffffffffffffffff021916908373ffffffffffffffffffffffffffffffffffffffff16021790555050565b600080600091505b60028054905082101561076a5760028281548110151561070b57fe5b9060005260206000209060070201600601546004600060028581548110151561073057fe5b90600052602060002090600702016000015481526020019081526020016000206000828254019250508190555081806001019250506106ef565b6706f05b59d3b200006004600060038481548110151561078657fe5b9060005260206000209060070201600001548152602001908152602001600020541115156107b057fe5b600090505b600380549050811015610868576003818154811015156107d157fe5b906000526020600020906007020160060154600560006003848154811015156107f657fe5b9060005260206000209060070201600001548152602001908152602001600020600082825401925050819055506706f05b59d3b200006005600060038481548110151561083f57fe5b9060005260206000209060070201600001548152602001908152505080806001019150506107b5565b5050565b81548183558181151161089957600702816007028360005260206000209182019101610898919061089e565b5b505050565b61093091905b8082111561092c576000808201600090556001820160009055600282016000905560038201600090556004820160006101000a81549073ffffffffffffffffffffffffffffffffffffffff02191690556005820160006101000a81549073ffffffffffffffffffffffffffffffffffffffff02191690556006820160009055506007016108a4565b5090565b905600a165627a7a72305820c6768908031243562c597d0c4cfd2a71ef956e1effed5d57da586f9db1b577310029",
  "source": "pragma solidity ^0.4.18;\nimport \"./LongShortController.sol\";\n\n/**\n * Manages all open option contracts,\n * and matches users and their funds to them.\n */\ncontract OrdersManager {\n    \n    // Secret for parameter matching\n    string private signature = \"mysaltisshitty\";\n    \n    // List of all the controller contracts we have spawned\n    address[] private controllers;\n    \n    // List of all open orders\n    Order[] private openLongOrders;\n    Order[] private openShortOrders;\n    mapping(uint => uint) private longAmountForParameters;\n    mapping(uint => uint) private shortAmountForParameters;\n    \n    // Address of the owner of this manager\n    address private owner;\n    \n    // Address of the fee wallet\n    address private feeWallet;\n    \n    // Constructor, defining the fee wallet address and the signature\n    function OrdersManager(string signingSecret) public {\n        owner = msg.sender;\n        signature = signingSecret;\n    }\n\n    // Message, which is sent from the proxy contracts or straight from the user\n    struct OrderParameters {\n        uint expirationDate;\n        uint closingSignature;\n        uint8 leverage;\n        bool longPosition;\n        address paymentAddress;\n    }\n    \n    // Matchable order, which gets stored in openOrders\n    struct Order {\n        uint parameterSignature;\n        uint expirationDate;\n        uint leverage;\n        uint closingSignature;\n        address originAddress;\n        address paymentAddress;\n        uint balance;\n    }\n    \n    // Create an open order to wait for matching\n    function createOrder(uint expirationDate, uint closingSignature, uint8 leverage, bool longPosition, address paymentAddress) public payable returns (uint) {\n        require(msg.value > 0.1 ether);\n        require(msg.value < 500 ether);\n        uint parameterSignature = uint(keccak256(expirationDate, leverage, signature));\n        if (longPosition) {\n            openLongOrders.push(Order(parameterSignature, expirationDate, leverage, closingSignature, msg.sender, paymentAddress, msg.value));\n            return openLongOrders.length - 1;\n        } else {\n            openShortOrders.push(Order(parameterSignature, expirationDate, leverage, closingSignature, msg.sender, paymentAddress, msg.value));\n            return openShortOrders.length - 1;\n        }\n        return 0;\n    }\n\n    \n    // Just for testing this without any events\n    function getOrderStatus(uint orderID) public view returns (uint) {\n        bool userIsLong = openLongOrders[orderID].originAddress == msg.sender;\n        require(userIsLong || openShortOrders[orderID].originAddress == msg.sender);\n        if (userIsLong) {\n            return openLongOrders[orderID].parameterSignature;\n        } else {\n            return openShortOrders[orderID].parameterSignature;\n        }\n    }\n    \n    // Setter for our fee wallet address\n    function setFeeWallet(address feeWalletAddress) public {\n        require(msg.sender == owner);\n        feeWallet = feeWalletAddress;\n    }\n    \n    // Spawns a new option contract\n    /* function createController(Order[] longOrders, Order[] shortOrders) public {\n        var initialOrder = longOrders[0];\n        address newController = new LongShortController(initialOrder.parameterSignature, initialOrder.expirationDate, initialOrder.leverage, longOrders, shortOrders);\n        controllers.push(newController);\n    } */\n    \n    function matchMaker() public {\n        for (uint longOrderIndex = 0; longOrderIndex < openLongOrders.length; longOrderIndex++) {\n            longAmountForParameters[openLongOrders[longOrderIndex].parameterSignature] += openLongOrders[longOrderIndex].balance;\n        }\n        assert(longAmountForParameters[openShortOrders[shortOrderIndex].parameterSignature] > 0.5 ether);\n        for (uint shortOrderIndex = 0; shortOrderIndex < openShortOrders.length; shortOrderIndex++) {\n            shortAmountForParameters[openShortOrders[shortOrderIndex].parameterSignature] += openShortOrders[shortOrderIndex].balance;\n            if (shortAmountForParameters[openShortOrders[shortOrderIndex].parameterSignature] > 0.5 ether) {\n                \n            }\n        }\n    }\n\n}\n",
  "sourcePath": "/home/jani/dev/blockchain/vanilla-platform/contracts/OrdersManager.sol",
  "compiler": {
    "name": "solc",
    "version": "0.4.18+commit.9cf6e910.Emscripten.clang"
  },
  "schemaVersion": "1.0.1",
  "updatedAt": "2018-02-07T14:05:38.984Z"
}