{
  "contractName": "ProxyWallet",
  "abi": [
    {
      "constant": true,
      "inputs": [],
      "name": "getBalance",
      "outputs": [
        {
          "name": "",
          "type": "uint256"
        }
      ],
      "payable": false,
      "stateMutability": "view",
      "type": "function"
    },
    {
      "constant": false,
      "inputs": [],
      "name": "destroy",
      "outputs": [],
      "payable": false,
      "stateMutability": "nonpayable",
      "type": "function"
    },
    {
      "constant": true,
      "inputs": [],
      "name": "owner",
      "outputs": [
        {
          "name": "",
          "type": "address"
        }
      ],
      "payable": false,
      "stateMutability": "view",
      "type": "function"
    },
    {
      "constant": false,
      "inputs": [
        {
          "name": "paymentAddress",
          "type": "address"
        }
      ],
      "name": "refund",
      "outputs": [],
      "payable": false,
      "stateMutability": "nonpayable",
      "type": "function"
    },
    {
      "inputs": [],
      "payable": false,
      "stateMutability": "nonpayable",
      "type": "constructor"
    },
    {
      "payable": true,
      "stateMutability": "payable",
      "type": "fallback"
    },
    {
      "anonymous": false,
      "inputs": [
        {
          "indexed": false,
          "name": "thisContract",
          "type": "address"
        },
        {
          "indexed": false,
          "name": "updatedBalance",
          "type": "uint256"
        }
      ],
      "name": "PaymentReceived",
      "type": "event"
    },
    {
      "anonymous": false,
      "inputs": [
        {
          "indexed": false,
          "name": "thisContract",
          "type": "address"
        },
        {
          "indexed": false,
          "name": "userAddress",
          "type": "address"
        }
      ],
      "name": "UserRefunded",
      "type": "event"
    },
    {
      "anonymous": false,
      "inputs": [
        {
          "indexed": false,
          "name": "thisContract",
          "type": "address"
        }
      ],
      "name": "ContractDestroyed",
      "type": "event"
    }
  ],
  "bytecode": "0x6060604052341561000f57600080fd5b33600160006101000a81548173ffffffffffffffffffffffffffffffffffffffff021916908373ffffffffffffffffffffffffffffffffffffffff1602179055506104498061005f6000396000f300606060405260043610610062576000357c0100000000000000000000000000000000000000000000000000000000900463ffffffff16806312065fe0146100e057806383197ef0146101095780638da5cb5b1461011e578063fa89401a14610173575b3460008082825401925050819055507f6ef95f06320e7a25a04a175ca677b7052bdd97131872c2192525a629f51be77030600054604051808373ffffffffffffffffffffffffffffffffffffffff1673ffffffffffffffffffffffffffffffffffffffff1681526020018281526020019250505060405180910390a1005b34156100eb57600080fd5b6100f36101ac565b6040518082815260200191505060405180910390f35b341561011457600080fd5b61011c6101b5565b005b341561012957600080fd5b6101316102bf565b604051808273ffffffffffffffffffffffffffffffffffffffff1673ffffffffffffffffffffffffffffffffffffffff16815260200191505060405180910390f35b341561017e57600080fd5b6101aa600480803573ffffffffffffffffffffffffffffffffffffffff169060200190919050506102e5565b005b60008054905090565b600160009054906101000a900473ffffffffffffffffffffffffffffffffffffffff1673ffffffffffffffffffffffffffffffffffffffff163373ffffffffffffffffffffffffffffffffffffffff1614151561021157600080fd5b6000805414151561022157600080fd5b7f3ab1d7915d663a46c292b8f01ac13567c748cff5213cb3652695882b5f9b2e0f30604051808273ffffffffffffffffffffffffffffffffffffffff1673ffffffffffffffffffffffffffffffffffffffff16815260200191505060405180910390a1600160009054906101000a900473ffffffffffffffffffffffffffffffffffffffff1673ffffffffffffffffffffffffffffffffffffffff16ff5b600160009054906101000a900473ffffffffffffffffffffffffffffffffffffffff1681565b600160009054906101000a900473ffffffffffffffffffffffffffffffffffffffff1673ffffffffffffffffffffffffffffffffffffffff163373ffffffffffffffffffffffffffffffffffffffff1614151561034157600080fd5b8073ffffffffffffffffffffffffffffffffffffffff166108fc6000549081150290604051600060405180830381858888f19350505050151561038357600080fd5b7f0561c3fb4eab22df290380ab50465012e355e01cbd856ab13aa07ec5355d8d843082604051808373ffffffffffffffffffffffffffffffffffffffff1673ffffffffffffffffffffffffffffffffffffffff1681526020018273ffffffffffffffffffffffffffffffffffffffff1673ffffffffffffffffffffffffffffffffffffffff1681526020019250505060405180910390a1505600a165627a7a723058205086aa26cd8f36de7aa6fbb5bd854a679c648bd0158ab315befdc4ce63ee70bf0029",
  "source": "pragma solidity ^0.4.18;\n\n/**\n * Proxy wallet, spawned and managed by our backend.\n * The order parameters are saved to our backend.\n * This only stores the balance for the user.\n *\n * When enough funds are transferred, the backend sends the funds\n * with the parameters to the OrdersManager.sol contract.\n *\n * @author Nordic Venture Family Code Distillery\n */\ncontract ProxyWallet {\n  // Balance of the contract in Wei\n  uint256 private balance;\n  address public owner;\n  \n  /**\n   * Constructor, saving the owner\n   */\n  function ProxyWallet() public {\n    owner = msg.sender;\n  }\n  \n  /**\n   * Function modifier for preventing anyone else than the creator\n   * of the contract to call the function.\n   */\n  modifier onlyOwner() {\n    require(msg.sender == owner);\n    _;\n  }\n\n  /**\n   * Watchable events for the backend server to\n   * keep taps of things happening in the proxy wallets.\n   */\n  event PaymentReceived(address thisContract, uint updatedBalance);\n  event UserRefunded(address thisContract, address userAddress);\n  event ContractDestroyed(address thisContract);\n\n  /**\n   * Simple payment endpoint, that\n   * accumulates funds in the contract.\n   */\n  function() public payable {\n    balance += msg.value;\n    PaymentReceived(this, balance);\n  }\n\n  /**\n   * Getter for the balance of the proxy wallet\n   */\n  function getBalance() public view returns (uint) {\n    return balance;\n  }\n\n  /**\n   * Refund the user\n   */\n  function refund(address paymentAddress) public onlyOwner {\n    paymentAddress.transfer(balance);\n    UserRefunded(this, paymentAddress);\n  }\n\n  /**\n   * Destroys the proxy wallet,\n   * calling Solidity's selfdestruct().\n   *\n   * Requires the contract balance to be 0\n   * before destruction, so no user funds are\n   * transfered to us.\n   */\n  function destroy() public onlyOwner {\n\n    // Require that the contract has been refunded before destroying it\n    require(balance == 0);\n\n    // Send the event of the destruction before it actually happening, because things\n    ContractDestroyed(this);\n\n    // Destroy the contract.\n    selfdestruct(owner);\n\n  }\n}\n",
  "sourcePath": "/home/jani/dev/blockchain/vanilla-platform/contracts/ProxyWallet.sol",
  "compiler": {
    "name": "solc",
    "version": "0.4.18+commit.9cf6e910.Emscripten.clang"
  },
  "schemaVersion": "1.0.1",
  "updatedAt": "2018-02-07T14:05:19.440Z"
}