{
  "contractName": "ProxyWallet",
  "abi": [
    {
      "constant": false,
      "inputs": [],
      "name": "destroy",
      "outputs": [],
      "payable": false,
      "stateMutability": "nonpayable",
      "type": "function"
    },
    {
      "constant": true,
      "inputs": [],
      "name": "owner",
      "outputs": [
        {
          "name": "",
          "type": "address"
        }
      ],
      "payable": false,
      "stateMutability": "view",
      "type": "function"
    },
    {
      "constant": true,
      "inputs": [],
      "name": "balance",
      "outputs": [
        {
          "name": "",
          "type": "uint256"
        }
      ],
      "payable": false,
      "stateMutability": "view",
      "type": "function"
    },
    {
      "constant": false,
      "inputs": [
        {
          "name": "newOwner",
          "type": "address"
        }
      ],
      "name": "transferOwnership",
      "outputs": [],
      "payable": false,
      "stateMutability": "nonpayable",
      "type": "function"
    },
    {
      "constant": false,
      "inputs": [
        {
          "name": "paymentAddress",
          "type": "address"
        }
      ],
      "name": "refund",
      "outputs": [],
      "payable": false,
      "stateMutability": "nonpayable",
      "type": "function"
    },
    {
      "payable": true,
      "stateMutability": "payable",
      "type": "fallback"
    },
    {
      "anonymous": false,
      "inputs": [
        {
          "indexed": false,
          "name": "proxyWalletAddress",
          "type": "address"
        },
        {
          "indexed": false,
          "name": "updatedBalance",
          "type": "uint256"
        }
      ],
      "name": "PaymentReceived",
      "type": "event"
    },
    {
      "anonymous": false,
      "inputs": [
        {
          "indexed": false,
          "name": "proxyWalletAddress",
          "type": "address"
        },
        {
          "indexed": false,
          "name": "userAddress",
          "type": "address"
        }
      ],
      "name": "UserRefunded",
      "type": "event"
    },
    {
      "anonymous": false,
      "inputs": [
        {
          "indexed": false,
          "name": "proxyWalletAddress",
          "type": "address"
        }
      ],
      "name": "ContractDestroyed",
      "type": "event"
    },
    {
      "anonymous": false,
      "inputs": [
        {
          "indexed": true,
          "name": "previousOwner",
          "type": "address"
        },
        {
          "indexed": true,
          "name": "newOwner",
          "type": "address"
        }
      ],
      "name": "OwnershipTransferred",
      "type": "event"
    }
  ],
  "bytecode": "0x6060604052336000806101000a81548173ffffffffffffffffffffffffffffffffffffffff021916908373ffffffffffffffffffffffffffffffffffffffff160217905550610641806100536000396000f30060606040526004361061006d576000357c0100000000000000000000000000000000000000000000000000000000900463ffffffff16806383197ef0146100ec5780638da5cb5b14610101578063b69ef8a814610156578063f2fde38b1461017f578063fa89401a146101b8575b346001600082825401925050819055507f6ef95f06320e7a25a04a175ca677b7052bdd97131872c2192525a629f51be77030600154604051808373ffffffffffffffffffffffffffffffffffffffff1673ffffffffffffffffffffffffffffffffffffffff1681526020018281526020019250505060405180910390a1005b34156100f757600080fd5b6100ff6101f1565b005b341561010c57600080fd5b6101146102fa565b604051808273ffffffffffffffffffffffffffffffffffffffff1673ffffffffffffffffffffffffffffffffffffffff16815260200191505060405180910390f35b341561016157600080fd5b61016961031f565b6040518082815260200191505060405180910390f35b341561018a57600080fd5b6101b6600480803573ffffffffffffffffffffffffffffffffffffffff16906020019091905050610325565b005b34156101c357600080fd5b6101ef600480803573ffffffffffffffffffffffffffffffffffffffff1690602001909190505061047a565b005b6000809054906101000a900473ffffffffffffffffffffffffffffffffffffffff1673ffffffffffffffffffffffffffffffffffffffff163373ffffffffffffffffffffffffffffffffffffffff1614151561024c57600080fd5b600060015414151561025d57600080fd5b7f3ab1d7915d663a46c292b8f01ac13567c748cff5213cb3652695882b5f9b2e0f30604051808273ffffffffffffffffffffffffffffffffffffffff1673ffffffffffffffffffffffffffffffffffffffff16815260200191505060405180910390a16000809054906101000a900473ffffffffffffffffffffffffffffffffffffffff1673ffffffffffffffffffffffffffffffffffffffff16ff5b6000809054906101000a900473ffffffffffffffffffffffffffffffffffffffff1681565b60015481565b6000809054906101000a900473ffffffffffffffffffffffffffffffffffffffff1673ffffffffffffffffffffffffffffffffffffffff163373ffffffffffffffffffffffffffffffffffffffff1614151561038057600080fd5b600073ffffffffffffffffffffffffffffffffffffffff168173ffffffffffffffffffffffffffffffffffffffff16141515156103bc57600080fd5b8073ffffffffffffffffffffffffffffffffffffffff166000809054906101000a900473ffffffffffffffffffffffffffffffffffffffff1673ffffffffffffffffffffffffffffffffffffffff167f8be0079c531659141344cd1fd0a4f28419497f9722a3daafe3b4186f6b6457e060405160405180910390a3806000806101000a81548173ffffffffffffffffffffffffffffffffffffffff021916908373ffffffffffffffffffffffffffffffffffffffff16021790555050565b6000809054906101000a900473ffffffffffffffffffffffffffffffffffffffff1673ffffffffffffffffffffffffffffffffffffffff163373ffffffffffffffffffffffffffffffffffffffff161415156104d557600080fd5b6000809054906101000a900473ffffffffffffffffffffffffffffffffffffffff1673ffffffffffffffffffffffffffffffffffffffff168173ffffffffffffffffffffffffffffffffffffffff161415151561053157600080fd5b8073ffffffffffffffffffffffffffffffffffffffff166108fc6001549081150290604051600060405180830381858888f19350505050151561057357600080fd5b60006001819055507f0561c3fb4eab22df290380ab50465012e355e01cbd856ab13aa07ec5355d8d843082604051808373ffffffffffffffffffffffffffffffffffffffff1673ffffffffffffffffffffffffffffffffffffffff1681526020018273ffffffffffffffffffffffffffffffffffffffff1673ffffffffffffffffffffffffffffffffffffffff1681526020019250505060405180910390a1505600a165627a7a72305820234f03aa47f0359de658f9b4b16f9e3e85eb65b81b0bccd852295d7f9d09297c0029",
  "source": "pragma solidity ^0.4.18;\nimport \"../node_modules/zeppelin-solidity/contracts/ownership/Ownable.sol\";\n\n/**\n * Proxy wallet, spawned and managed by our backend.\n * The order parameters are saved to our backend.\n * This only stores the balance for the user.\n *\n * When enough funds are transferred, the backend sends the funds\n * with the parameters to the OrdersManager.sol contract.\n *\n * @author Nordic Venture Family Code Distillery\n */\ncontract ProxyWallet is Ownable {\n  // Balance of the contract in Wei\n  uint256 public balance;\n\n  /**\n   * Watchable events for the backend server to\n   * keep taps of things happening in the proxy wallets.\n   */\n  event PaymentReceived(address proxyWalletAddress, uint updatedBalance);\n  event UserRefunded(address proxyWalletAddress, address userAddress);\n  event ContractDestroyed(address proxyWalletAddress);\n\n  /**\n   * Simple payment endpoint, that\n   * accumulates funds in the contract.\n   */\n  function() public payable {\n    balance += msg.value;\n    PaymentReceived(this, balance);\n  }\n\n  /**\n   * Refund the user\n   */\n  function refund(address paymentAddress) public onlyOwner {\n    require(paymentAddress!=owner);\n    paymentAddress.transfer(balance);\n    balance = 0;\n    UserRefunded(this, paymentAddress);\n  }\n\n  /**\n   * Destroys the proxy wallet,\n   * calling Solidity's selfdestruct().\n   *\n   * Requires the contract balance to be 0\n   * before destruction, so no user funds are\n   * transfered to us.\n   */\n  function destroy() public onlyOwner {\n\n    // Require that the contract has been refunded before destroying it\n    require(balance == 0);\n\n    // Send the event of the destruction before it actually happening, because things\n    ContractDestroyed(this);\n\n    // Destroy the contract.\n    selfdestruct(owner);\n\n  }\n}\n",
  "sourcePath": "/home/jani/dev/blockchain/vanilla-platform/contracts/ProxyWallet.sol",
  "compiler": {
    "name": "solc",
    "version": "0.4.18+commit.9cf6e910.Emscripten.clang"
  },
  "schemaVersion": "1.0.1",
  "updatedAt": "2018-02-12T10:19:38.679Z"
}