{
  "contractName": "Validatable",
  "abi": [
    {
      "constant": true,
      "inputs": [
        {
          "name": "",
          "type": "uint256"
        }
      ],
      "name": "LEVERAGES",
      "outputs": [
        {
          "name": "",
          "type": "uint8"
        }
      ],
      "payable": false,
      "stateMutability": "view",
      "type": "function"
    },
    {
      "constant": true,
      "inputs": [
        {
          "name": "leverage",
          "type": "uint8"
        }
      ],
      "name": "validateLeverage",
      "outputs": [],
      "payable": false,
      "stateMutability": "view",
      "type": "function"
    },
    {
      "constant": true,
      "inputs": [
        {
          "name": "isLongs",
          "type": "bool[]"
        },
        {
          "name": "balances",
          "type": "uint256[]"
        }
      ],
      "name": "requireZeroSum",
      "outputs": [],
      "payable": false,
      "stateMutability": "pure",
      "type": "function"
    }
  ],
  "bytecode": "0x60606040526040805190810160405280600260ff168152602001600560ff168152506000906002610031929190610042565b50341561003d57600080fd5b610119565b82805482825590600052602060002090601f016020900481019282156100d85791602002820160005b838211156100a957835183826101000a81548160ff021916908360ff160217905550926020019260010160208160000104928301926001030261006b565b80156100d65782816101000a81549060ff02191690556001016020816000010492830192600103026100a9565b505b5090506100e591906100e9565b5090565b61011691905b8082111561011257600081816101000a81549060ff0219169055506001016100ef565b5090565b90565b610313806101286000396000f300606060405260043610610057576000357c0100000000000000000000000000000000000000000000000000000000900463ffffffff16806309d2ee7b1461005c578063cf90f950146100f6578063d806476d14610133575b600080fd5b341561006757600080fd5b6100f460048080359060200190820180359060200190808060200260200160405190810160405280939291908181526020018383602002808284378201915050505050509190803590602001908201803590602001908080602002602001604051908101604052809392919081815260200183836020028082843782019150505050505091905050610159565b005b341561010157600080fd5b6101176004808035906020019091905050610214565b604051808260ff1660ff16815260200191505060405180910390f35b341561013e57600080fd5b610157600480803560ff16906020019091905050610247565b005b60008060008090505b84518160ff1610156101ff57848160ff1681518110151561017f57fe5b90602001906020020151156101c2576101bb848260ff168151811015156101a257fe5b90602001906020020151836102c990919063ffffffff16565b91506101f2565b6101ef848260ff168151811015156101d657fe5b90602001906020020151846102c990919063ffffffff16565b92505b8080600101915050610162565b818314151561020d57600080fd5b5050505050565b60008181548110151561022357fe5b9060005260206000209060209182820401919006915054906101000a900460ff1681565b60008060009150600090505b6000805490508160ff1610156102b85760008160ff1681548110151561027557fe5b90600052602060002090602091828204019190069054906101000a900460ff1660ff168360ff1614156102ab57600191506102b8565b8080600101915050610253565b8115156102c457600080fd5b505050565b60008082840190508381101515156102dd57fe5b80915050929150505600a165627a7a72305820e145185433cc8cf1b45510290eb5aa80be49aa70f1f10c31689bb144f642e8030029",
  "source": "pragma solidity ^0.4.18;\nimport \"./SafeMath.sol\";\n\n/**\n@dev Contract that handles constants between\nthe Vanilla platform contracts.\n*/\ncontract Validatable {\n    // Use Zeppelin's SafeMath library for calculations\n    using SafeMath for uint256;\n\n    // Allowed leverages\n    uint8[] public LEVERAGES = [ 2, 5 ];\n\n    /**\n    @dev Helper function to restrict users from opening orders\n    with any other than predefined leverages.\n\n    @param leverage an uint8 number\n    */\n    function validateLeverage(uint8 leverage) public view {\n        // Check leverage against allowed amounts\n        bool allowedLeverage = false;\n        for (uint8 i = 0; i < LEVERAGES.length; i++) {\n            if (leverage == LEVERAGES[i]) {\n                allowedLeverage = true;\n                break;\n            }\n        }\n        require(allowedLeverage);\n    }\n\n    /**\n    @dev Helper function to check if both sides of the bet have same balance\n    \n    @param isLongs list of position types in boolean [true, false]\n    @param balances list of position amounts in wei\n    */\n    function requireZeroSum(bool[] isLongs, uint256[] balances) public pure {\n        uint256 shortBalance;\n        uint256 longBalance;\n        for (uint8 i = 0; i < isLongs.length; i++) {\n            if (isLongs[i]) {\n                longBalance = longBalance.add(balances[i]);\n            } else {\n                shortBalance = shortBalance.add(balances[i]);\n            }\n        }\n        require(shortBalance==longBalance);\n    }\n}\n",
  "sourcePath": "/home/node/app/contracts/Validatable.sol",
  "compiler": {
    "name": "solc",
    "version": "0.4.19+commit.c4cbbb05.Emscripten.clang"
  },
  "schemaVersion": "1.0.1",
  "updatedAt": "2018-02-26T10:15:50.556Z"
}