{
  "contractName": "Validatable",
  "abi": [
    {
      "constant": true,
      "inputs": [
        {
          "name": "",
          "type": "uint256"
        }
      ],
      "name": "CURRENCY_PAIRS",
      "outputs": [
        {
          "name": "",
          "type": "string"
        }
      ],
      "payable": false,
      "stateMutability": "view",
      "type": "function"
    },
    {
      "constant": true,
      "inputs": [
        {
          "name": "",
          "type": "uint256"
        }
      ],
      "name": "POSITION_TYPES",
      "outputs": [
        {
          "name": "",
          "type": "string"
        }
      ],
      "payable": false,
      "stateMutability": "view",
      "type": "function"
    },
    {
      "constant": true,
      "inputs": [
        {
          "name": "",
          "type": "uint256"
        }
      ],
      "name": "LEVERAGES",
      "outputs": [
        {
          "name": "",
          "type": "uint8"
        }
      ],
      "payable": false,
      "stateMutability": "view",
      "type": "function"
    },
    {
      "constant": true,
      "inputs": [
        {
          "name": "currencyPair",
          "type": "string"
        }
      ],
      "name": "validateCurrencyPair",
      "outputs": [],
      "payable": false,
      "stateMutability": "view",
      "type": "function"
    },
    {
      "constant": true,
      "inputs": [
        {
          "name": "positionType",
          "type": "string"
        }
      ],
      "name": "validatePositionType",
      "outputs": [],
      "payable": false,
      "stateMutability": "view",
      "type": "function"
    },
    {
      "constant": true,
      "inputs": [
        {
          "name": "leverage",
          "type": "uint8"
        }
      ],
      "name": "validateLeverage",
      "outputs": [],
      "payable": false,
      "stateMutability": "view",
      "type": "function"
    },
    {
      "constant": true,
      "inputs": [
        {
          "name": "currencyPair",
          "type": "string"
        },
        {
          "name": "positionType",
          "type": "string"
        },
        {
          "name": "leverage",
          "type": "uint8"
        }
      ],
      "name": "validateAllParameters",
      "outputs": [],
      "payable": false,
      "stateMutability": "view",
      "type": "function"
    },
    {
      "constant": true,
      "inputs": [
        {
          "name": "isLongs",
          "type": "bool[]"
        },
        {
          "name": "balances",
          "type": "uint256[]"
        }
      ],
      "name": "requireZeroSum",
      "outputs": [],
      "payable": false,
      "stateMutability": "pure",
      "type": "function"
    }
  ],
  "bytecode": "0x606060405260408051908101604052806040805190810160405280600481526020017f4c4f4e470000000000000000000000000000000000000000000000000000000081525081526020016040805190810160405280600581526020017f53484f52540000000000000000000000000000000000000000000000000000008152508152506000906002620000959291906200016a565b5060408051908101604052806040805190810160405280600781526020017f4554482d5553440000000000000000000000000000000000000000000000000081525081526020016040805190810160405280600781526020017f4254432d555344000000000000000000000000000000000000000000000000008152508152506001906002620001279291906200016a565b506040805190810160405280600260ff168152602001600560ff16815250600290600262000157929190620001d1565b5034156200016457600080fd5b620003de565b828054828255906000526020600020908101928215620001be579160200282015b82811115620001bd578251829080519060200190620001ac9291906200027f565b50916020019190600101906200018b565b5b509050620001cd919062000306565b5090565b82805482825590600052602060002090601f016020900481019282156200026c5791602002820160005b838211156200023b57835183826101000a81548160ff021916908360ff1602179055509260200192600101602081600001049283019260010302620001fb565b80156200026a5782816101000a81549060ff02191690556001016020816000010492830192600103026200023b565b505b5090506200027b919062000337565b5090565b828054600181600116156101000203166002900490600052602060002090601f016020900481019282601f10620002c257805160ff1916838001178555620002f3565b82800160010185558215620002f3579182015b82811115620002f2578251825591602001919060010190620002d5565b5b5090506200030291906200036a565b5090565b6200033491905b8082111562000330576000818162000326919062000392565b506001016200030d565b5090565b90565b6200036791905b808211156200036357600081816101000a81549060ff0219169055506001016200033e565b5090565b90565b6200038f91905b808211156200038b57600081600090555060010162000371565b5090565b90565b50805460018160011615610100020316600290046000825580601f10620003ba5750620003db565b601f016020900490600052602060002090810190620003da91906200036a565b5b50565b610a6780620003ee6000396000f30060606040526004361061008e576000357c0100000000000000000000000000000000000000000000000000000000900463ffffffff16806309d2ee7b146100935780637a03aa3f1461012d578063a22d3dd2146101c9578063ae2ed20f14610275578063cf90f95014610311578063d806476d1461034e578063e7a026f114610374578063fa748eac146103d1575b600080fd5b341561009e57600080fd5b61012b6004808035906020019082018035906020019080806020026020016040519081016040528093929190818152602001838360200280828437820191505050505050919080359060200190820180359060200190808060200260200160405190810160405280939291908181526020018383602002808284378201915050505050509190505061042e565b005b341561013857600080fd5b61014e60048080359060200190919050506104e9565b6040518080602001828103825283818151815260200191508051906020019080838360005b8381101561018e578082015181840152602081019050610173565b50505050905090810190601f1680156101bb5780820380516001836020036101000a031916815260200191505b509250505060405180910390f35b34156101d457600080fd5b610273600480803590602001908201803590602001908080601f0160208091040260200160405190810160405280939291908181526020018383808284378201915050505050509190803590602001908201803590602001908080601f0160208091040260200160405190810160405280939291908181526020018383808284378201915050505050509190803560ff169060200190919050506105a5565b005b341561028057600080fd5b61029660048080359060200190919050506105c5565b6040518080602001828103825283818151815260200191508051906020019080838360005b838110156102d65780820151818401526020810190506102bb565b50505050905090810190601f1680156103035780820380516001836020036101000a031916815260200191505b509250505060405180910390f35b341561031c57600080fd5b6103326004808035906020019091905050610681565b604051808260ff1660ff16815260200191505060405180910390f35b341561035957600080fd5b610372600480803560ff169060200190919050506106b4565b005b341561037f57600080fd5b6103cf600480803590602001908201803590602001908080601f01602080910402602001604051908101604052809392919081815260200183838082843782019150505050505091905050610736565b005b34156103dc57600080fd5b61042c600480803590602001908201803590602001908080601f0160208091040260200160405190810160405280939291908181526020018383808284378201915050505050509190505061083d565b005b60008060008090505b84518160ff1610156104d457848160ff1681518110151561045457fe5b906020019060200201511561049757610490848260ff1681518110151561047757fe5b906020019060200201518361094490919063ffffffff16565b91506104c7565b6104c4848260ff168151811015156104ab57fe5b906020019060200201518461094490919063ffffffff16565b92505b8080600101915050610437565b81831415156104e257600080fd5b5050505050565b6001818154811015156104f857fe5b90600052602060002090016000915090508054600181600116156101000203166002900480601f01602080910402602001604051908101604052809291908181526020018280546001816001161561010002031660029004801561059d5780601f106105725761010080835404028352916020019161059d565b820191906000526020600020905b81548152906001019060200180831161058057829003601f168201915b505050505081565b6105ae8361083d565b6105b782610736565b6105c0816106b4565b505050565b6000818154811015156105d457fe5b90600052602060002090016000915090508054600181600116156101000203166002900480601f0160208091040260200160405190810160405280929190818152602001828054600181600116156101000203166002900480156106795780601f1061064e57610100808354040283529160200191610679565b820191906000526020600020905b81548152906001019060200180831161065c57829003601f168201915b505050505081565b60028181548110151561069057fe5b9060005260206000209060209182820401919006915054906101000a900460ff1681565b60008060009150600090505b6002805490508160ff1610156107255760028160ff168154811015156106e257fe5b90600052602060002090602091828204019190069054906101000a900460ff1660ff168360ff1614156107185760019150610725565b80806001019150506106c0565b81151561073157600080fd5b505050565b60008060009150600090505b6000805490508160ff16101561082c576108118360008360ff1681548110151561076857fe5b90600052602060002090018054600181600116156101000203166002900480601f0160208091040260200160405190810160405280929190818152602001828054600181600116156101000203166002900480156108075780601f106107dc57610100808354040283529160200191610807565b820191906000526020600020905b8154815290600101906020018083116107ea57829003601f168201915b5050505050610962565b1561081f576001915061082c565b8080600101915050610742565b81151561083857600080fd5b505050565b60008060009150600090505b6001805490508160ff161015610933576109188360018360ff1681548110151561086f57fe5b90600052602060002090018054600181600116156101000203166002900480601f01602080910402602001604051908101604052809291908181526020018280546001816001161561010002031660029004801561090e5780601f106108e35761010080835404028352916020019161090e565b820191906000526020600020905b8154815290600101906020018083116108f157829003601f168201915b5050505050610962565b156109265760019150610933565b8080600101915050610849565b81151561093f57600080fd5b505050565b600080828401905083811015151561095857fe5b8091505092915050565b6000816040518082805190602001908083835b60208310151561099a5780518252602082019150602081019050602083039250610975565b6001836020036101000a038019825116818451168082178552505050505050905001915050604051809103902060001916836040518082805190602001908083835b602083101515610a0157805182526020820191506020810190506020830392506109dc565b6001836020036101000a038019825116818451168082178552505050505050905001915050604051809103902060001916149050929150505600a165627a7a7230582016a065d0e95e417ab16447af328dfd32419f814ba07691d0332bcbff69ba1bae0029",
  "source": "pragma solidity ^0.4.18;\nimport \"./SafeMath.sol\";\n\ncontract Validatable {\n  // Use Zeppelin's SafeMath library for calculations\n  using SafeMath for uint256;\n\n  // Allowed order types\n  string[] public POSITION_TYPES = [ \"LONG\", \"SHORT\" ];\n\n  // Allowed currency pairs\n  string[] public CURRENCY_PAIRS = [ \"ETH-USD\", \"BTC-USD\" ];\n\n  // Allowed leverages\n  uint8[] public LEVERAGES = [ 2, 5 ];\n\n  /**\n  @dev A function that compares two strings for equality.\n  Hashes first and second with keccak256 and checks if the hashes are equal.\n  */\n  function stringsAreEqual(string first, string second) internal pure returns (bool) {\n      return keccak256(first) == keccak256(second);\n  }\n\n  function validateCurrencyPair(string currencyPair) public view {\n    // Check currencyPair against allowed pairs\n    bool allowedPair = false;\n    for (uint8 i = 0; i < CURRENCY_PAIRS.length; i++) {\n        if (stringsAreEqual(currencyPair, CURRENCY_PAIRS[i])) {\n            allowedPair = true;\n            break;\n        }\n    }\n    require(allowedPair);\n  }\n\n  function validatePositionType(string positionType) public view {\n    // Check positionType against allowed types\n    bool allowedPosition = false;\n    for (uint8 i = 0; i < POSITION_TYPES.length; i++) {\n        if (stringsAreEqual(positionType, POSITION_TYPES[i])) {\n            allowedPosition = true;\n            break;\n        }\n    }\n    require(allowedPosition);\n  }\n\n  function validateLeverage(uint8 leverage) public view {\n    // Check leverage against allowed amounts\n    bool allowedLeverage = false;\n    for (uint8 i = 0; i < LEVERAGES.length; i++) {\n        if (leverage == LEVERAGES[i]) {\n            allowedLeverage = true;\n            break;\n        }\n    }\n    require(allowedLeverage);\n  }\n\n  function validateAllParameters(string currencyPair, string positionType, uint8 leverage) public view {\n    validateCurrencyPair(currencyPair);\n    validatePositionType(positionType);\n    validateLeverage(leverage);\n  }\n\n  /**\n  @dev Helper function to check if both sides of the bet have same balance\n  \n  @param isLongs list of position types in boolean [true, false]\n  @param balances list of position amounts in wei\n  */\n  function requireZeroSum(bool[] isLongs, uint256[] balances) public pure {\n      uint256 shortBalance;\n      uint256 longBalance;\n      for (uint8 i = 0; i < isLongs.length; i++) {\n          if (isLongs[i]) {\n              longBalance = longBalance.add(balances[i]);\n          } else {\n              shortBalance = shortBalance.add(balances[i]);\n          }\n      }\n      require(shortBalance==longBalance);\n  }\n}\n",
  "sourcePath": "/home/jani/dev/blockchain/vanilla-platform/contracts/Validatable.sol",
  "compiler": {
    "name": "solc",
    "version": "0.4.19+commit.c4cbbb05.Emscripten.clang"
  },
  "schemaVersion": "1.0.1",
  "updatedAt": "2018-02-23T09:05:43.072Z"
}